{
	"compilerInput": "{\"language\":\"Solidity\",\"sources\":{\"challenge2.sol\":{\"content\":\"//SPDX-License-Identifier: MIT\\npragma solidity ^0.8.0;\\n\\ncontract CallMeChallenge {\\n    bool public isComplete = false;\\n\\n    function callme() public {\\n        isComplete = true;\\n    }\\n}\"}},\"settings\":{\"optimizer\":{\"enabled\":false,\"runs\":200},\"outputSelection\":{\"*\":{\"\":[\"ast\"],\"*\":[\"abi\",\"metadata\",\"devdoc\",\"userdoc\",\"storageLayout\",\"evm.legacyAssembly\",\"evm.bytecode\",\"evm.deployedBytecode\",\"evm.methodIdentifiers\",\"evm.gasEstimates\",\"evm.assembly\"]}},\"remappings\":[]}}",
	"name": "CallMeChallenge",
	"bytecode": {
		"linkReferences": {},
		"object": "60806040525f5f5f6101000a81548160ff0219169083151502179055503480156026575f5ffd5b5060e7806100335f395ff3fe6080604052348015600e575f5ffd5b50600436106030575f3560e01c8063a3c8e393146034578063b2fa1c9e14603c575b5f5ffd5b603a6056565b005b60426071565b604051604d9190609a565b60405180910390f35b60015f5f6101000a81548160ff021916908315150217905550565b5f5f9054906101000a900460ff1681565b5f8115159050919050565b6094816082565b82525050565b5f60208201905060ab5f830184608d565b9291505056fea264697066735822122066417e8929e49049800c53f85365ce8a9636bd1c68fe90677fe8a3a2a13f832e64736f6c634300081f0033",
		"opcodes": "PUSH1 0x80 PUSH1 0x40 MSTORE PUSH0 PUSH0 PUSH0 PUSH2 0x100 EXP DUP2 SLOAD DUP2 PUSH1 0xFF MUL NOT AND SWAP1 DUP4 ISZERO ISZERO MUL OR SWAP1 SSTORE POP CALLVALUE DUP1 ISZERO PUSH1 0x26 JUMPI PUSH0 PUSH0 REVERT JUMPDEST POP PUSH1 0xE7 DUP1 PUSH2 0x33 PUSH0 CODECOPY PUSH0 RETURN INVALID PUSH1 0x80 PUSH1 0x40 MSTORE CALLVALUE DUP1 ISZERO PUSH1 0xE JUMPI PUSH0 PUSH0 REVERT JUMPDEST POP PUSH1 0x4 CALLDATASIZE LT PUSH1 0x30 JUMPI PUSH0 CALLDATALOAD PUSH1 0xE0 SHR DUP1 PUSH4 0xA3C8E393 EQ PUSH1 0x34 JUMPI DUP1 PUSH4 0xB2FA1C9E EQ PUSH1 0x3C JUMPI JUMPDEST PUSH0 PUSH0 REVERT JUMPDEST PUSH1 0x3A PUSH1 0x56 JUMP JUMPDEST STOP JUMPDEST PUSH1 0x42 PUSH1 0x71 JUMP JUMPDEST PUSH1 0x40 MLOAD PUSH1 0x4D SWAP2 SWAP1 PUSH1 0x9A JUMP JUMPDEST PUSH1 0x40 MLOAD DUP1 SWAP2 SUB SWAP1 RETURN JUMPDEST PUSH1 0x1 PUSH0 PUSH0 PUSH2 0x100 EXP DUP2 SLOAD DUP2 PUSH1 0xFF MUL NOT AND SWAP1 DUP4 ISZERO ISZERO MUL OR SWAP1 SSTORE POP JUMP JUMPDEST PUSH0 PUSH0 SWAP1 SLOAD SWAP1 PUSH2 0x100 EXP SWAP1 DIV PUSH1 0xFF AND DUP2 JUMP JUMPDEST PUSH0 DUP2 ISZERO ISZERO SWAP1 POP SWAP2 SWAP1 POP JUMP JUMPDEST PUSH1 0x94 DUP2 PUSH1 0x82 JUMP JUMPDEST DUP3 MSTORE POP POP JUMP JUMPDEST PUSH0 PUSH1 0x20 DUP3 ADD SWAP1 POP PUSH1 0xAB PUSH0 DUP4 ADD DUP5 PUSH1 0x8D JUMP JUMPDEST SWAP3 SWAP2 POP POP JUMP INVALID LOG2 PUSH5 0x6970667358 0x22 SLT KECCAK256 PUSH7 0x417E8929E49049 DUP1 0xC MSTORE8 EXTCALL MSTORE8 PUSH6 0xCE8A9636BD1C PUSH9 0xFE90677FE8A3A2A13F DUP4 0x2E PUSH5 0x736F6C6343 STOP ADDMOD 0x1F STOP CALLER "
	},
	"abi": [
		{
			"inputs": [],
			"name": "callme",
			"outputs": [],
			"stateMutability": "nonpayable",
			"type": "function"
		},
		{
			"inputs": [],
			"name": "isComplete",
			"outputs": [
				{
					"internalType": "bool",
					"name": "",
					"type": "bool"
				}
			],
			"stateMutability": "view",
			"type": "function"
		}
	],
	"storageLayout": {
		"storage": [
			{
				"astId": 4,
				"contract": "challenge2.sol:CallMeChallenge",
				"label": "isComplete",
				"offset": 0,
				"slot": "0",
				"type": "t_bool"
			}
		],
		"types": {
			"t_bool": {
				"encoding": "inplace",
				"label": "bool",
				"numberOfBytes": "1"
			}
		}
	},
	"web3Deploy": "var callmechallengeContract = new web3.eth.Contract([{\"inputs\":[],\"name\":\"callme\",\"outputs\":[],\"stateMutability\":\"nonpayable\",\"type\":\"function\"},{\"inputs\":[],\"name\":\"isComplete\",\"outputs\":[{\"internalType\":\"bool\",\"name\":\"\",\"type\":\"bool\"}],\"stateMutability\":\"view\",\"type\":\"function\"}]);\nvar callmechallenge = callmechallengeContract.deploy({\n     data: '0x60806040525f5f5f6101000a81548160ff0219169083151502179055503480156026575f5ffd5b5060e7806100335f395ff3fe6080604052348015600e575f5ffd5b50600436106030575f3560e01c8063a3c8e393146034578063b2fa1c9e14603c575b5f5ffd5b603a6056565b005b60426071565b604051604d9190609a565b60405180910390f35b60015f5f6101000a81548160ff021916908315150217905550565b5f5f9054906101000a900460ff1681565b5f8115159050919050565b6094816082565b82525050565b5f60208201905060ab5f830184608d565b9291505056fea264697066735822122066417e8929e49049800c53f85365ce8a9636bd1c68fe90677fe8a3a2a13f832e64736f6c634300081f0033', \n     arguments: [\n     ]\n}).send({\n     from: web3.eth.accounts[0], \n     gas: '4700000'\n   }, function (e, contract){\n    console.log(e, contract);\n    if (typeof contract.address !== 'undefined') {\n         console.log('Contract mined! address: ' + contract.address + ' transactionHash: ' + contract.transactionHash);\n    }\n })",
	"functionHashes": {
		"a3c8e393": "callme()",
		"b2fa1c9e": "isComplete()"
	},
	"gasEstimates": {
		"Creation": {
			"codeDepositCost": "46200",
			"executionCost": "24361",
			"totalCost": "70561"
		},
		"External": {
			"callme()": "24386",
			"isComplete()": "2465"
		}
	},
	"devdoc": {
		"kind": "dev",
		"methods": {},
		"version": 1
	},
	"userdoc": {
		"kind": "user",
		"methods": {},
		"version": 1
	},
	"Runtime Bytecode": {
		"immutableReferences": {},
		"linkReferences": {},
		"object": "6080604052348015600e575f5ffd5b50600436106030575f3560e01c8063a3c8e393146034578063b2fa1c9e14603c575b5f5ffd5b603a6056565b005b60426071565b604051604d9190609a565b60405180910390f35b60015f5f6101000a81548160ff021916908315150217905550565b5f5f9054906101000a900460ff1681565b5f8115159050919050565b6094816082565b82525050565b5f60208201905060ab5f830184608d565b9291505056fea264697066735822122066417e8929e49049800c53f85365ce8a9636bd1c68fe90677fe8a3a2a13f832e64736f6c634300081f0033",
		"opcodes": "PUSH1 0x80 PUSH1 0x40 MSTORE CALLVALUE DUP1 ISZERO PUSH1 0xE JUMPI PUSH0 PUSH0 REVERT JUMPDEST POP PUSH1 0x4 CALLDATASIZE LT PUSH1 0x30 JUMPI PUSH0 CALLDATALOAD PUSH1 0xE0 SHR DUP1 PUSH4 0xA3C8E393 EQ PUSH1 0x34 JUMPI DUP1 PUSH4 0xB2FA1C9E EQ PUSH1 0x3C JUMPI JUMPDEST PUSH0 PUSH0 REVERT JUMPDEST PUSH1 0x3A PUSH1 0x56 JUMP JUMPDEST STOP JUMPDEST PUSH1 0x42 PUSH1 0x71 JUMP JUMPDEST PUSH1 0x40 MLOAD PUSH1 0x4D SWAP2 SWAP1 PUSH1 0x9A JUMP JUMPDEST PUSH1 0x40 MLOAD DUP1 SWAP2 SUB SWAP1 RETURN JUMPDEST PUSH1 0x1 PUSH0 PUSH0 PUSH2 0x100 EXP DUP2 SLOAD DUP2 PUSH1 0xFF MUL NOT AND SWAP1 DUP4 ISZERO ISZERO MUL OR SWAP1 SSTORE POP JUMP JUMPDEST PUSH0 PUSH0 SWAP1 SLOAD SWAP1 PUSH2 0x100 EXP SWAP1 DIV PUSH1 0xFF AND DUP2 JUMP JUMPDEST PUSH0 DUP2 ISZERO ISZERO SWAP1 POP SWAP2 SWAP1 POP JUMP JUMPDEST PUSH1 0x94 DUP2 PUSH1 0x82 JUMP JUMPDEST DUP3 MSTORE POP POP JUMP JUMPDEST PUSH0 PUSH1 0x20 DUP3 ADD SWAP1 POP PUSH1 0xAB PUSH0 DUP4 ADD DUP5 PUSH1 0x8D JUMP JUMPDEST SWAP3 SWAP2 POP POP JUMP INVALID LOG2 PUSH5 0x6970667358 0x22 SLT KECCAK256 PUSH7 0x417E8929E49049 DUP1 0xC MSTORE8 EXTCALL MSTORE8 PUSH6 0xCE8A9636BD1C PUSH9 0xFE90677FE8A3A2A13F DUP4 0x2E PUSH5 0x736F6C6343 STOP ADDMOD 0x1F STOP CALLER "
	},
	"Assembly": ".code\n  PUSH 80\t\t\tcontract CallMeChallenge {\\n  ...\n  PUSH 40\t\t\tcontract CallMeChallenge {\\n  ...\n  MSTORE \t\t\tcontract CallMeChallenge {\\n  ...\n  PUSH 0\t\t\tfalse\n  PUSH 0\t\t\tbool public isComplete = false\n  PUSH 0\t\t\tbool public isComplete = false\n  PUSH 100\t\t\tbool public isComplete = false\n  EXP \t\t\tbool public isComplete = false\n  DUP2 \t\t\tbool public isComplete = false\n  SLOAD \t\t\tbool public isComplete = false\n  DUP2 \t\t\tbool public isComplete = false\n  PUSH FF\t\t\tbool public isComplete = false\n  MUL \t\t\tbool public isComplete = false\n  NOT \t\t\tbool public isComplete = false\n  AND \t\t\tbool public isComplete = false\n  SWAP1 \t\t\tbool public isComplete = false\n  DUP4 \t\t\tbool public isComplete = false\n  ISZERO \t\t\tbool public isComplete = false\n  ISZERO \t\t\tbool public isComplete = false\n  MUL \t\t\tbool public isComplete = false\n  OR \t\t\tbool public isComplete = false\n  SWAP1 \t\t\tbool public isComplete = false\n  SSTORE \t\t\tbool public isComplete = false\n  POP \t\t\tbool public isComplete = false\n  CALLVALUE \t\t\tcontract CallMeChallenge {\\n  ...\n  DUP1 \t\t\tcontract CallMeChallenge {\\n  ...\n  ISZERO \t\t\tcontract CallMeChallenge {\\n  ...\n  PUSH [tag] 1\t\t\tcontract CallMeChallenge {\\n  ...\n  JUMPI \t\t\tcontract CallMeChallenge {\\n  ...\n  PUSH 0\t\t\tcontract CallMeChallenge {\\n  ...\n  PUSH 0\t\t\tcontract CallMeChallenge {\\n  ...\n  REVERT \t\t\tcontract CallMeChallenge {\\n  ...\ntag 1\t\t\tcontract CallMeChallenge {\\n  ...\n  JUMPDEST \t\t\tcontract CallMeChallenge {\\n  ...\n  POP \t\t\tcontract CallMeChallenge {\\n  ...\n  PUSH #[$] 0000000000000000000000000000000000000000000000000000000000000000\t\t\tcontract CallMeChallenge {\\n  ...\n  DUP1 \t\t\tcontract CallMeChallenge {\\n  ...\n  PUSH [$] 0000000000000000000000000000000000000000000000000000000000000000\t\t\tcontract CallMeChallenge {\\n  ...\n  PUSH 0\t\t\tcontract CallMeChallenge {\\n  ...\n  CODECOPY \t\t\tcontract CallMeChallenge {\\n  ...\n  PUSH 0\t\t\tcontract CallMeChallenge {\\n  ...\n  RETURN \t\t\tcontract CallMeChallenge {\\n  ...\n.data\n  0:\n    .code\n      PUSH 80\t\t\tcontract CallMeChallenge {\\n  ...\n      PUSH 40\t\t\tcontract CallMeChallenge {\\n  ...\n      MSTORE \t\t\tcontract CallMeChallenge {\\n  ...\n      CALLVALUE \t\t\tcontract CallMeChallenge {\\n  ...\n      DUP1 \t\t\tcontract CallMeChallenge {\\n  ...\n      ISZERO \t\t\tcontract CallMeChallenge {\\n  ...\n      PUSH [tag] 1\t\t\tcontract CallMeChallenge {\\n  ...\n      JUMPI \t\t\tcontract CallMeChallenge {\\n  ...\n      PUSH 0\t\t\tcontract CallMeChallenge {\\n  ...\n      PUSH 0\t\t\tcontract CallMeChallenge {\\n  ...\n      REVERT \t\t\tcontract CallMeChallenge {\\n  ...\n    tag 1\t\t\tcontract CallMeChallenge {\\n  ...\n      JUMPDEST \t\t\tcontract CallMeChallenge {\\n  ...\n      POP \t\t\tcontract CallMeChallenge {\\n  ...\n      PUSH 4\t\t\tcontract CallMeChallenge {\\n  ...\n      CALLDATASIZE \t\t\tcontract CallMeChallenge {\\n  ...\n      LT \t\t\tcontract CallMeChallenge {\\n  ...\n      PUSH [tag] 2\t\t\tcontract CallMeChallenge {\\n  ...\n      JUMPI \t\t\tcontract CallMeChallenge {\\n  ...\n      PUSH 0\t\t\tcontract CallMeChallenge {\\n  ...\n      CALLDATALOAD \t\t\tcontract CallMeChallenge {\\n  ...\n      PUSH E0\t\t\tcontract CallMeChallenge {\\n  ...\n      SHR \t\t\tcontract CallMeChallenge {\\n  ...\n      DUP1 \t\t\tcontract CallMeChallenge {\\n  ...\n      PUSH A3C8E393\t\t\tcontract CallMeChallenge {\\n  ...\n      EQ \t\t\tcontract CallMeChallenge {\\n  ...\n      PUSH [tag] 3\t\t\tcontract CallMeChallenge {\\n  ...\n      JUMPI \t\t\tcontract CallMeChallenge {\\n  ...\n      DUP1 \t\t\tcontract CallMeChallenge {\\n  ...\n      PUSH B2FA1C9E\t\t\tcontract CallMeChallenge {\\n  ...\n      EQ \t\t\tcontract CallMeChallenge {\\n  ...\n      PUSH [tag] 4\t\t\tcontract CallMeChallenge {\\n  ...\n      JUMPI \t\t\tcontract CallMeChallenge {\\n  ...\n    tag 2\t\t\tcontract CallMeChallenge {\\n  ...\n      JUMPDEST \t\t\tcontract CallMeChallenge {\\n  ...\n      PUSH 0\t\t\tcontract CallMeChallenge {\\n  ...\n      PUSH 0\t\t\tcontract CallMeChallenge {\\n  ...\n      REVERT \t\t\tcontract CallMeChallenge {\\n  ...\n    tag 3\t\t\tfunction callme() public {\\n  ...\n      JUMPDEST \t\t\tfunction callme() public {\\n  ...\n      PUSH [tag] 5\t\t\tfunction callme() public {\\n  ...\n      PUSH [tag] 6\t\t\tfunction callme() public {\\n  ...\n      JUMP \t\t\tfunction callme() public {\\n  ...\n    tag 5\t\t\tfunction callme() public {\\n  ...\n      JUMPDEST \t\t\tfunction callme() public {\\n  ...\n      STOP \t\t\tfunction callme() public {\\n  ...\n    tag 4\t\t\tbool public isComplete = false\n      JUMPDEST \t\t\tbool public isComplete = false\n      PUSH [tag] 7\t\t\tbool public isComplete = false\n      PUSH [tag] 8\t\t\tbool public isComplete = false\n      JUMP \t\t\tbool public isComplete = false\n    tag 7\t\t\tbool public isComplete = false\n      JUMPDEST \t\t\tbool public isComplete = false\n      PUSH 40\t\t\tbool public isComplete = false\n      MLOAD \t\t\tbool public isComplete = false\n      PUSH [tag] 9\t\t\tbool public isComplete = false\n      SWAP2 \t\t\tbool public isComplete = false\n      SWAP1 \t\t\tbool public isComplete = false\n      PUSH [tag] 10\t\t\tbool public isComplete = false\n      JUMP \t\t\tbool public isComplete = false\n    tag 9\t\t\tbool public isComplete = false\n      JUMPDEST \t\t\tbool public isComplete = false\n      PUSH 40\t\t\tbool public isComplete = false\n      MLOAD \t\t\tbool public isComplete = false\n      DUP1 \t\t\tbool public isComplete = false\n      SWAP2 \t\t\tbool public isComplete = false\n      SUB \t\t\tbool public isComplete = false\n      SWAP1 \t\t\tbool public isComplete = false\n      RETURN \t\t\tbool public isComplete = false\n    tag 6\t\t\tfunction callme() public {\\n  ...\n      JUMPDEST \t\t\tfunction callme() public {\\n  ...\n      PUSH 1\t\t\ttrue\n      PUSH 0\t\t\tisComplete\n      PUSH 0\t\t\tisComplete\n      PUSH 100\t\t\tisComplete = true\n      EXP \t\t\tisComplete = true\n      DUP2 \t\t\tisComplete = true\n      SLOAD \t\t\tisComplete = true\n      DUP2 \t\t\tisComplete = true\n      PUSH FF\t\t\tisComplete = true\n      MUL \t\t\tisComplete = true\n      NOT \t\t\tisComplete = true\n      AND \t\t\tisComplete = true\n      SWAP1 \t\t\tisComplete = true\n      DUP4 \t\t\tisComplete = true\n      ISZERO \t\t\tisComplete = true\n      ISZERO \t\t\tisComplete = true\n      MUL \t\t\tisComplete = true\n      OR \t\t\tisComplete = true\n      SWAP1 \t\t\tisComplete = true\n      SSTORE \t\t\tisComplete = true\n      POP \t\t\tisComplete = true\n      JUMP \t\t\tfunction callme() public {\\n  ...\n    tag 8\t\t\tbool public isComplete = false\n      JUMPDEST \t\t\tbool public isComplete = false\n      PUSH 0\t\t\tbool public isComplete = false\n      PUSH 0\t\t\tbool public isComplete = false\n      SWAP1 \t\t\tbool public isComplete = false\n      SLOAD \t\t\tbool public isComplete = false\n      SWAP1 \t\t\tbool public isComplete = false\n      PUSH 100\t\t\tbool public isComplete = false\n      EXP \t\t\tbool public isComplete = false\n      SWAP1 \t\t\tbool public isComplete = false\n      DIV \t\t\tbool public isComplete = false\n      PUSH FF\t\t\tbool public isComplete = false\n      AND \t\t\tbool public isComplete = false\n      DUP2 \t\t\tbool public isComplete = false\n      JUMP \t\t\tbool public isComplete = false\n    tag 12\t\t\tLicense-Identifier: MIT\\npragm...\n      JUMPDEST \t\t\tLicense-Identifier: MIT\\npragm...\n      PUSH 0\t\t\tidity ^\n      DUP2 \t\t\t   bo\n      ISZERO \t\t\tnge {\\n    boo\n      ISZERO \t\t\teChallenge {\\n    bool\n      SWAP1 \t\t\ttract CallMeChallenge {\\n    b...\n      POP \t\t\ttract CallMeChallenge {\\n    b...\n      SWAP2 \t\t\tLicense-Identifier: MIT\\npragm...\n      SWAP1 \t\t\tLicense-Identifier: MIT\\npragm...\n      POP \t\t\tLicense-Identifier: MIT\\npragm...\n      JUMP \t\t\tLicense-Identifier: MIT\\npragm...\n    tag 13\t\t\tmplete = false;\\n\\n    functio...\n      JUMPDEST \t\t\tmplete = false;\\n\\n    functio...\n      PUSH [tag] 17\t\t\t}\n      DUP2 \t\t\t\n      PUSH [tag] 12\t\t\t}\n      JUMP \t\t\t}\n    tag 17\t\t\t}\n      JUMPDEST \t\t\t}\n      DUP3 \t\t\t   \n      MSTORE \t\t\ttrue;\\n    }\\n}\n      POP \t\t\tmplete = false;\\n\\n    functio...\n      POP \t\t\tmplete = false;\\n\\n    functio...\n      JUMP \t\t\tmplete = false;\\n\\n    functio...\n    tag 10\t\t\t\n      JUMPDEST \t\t\t\n      PUSH 0\t\t\t\n      PUSH 20\t\t\t\n      DUP3 \t\t\t\n      ADD \t\t\t\n      SWAP1 \t\t\t\n      POP \t\t\t\n      PUSH [tag] 19\t\t\t\n      PUSH 0\t\t\t\n      DUP4 \t\t\t\n      ADD \t\t\t\n      DUP5 \t\t\t\n      PUSH [tag] 13\t\t\t\n      JUMP \t\t\t\n    tag 19\t\t\t\n      JUMPDEST \t\t\t\n      SWAP3 \t\t\t\n      SWAP2 \t\t\t\n      POP \t\t\t\n      POP \t\t\t\n      JUMP \t\t\t\n    .data\n"
}