{
	"compilerInput": "{\"language\":\"Solidity\",\"sources\":{\"challenge4.sol\":{\"content\":\"// SPDX-License-Identifier: UNLICENSED\\n\\npragma solidity ^0.8.21;\\n\\ncontract GuessTheNumberChallenge {\\n    uint8 answer = 42;\\n    bool issolved=false;\\n    function isComplete() public view returns (bool) {\\n        return issolved;\\n    }\\n    function guess(uint8 n) public payable {\\n        if (n==answer){\\n            issolved=true;\\n        }\\n    }\\n}\"}},\"settings\":{\"optimizer\":{\"enabled\":false,\"runs\":200},\"outputSelection\":{\"*\":{\"\":[\"ast\"],\"*\":[\"abi\",\"metadata\",\"devdoc\",\"userdoc\",\"storageLayout\",\"evm.legacyAssembly\",\"evm.bytecode\",\"evm.deployedBytecode\",\"evm.methodIdentifiers\",\"evm.gasEstimates\",\"evm.assembly\"]}},\"remappings\":[]}}",
	"name": "GuessTheNumberChallenge",
	"bytecode": {
		"linkReferences": {},
		"object": "6080604052602a5f5f6101000a81548160ff021916908360ff1602179055505f5f60016101000a81548160ff0219169083151502179055503480156041575f5ffd5b5061018d8061004f5f395ff3fe608060405260043610610028575f3560e01c80634ba4c16b1461002c578063b2fa1c9e14610048575b5f5ffd5b610046600480360381019061004191906100f9565b610072565b005b348015610053575f5ffd5b5061005c6100aa565b604051610069919061013e565b60405180910390f35b5f5f9054906101000a900460ff1660ff168160ff16036100a75760015f60016101000a81548160ff0219169083151502179055505b50565b5f5f60019054906101000a900460ff16905090565b5f5ffd5b5f60ff82169050919050565b6100d8816100c3565b81146100e2575f5ffd5b50565b5f813590506100f3816100cf565b92915050565b5f6020828403121561010e5761010d6100bf565b5b5f61011b848285016100e5565b91505092915050565b5f8115159050919050565b61013881610124565b82525050565b5f6020820190506101515f83018461012f565b9291505056fea2646970667358221220498558a8906727e6d1d39631ea4872721d1242b516437a2f65c1b8a7d571fcaf64736f6c634300081f0033",
		"opcodes": "PUSH1 0x80 PUSH1 0x40 MSTORE PUSH1 0x2A PUSH0 PUSH0 PUSH2 0x100 EXP DUP2 SLOAD DUP2 PUSH1 0xFF MUL NOT AND SWAP1 DUP4 PUSH1 0xFF AND MUL OR SWAP1 SSTORE POP PUSH0 PUSH0 PUSH1 0x1 PUSH2 0x100 EXP DUP2 SLOAD DUP2 PUSH1 0xFF MUL NOT AND SWAP1 DUP4 ISZERO ISZERO MUL OR SWAP1 SSTORE POP CALLVALUE DUP1 ISZERO PUSH1 0x41 JUMPI PUSH0 PUSH0 REVERT JUMPDEST POP PUSH2 0x18D DUP1 PUSH2 0x4F PUSH0 CODECOPY PUSH0 RETURN INVALID PUSH1 0x80 PUSH1 0x40 MSTORE PUSH1 0x4 CALLDATASIZE LT PUSH2 0x28 JUMPI PUSH0 CALLDATALOAD PUSH1 0xE0 SHR DUP1 PUSH4 0x4BA4C16B EQ PUSH2 0x2C JUMPI DUP1 PUSH4 0xB2FA1C9E EQ PUSH2 0x48 JUMPI JUMPDEST PUSH0 PUSH0 REVERT JUMPDEST PUSH2 0x46 PUSH1 0x4 DUP1 CALLDATASIZE SUB DUP2 ADD SWAP1 PUSH2 0x41 SWAP2 SWAP1 PUSH2 0xF9 JUMP JUMPDEST PUSH2 0x72 JUMP JUMPDEST STOP JUMPDEST CALLVALUE DUP1 ISZERO PUSH2 0x53 JUMPI PUSH0 PUSH0 REVERT JUMPDEST POP PUSH2 0x5C PUSH2 0xAA JUMP JUMPDEST PUSH1 0x40 MLOAD PUSH2 0x69 SWAP2 SWAP1 PUSH2 0x13E JUMP JUMPDEST PUSH1 0x40 MLOAD DUP1 SWAP2 SUB SWAP1 RETURN JUMPDEST PUSH0 PUSH0 SWAP1 SLOAD SWAP1 PUSH2 0x100 EXP SWAP1 DIV PUSH1 0xFF AND PUSH1 0xFF AND DUP2 PUSH1 0xFF AND SUB PUSH2 0xA7 JUMPI PUSH1 0x1 PUSH0 PUSH1 0x1 PUSH2 0x100 EXP DUP2 SLOAD DUP2 PUSH1 0xFF MUL NOT AND SWAP1 DUP4 ISZERO ISZERO MUL OR SWAP1 SSTORE POP JUMPDEST POP JUMP JUMPDEST PUSH0 PUSH0 PUSH1 0x1 SWAP1 SLOAD SWAP1 PUSH2 0x100 EXP SWAP1 DIV PUSH1 0xFF AND SWAP1 POP SWAP1 JUMP JUMPDEST PUSH0 PUSH0 REVERT JUMPDEST PUSH0 PUSH1 0xFF DUP3 AND SWAP1 POP SWAP2 SWAP1 POP JUMP JUMPDEST PUSH2 0xD8 DUP2 PUSH2 0xC3 JUMP JUMPDEST DUP2 EQ PUSH2 0xE2 JUMPI PUSH0 PUSH0 REVERT JUMPDEST POP JUMP JUMPDEST PUSH0 DUP2 CALLDATALOAD SWAP1 POP PUSH2 0xF3 DUP2 PUSH2 0xCF JUMP JUMPDEST SWAP3 SWAP2 POP POP JUMP JUMPDEST PUSH0 PUSH1 0x20 DUP3 DUP5 SUB SLT ISZERO PUSH2 0x10E JUMPI PUSH2 0x10D PUSH2 0xBF JUMP JUMPDEST JUMPDEST PUSH0 PUSH2 0x11B DUP5 DUP3 DUP6 ADD PUSH2 0xE5 JUMP JUMPDEST SWAP2 POP POP SWAP3 SWAP2 POP POP JUMP JUMPDEST PUSH0 DUP2 ISZERO ISZERO SWAP1 POP SWAP2 SWAP1 POP JUMP JUMPDEST PUSH2 0x138 DUP2 PUSH2 0x124 JUMP JUMPDEST DUP3 MSTORE POP POP JUMP JUMPDEST PUSH0 PUSH1 0x20 DUP3 ADD SWAP1 POP PUSH2 0x151 PUSH0 DUP4 ADD DUP5 PUSH2 0x12F JUMP JUMPDEST SWAP3 SWAP2 POP POP JUMP INVALID LOG2 PUSH5 0x6970667358 0x22 SLT KECCAK256 BLOBHASH DUP6 PC 0xA8 SWAP1 PUSH8 0x27E6D1D39631EA48 PUSH19 0x721D1242B516437A2F65C1B8A7D571FCAF6473 PUSH16 0x6C634300081F00330000000000000000 "
	},
	"abi": [
		{
			"inputs": [
				{
					"internalType": "uint8",
					"name": "n",
					"type": "uint8"
				}
			],
			"name": "guess",
			"outputs": [],
			"stateMutability": "payable",
			"type": "function"
		},
		{
			"inputs": [],
			"name": "isComplete",
			"outputs": [
				{
					"internalType": "bool",
					"name": "",
					"type": "bool"
				}
			],
			"stateMutability": "view",
			"type": "function"
		}
	],
	"storageLayout": {
		"storage": [
			{
				"astId": 4,
				"contract": "challenge4.sol:GuessTheNumberChallenge",
				"label": "answer",
				"offset": 0,
				"slot": "0",
				"type": "t_uint8"
			},
			{
				"astId": 7,
				"contract": "challenge4.sol:GuessTheNumberChallenge",
				"label": "issolved",
				"offset": 1,
				"slot": "0",
				"type": "t_bool"
			}
		],
		"types": {
			"t_bool": {
				"encoding": "inplace",
				"label": "bool",
				"numberOfBytes": "1"
			},
			"t_uint8": {
				"encoding": "inplace",
				"label": "uint8",
				"numberOfBytes": "1"
			}
		}
	},
	"web3Deploy": "var guessthenumberchallengeContract = new web3.eth.Contract([{\"inputs\":[{\"internalType\":\"uint8\",\"name\":\"n\",\"type\":\"uint8\"}],\"name\":\"guess\",\"outputs\":[],\"stateMutability\":\"payable\",\"type\":\"function\"},{\"inputs\":[],\"name\":\"isComplete\",\"outputs\":[{\"internalType\":\"bool\",\"name\":\"\",\"type\":\"bool\"}],\"stateMutability\":\"view\",\"type\":\"function\"}]);\nvar guessthenumberchallenge = guessthenumberchallengeContract.deploy({\n     data: '0x6080604052602a5f5f6101000a81548160ff021916908360ff1602179055505f5f60016101000a81548160ff0219169083151502179055503480156041575f5ffd5b5061018d8061004f5f395ff3fe608060405260043610610028575f3560e01c80634ba4c16b1461002c578063b2fa1c9e14610048575b5f5ffd5b610046600480360381019061004191906100f9565b610072565b005b348015610053575f5ffd5b5061005c6100aa565b604051610069919061013e565b60405180910390f35b5f5f9054906101000a900460ff1660ff168160ff16036100a75760015f60016101000a81548160ff0219169083151502179055505b50565b5f5f60019054906101000a900460ff16905090565b5f5ffd5b5f60ff82169050919050565b6100d8816100c3565b81146100e2575f5ffd5b50565b5f813590506100f3816100cf565b92915050565b5f6020828403121561010e5761010d6100bf565b5b5f61011b848285016100e5565b91505092915050565b5f8115159050919050565b61013881610124565b82525050565b5f6020820190506101515f83018461012f565b9291505056fea2646970667358221220498558a8906727e6d1d39631ea4872721d1242b516437a2f65c1b8a7d571fcaf64736f6c634300081f0033', \n     arguments: [\n     ]\n}).send({\n     from: web3.eth.accounts[0], \n     gas: '4700000'\n   }, function (e, contract){\n    console.log(e, contract);\n    if (typeof contract.address !== 'undefined') {\n         console.log('Contract mined! address: ' + contract.address + ' transactionHash: ' + contract.transactionHash);\n    }\n })",
	"functionHashes": {
		"4ba4c16b": "guess(uint8)",
		"b2fa1c9e": "isComplete()"
	},
	"gasEstimates": {
		"Creation": {
			"codeDepositCost": "79400",
			"executionCost": "48707",
			"totalCost": "128107"
		},
		"External": {
			"guess(uint8)": "26846",
			"isComplete()": "2523"
		}
	},
	"devdoc": {
		"kind": "dev",
		"methods": {},
		"version": 1
	},
	"userdoc": {
		"kind": "user",
		"methods": {},
		"version": 1
	},
	"Runtime Bytecode": {
		"immutableReferences": {},
		"linkReferences": {},
		"object": "608060405260043610610028575f3560e01c80634ba4c16b1461002c578063b2fa1c9e14610048575b5f5ffd5b610046600480360381019061004191906100f9565b610072565b005b348015610053575f5ffd5b5061005c6100aa565b604051610069919061013e565b60405180910390f35b5f5f9054906101000a900460ff1660ff168160ff16036100a75760015f60016101000a81548160ff0219169083151502179055505b50565b5f5f60019054906101000a900460ff16905090565b5f5ffd5b5f60ff82169050919050565b6100d8816100c3565b81146100e2575f5ffd5b50565b5f813590506100f3816100cf565b92915050565b5f6020828403121561010e5761010d6100bf565b5b5f61011b848285016100e5565b91505092915050565b5f8115159050919050565b61013881610124565b82525050565b5f6020820190506101515f83018461012f565b9291505056fea2646970667358221220498558a8906727e6d1d39631ea4872721d1242b516437a2f65c1b8a7d571fcaf64736f6c634300081f0033",
		"opcodes": "PUSH1 0x80 PUSH1 0x40 MSTORE PUSH1 0x4 CALLDATASIZE LT PUSH2 0x28 JUMPI PUSH0 CALLDATALOAD PUSH1 0xE0 SHR DUP1 PUSH4 0x4BA4C16B EQ PUSH2 0x2C JUMPI DUP1 PUSH4 0xB2FA1C9E EQ PUSH2 0x48 JUMPI JUMPDEST PUSH0 PUSH0 REVERT JUMPDEST PUSH2 0x46 PUSH1 0x4 DUP1 CALLDATASIZE SUB DUP2 ADD SWAP1 PUSH2 0x41 SWAP2 SWAP1 PUSH2 0xF9 JUMP JUMPDEST PUSH2 0x72 JUMP JUMPDEST STOP JUMPDEST CALLVALUE DUP1 ISZERO PUSH2 0x53 JUMPI PUSH0 PUSH0 REVERT JUMPDEST POP PUSH2 0x5C PUSH2 0xAA JUMP JUMPDEST PUSH1 0x40 MLOAD PUSH2 0x69 SWAP2 SWAP1 PUSH2 0x13E JUMP JUMPDEST PUSH1 0x40 MLOAD DUP1 SWAP2 SUB SWAP1 RETURN JUMPDEST PUSH0 PUSH0 SWAP1 SLOAD SWAP1 PUSH2 0x100 EXP SWAP1 DIV PUSH1 0xFF AND PUSH1 0xFF AND DUP2 PUSH1 0xFF AND SUB PUSH2 0xA7 JUMPI PUSH1 0x1 PUSH0 PUSH1 0x1 PUSH2 0x100 EXP DUP2 SLOAD DUP2 PUSH1 0xFF MUL NOT AND SWAP1 DUP4 ISZERO ISZERO MUL OR SWAP1 SSTORE POP JUMPDEST POP JUMP JUMPDEST PUSH0 PUSH0 PUSH1 0x1 SWAP1 SLOAD SWAP1 PUSH2 0x100 EXP SWAP1 DIV PUSH1 0xFF AND SWAP1 POP SWAP1 JUMP JUMPDEST PUSH0 PUSH0 REVERT JUMPDEST PUSH0 PUSH1 0xFF DUP3 AND SWAP1 POP SWAP2 SWAP1 POP JUMP JUMPDEST PUSH2 0xD8 DUP2 PUSH2 0xC3 JUMP JUMPDEST DUP2 EQ PUSH2 0xE2 JUMPI PUSH0 PUSH0 REVERT JUMPDEST POP JUMP JUMPDEST PUSH0 DUP2 CALLDATALOAD SWAP1 POP PUSH2 0xF3 DUP2 PUSH2 0xCF JUMP JUMPDEST SWAP3 SWAP2 POP POP JUMP JUMPDEST PUSH0 PUSH1 0x20 DUP3 DUP5 SUB SLT ISZERO PUSH2 0x10E JUMPI PUSH2 0x10D PUSH2 0xBF JUMP JUMPDEST JUMPDEST PUSH0 PUSH2 0x11B DUP5 DUP3 DUP6 ADD PUSH2 0xE5 JUMP JUMPDEST SWAP2 POP POP SWAP3 SWAP2 POP POP JUMP JUMPDEST PUSH0 DUP2 ISZERO ISZERO SWAP1 POP SWAP2 SWAP1 POP JUMP JUMPDEST PUSH2 0x138 DUP2 PUSH2 0x124 JUMP JUMPDEST DUP3 MSTORE POP POP JUMP JUMPDEST PUSH0 PUSH1 0x20 DUP3 ADD SWAP1 POP PUSH2 0x151 PUSH0 DUP4 ADD DUP5 PUSH2 0x12F JUMP JUMPDEST SWAP3 SWAP2 POP POP JUMP INVALID LOG2 PUSH5 0x6970667358 0x22 SLT KECCAK256 BLOBHASH DUP6 PC 0xA8 SWAP1 PUSH8 0x27E6D1D39631EA48 PUSH19 0x721D1242B516437A2F65C1B8A7D571FCAF6473 PUSH16 0x6C634300081F00330000000000000000 "
	},
	"Assembly": ".code\n  PUSH 80\t\t\tcontract GuessTheNumberChallen...\n  PUSH 40\t\t\tcontract GuessTheNumberChallen...\n  MSTORE \t\t\tcontract GuessTheNumberChallen...\n  PUSH 2A\t\t\t42\n  PUSH 0\t\t\tuint8 answer = 42\n  PUSH 0\t\t\tuint8 answer = 42\n  PUSH 100\t\t\tuint8 answer = 42\n  EXP \t\t\tuint8 answer = 42\n  DUP2 \t\t\tuint8 answer = 42\n  SLOAD \t\t\tuint8 answer = 42\n  DUP2 \t\t\tuint8 answer = 42\n  PUSH FF\t\t\tuint8 answer = 42\n  MUL \t\t\tuint8 answer = 42\n  NOT \t\t\tuint8 answer = 42\n  AND \t\t\tuint8 answer = 42\n  SWAP1 \t\t\tuint8 answer = 42\n  DUP4 \t\t\tuint8 answer = 42\n  PUSH FF\t\t\tuint8 answer = 42\n  AND \t\t\tuint8 answer = 42\n  MUL \t\t\tuint8 answer = 42\n  OR \t\t\tuint8 answer = 42\n  SWAP1 \t\t\tuint8 answer = 42\n  SSTORE \t\t\tuint8 answer = 42\n  POP \t\t\tuint8 answer = 42\n  PUSH 0\t\t\tfalse\n  PUSH 0\t\t\tbool issolved=false\n  PUSH 1\t\t\tbool issolved=false\n  PUSH 100\t\t\tbool issolved=false\n  EXP \t\t\tbool issolved=false\n  DUP2 \t\t\tbool issolved=false\n  SLOAD \t\t\tbool issolved=false\n  DUP2 \t\t\tbool issolved=false\n  PUSH FF\t\t\tbool issolved=false\n  MUL \t\t\tbool issolved=false\n  NOT \t\t\tbool issolved=false\n  AND \t\t\tbool issolved=false\n  SWAP1 \t\t\tbool issolved=false\n  DUP4 \t\t\tbool issolved=false\n  ISZERO \t\t\tbool issolved=false\n  ISZERO \t\t\tbool issolved=false\n  MUL \t\t\tbool issolved=false\n  OR \t\t\tbool issolved=false\n  SWAP1 \t\t\tbool issolved=false\n  SSTORE \t\t\tbool issolved=false\n  POP \t\t\tbool issolved=false\n  CALLVALUE \t\t\tcontract GuessTheNumberChallen...\n  DUP1 \t\t\tcontract GuessTheNumberChallen...\n  ISZERO \t\t\tcontract GuessTheNumberChallen...\n  PUSH [tag] 1\t\t\tcontract GuessTheNumberChallen...\n  JUMPI \t\t\tcontract GuessTheNumberChallen...\n  PUSH 0\t\t\tcontract GuessTheNumberChallen...\n  PUSH 0\t\t\tcontract GuessTheNumberChallen...\n  REVERT \t\t\tcontract GuessTheNumberChallen...\ntag 1\t\t\tcontract GuessTheNumberChallen...\n  JUMPDEST \t\t\tcontract GuessTheNumberChallen...\n  POP \t\t\tcontract GuessTheNumberChallen...\n  PUSH #[$] 0000000000000000000000000000000000000000000000000000000000000000\t\t\tcontract GuessTheNumberChallen...\n  DUP1 \t\t\tcontract GuessTheNumberChallen...\n  PUSH [$] 0000000000000000000000000000000000000000000000000000000000000000\t\t\tcontract GuessTheNumberChallen...\n  PUSH 0\t\t\tcontract GuessTheNumberChallen...\n  CODECOPY \t\t\tcontract GuessTheNumberChallen...\n  PUSH 0\t\t\tcontract GuessTheNumberChallen...\n  RETURN \t\t\tcontract GuessTheNumberChallen...\n.data\n  0:\n    .code\n      PUSH 80\t\t\tcontract GuessTheNumberChallen...\n      PUSH 40\t\t\tcontract GuessTheNumberChallen...\n      MSTORE \t\t\tcontract GuessTheNumberChallen...\n      PUSH 4\t\t\tcontract GuessTheNumberChallen...\n      CALLDATASIZE \t\t\tcontract GuessTheNumberChallen...\n      LT \t\t\tcontract GuessTheNumberChallen...\n      PUSH [tag] 1\t\t\tcontract GuessTheNumberChallen...\n      JUMPI \t\t\tcontract GuessTheNumberChallen...\n      PUSH 0\t\t\tcontract GuessTheNumberChallen...\n      CALLDATALOAD \t\t\tcontract GuessTheNumberChallen...\n      PUSH E0\t\t\tcontract GuessTheNumberChallen...\n      SHR \t\t\tcontract GuessTheNumberChallen...\n      DUP1 \t\t\tcontract GuessTheNumberChallen...\n      PUSH 4BA4C16B\t\t\tcontract GuessTheNumberChallen...\n      EQ \t\t\tcontract GuessTheNumberChallen...\n      PUSH [tag] 2\t\t\tcontract GuessTheNumberChallen...\n      JUMPI \t\t\tcontract GuessTheNumberChallen...\n      DUP1 \t\t\tcontract GuessTheNumberChallen...\n      PUSH B2FA1C9E\t\t\tcontract GuessTheNumberChallen...\n      EQ \t\t\tcontract GuessTheNumberChallen...\n      PUSH [tag] 3\t\t\tcontract GuessTheNumberChallen...\n      JUMPI \t\t\tcontract GuessTheNumberChallen...\n    tag 1\t\t\tcontract GuessTheNumberChallen...\n      JUMPDEST \t\t\tcontract GuessTheNumberChallen...\n      PUSH 0\t\t\tcontract GuessTheNumberChallen...\n      PUSH 0\t\t\tcontract GuessTheNumberChallen...\n      REVERT \t\t\tcontract GuessTheNumberChallen...\n    tag 2\t\t\tfunction guess(uint8 n) public...\n      JUMPDEST \t\t\tfunction guess(uint8 n) public...\n      PUSH [tag] 4\t\t\tfunction guess(uint8 n) public...\n      PUSH 4\t\t\tfunction guess(uint8 n) public...\n      DUP1 \t\t\tfunction guess(uint8 n) public...\n      CALLDATASIZE \t\t\tfunction guess(uint8 n) public...\n      SUB \t\t\tfunction guess(uint8 n) public...\n      DUP2 \t\t\tfunction guess(uint8 n) public...\n      ADD \t\t\tfunction guess(uint8 n) public...\n      SWAP1 \t\t\tfunction guess(uint8 n) public...\n      PUSH [tag] 5\t\t\tfunction guess(uint8 n) public...\n      SWAP2 \t\t\tfunction guess(uint8 n) public...\n      SWAP1 \t\t\tfunction guess(uint8 n) public...\n      PUSH [tag] 6\t\t\tfunction guess(uint8 n) public...\n      JUMP \t\t\tfunction guess(uint8 n) public...\n    tag 5\t\t\tfunction guess(uint8 n) public...\n      JUMPDEST \t\t\tfunction guess(uint8 n) public...\n      PUSH [tag] 7\t\t\tfunction guess(uint8 n) public...\n      JUMP \t\t\tfunction guess(uint8 n) public...\n    tag 4\t\t\tfunction guess(uint8 n) public...\n      JUMPDEST \t\t\tfunction guess(uint8 n) public...\n      STOP \t\t\tfunction guess(uint8 n) public...\n    tag 3\t\t\tfunction isComplete() public v...\n      JUMPDEST \t\t\tfunction isComplete() public v...\n      CALLVALUE \t\t\tfunction isComplete() public v...\n      DUP1 \t\t\tfunction isComplete() public v...\n      ISZERO \t\t\tfunction isComplete() public v...\n      PUSH [tag] 8\t\t\tfunction isComplete() public v...\n      JUMPI \t\t\tfunction isComplete() public v...\n      PUSH 0\t\t\tfunction isComplete() public v...\n      PUSH 0\t\t\tfunction isComplete() public v...\n      REVERT \t\t\tfunction isComplete() public v...\n    tag 8\t\t\tfunction isComplete() public v...\n      JUMPDEST \t\t\tfunction isComplete() public v...\n      POP \t\t\tfunction isComplete() public v...\n      PUSH [tag] 9\t\t\tfunction isComplete() public v...\n      PUSH [tag] 10\t\t\tfunction isComplete() public v...\n      JUMP \t\t\tfunction isComplete() public v...\n    tag 9\t\t\tfunction isComplete() public v...\n      JUMPDEST \t\t\tfunction isComplete() public v...\n      PUSH 40\t\t\tfunction isComplete() public v...\n      MLOAD \t\t\tfunction isComplete() public v...\n      PUSH [tag] 11\t\t\tfunction isComplete() public v...\n      SWAP2 \t\t\tfunction isComplete() public v...\n      SWAP1 \t\t\tfunction isComplete() public v...\n      PUSH [tag] 12\t\t\tfunction isComplete() public v...\n      JUMP \t\t\tfunction isComplete() public v...\n    tag 11\t\t\tfunction isComplete() public v...\n      JUMPDEST \t\t\tfunction isComplete() public v...\n      PUSH 40\t\t\tfunction isComplete() public v...\n      MLOAD \t\t\tfunction isComplete() public v...\n      DUP1 \t\t\tfunction isComplete() public v...\n      SWAP2 \t\t\tfunction isComplete() public v...\n      SUB \t\t\tfunction isComplete() public v...\n      SWAP1 \t\t\tfunction isComplete() public v...\n      RETURN \t\t\tfunction isComplete() public v...\n    tag 7\t\t\tfunction guess(uint8 n) public...\n      JUMPDEST \t\t\tfunction guess(uint8 n) public...\n      PUSH 0\t\t\tanswer\n      PUSH 0\t\t\tanswer\n      SWAP1 \t\t\tanswer\n      SLOAD \t\t\tanswer\n      SWAP1 \t\t\tanswer\n      PUSH 100\t\t\tanswer\n      EXP \t\t\tanswer\n      SWAP1 \t\t\tanswer\n      DIV \t\t\tanswer\n      PUSH FF\t\t\tanswer\n      AND \t\t\tanswer\n      PUSH FF\t\t\tn==answer\n      AND \t\t\tn==answer\n      DUP2 \t\t\tn\n      PUSH FF\t\t\tn==answer\n      AND \t\t\tn==answer\n      SUB \t\t\tn==answer\n      PUSH [tag] 14\t\t\tif (n==answer){\\n            i...\n      JUMPI \t\t\tif (n==answer){\\n            i...\n      PUSH 1\t\t\ttrue\n      PUSH 0\t\t\tissolved\n      PUSH 1\t\t\tissolved\n      PUSH 100\t\t\tissolved=true\n      EXP \t\t\tissolved=true\n      DUP2 \t\t\tissolved=true\n      SLOAD \t\t\tissolved=true\n      DUP2 \t\t\tissolved=true\n      PUSH FF\t\t\tissolved=true\n      MUL \t\t\tissolved=true\n      NOT \t\t\tissolved=true\n      AND \t\t\tissolved=true\n      SWAP1 \t\t\tissolved=true\n      DUP4 \t\t\tissolved=true\n      ISZERO \t\t\tissolved=true\n      ISZERO \t\t\tissolved=true\n      MUL \t\t\tissolved=true\n      OR \t\t\tissolved=true\n      SWAP1 \t\t\tissolved=true\n      SSTORE \t\t\tissolved=true\n      POP \t\t\tissolved=true\n    tag 14\t\t\tif (n==answer){\\n            i...\n      JUMPDEST \t\t\tif (n==answer){\\n            i...\n      POP \t\t\tfunction guess(uint8 n) public...\n      JUMP \t\t\tfunction guess(uint8 n) public...\n    tag 10\t\t\tfunction isComplete() public v...\n      JUMPDEST \t\t\tfunction isComplete() public v...\n      PUSH 0\t\t\tbool\n      PUSH 0\t\t\tissolved\n      PUSH 1\t\t\tissolved\n      SWAP1 \t\t\tissolved\n      SLOAD \t\t\tissolved\n      SWAP1 \t\t\tissolved\n      PUSH 100\t\t\tissolved\n      EXP \t\t\tissolved\n      SWAP1 \t\t\tissolved\n      DIV \t\t\tissolved\n      PUSH FF\t\t\tissolved\n      AND \t\t\tissolved\n      SWAP1 \t\t\treturn issolved\n      POP \t\t\treturn issolved\n      SWAP1 \t\t\tfunction isComplete() public v...\n      JUMP \t\t\tfunction isComplete() public v...\n    tag 17\t\t\trChallenge {\\n    uint8 answer...\n      JUMPDEST \t\t\trChallenge {\\n    uint8 answer...\n      PUSH 0\t\t\to\n      PUSH 0\t\t\t \n      REVERT \t\t\treturns (boo\n    tag 19\t\t\t     }\\n    }\\n}\n      JUMPDEST \t\t\t     }\\n    }\\n}\n      PUSH 0\t\t\t\n      PUSH FF\t\t\t\n      DUP3 \t\t\t\n      AND \t\t\t\n      SWAP1 \t\t\t\n      POP \t\t\t\n      SWAP2 \t\t\t     }\\n    }\\n}\n      SWAP1 \t\t\t     }\\n    }\\n}\n      POP \t\t\t     }\\n    }\\n}\n      JUMP \t\t\t     }\\n    }\\n}\n    tag 20\t\t\t\n      JUMPDEST \t\t\t\n      PUSH [tag] 30\t\t\t\n      DUP2 \t\t\t\n      PUSH [tag] 19\t\t\t\n      JUMP \t\t\t\n    tag 30\t\t\t\n      JUMPDEST \t\t\t\n      DUP2 \t\t\t\n      EQ \t\t\t\n      PUSH [tag] 31\t\t\t\n      JUMPI \t\t\t\n      PUSH 0\t\t\t\n      PUSH 0\t\t\t\n      REVERT \t\t\t\n    tag 31\t\t\t\n      JUMPDEST \t\t\t\n      POP \t\t\t\n      JUMP \t\t\t\n    tag 21\t\t\t\n      JUMPDEST \t\t\t\n      PUSH 0\t\t\t\n      DUP2 \t\t\t\n      CALLDATALOAD \t\t\t\n      SWAP1 \t\t\t\n      POP \t\t\t\n      PUSH [tag] 33\t\t\t\n      DUP2 \t\t\t\n      PUSH [tag] 20\t\t\t\n      JUMP \t\t\t\n    tag 33\t\t\t\n      JUMPDEST \t\t\t\n      SWAP3 \t\t\t\n      SWAP2 \t\t\t\n      POP \t\t\t\n      POP \t\t\t\n      JUMP \t\t\t\n    tag 6\t\t\t\n      JUMPDEST \t\t\t\n      PUSH 0\t\t\t\n      PUSH 20\t\t\t\n      DUP3 \t\t\t\n      DUP5 \t\t\t\n      SUB \t\t\t\n      SLT \t\t\t\n      ISZERO \t\t\t\n      PUSH [tag] 35\t\t\t\n      JUMPI \t\t\t\n      PUSH [tag] 36\t\t\t\n      PUSH [tag] 17\t\t\t\n      JUMP \t\t\t\n    tag 36\t\t\t\n      JUMPDEST \t\t\t\n    tag 35\t\t\t\n      JUMPDEST \t\t\t\n      PUSH 0\t\t\t\n      PUSH [tag] 37\t\t\t\n      DUP5 \t\t\t\n      DUP3 \t\t\t\n      DUP6 \t\t\t\n      ADD \t\t\t\n      PUSH [tag] 21\t\t\t\n      JUMP \t\t\t\n    tag 37\t\t\t\n      JUMPDEST \t\t\t\n      SWAP2 \t\t\t\n      POP \t\t\t\n      POP \t\t\t\n      SWAP3 \t\t\t\n      SWAP2 \t\t\t\n      POP \t\t\t\n      POP \t\t\t\n      JUMP \t\t\t\n    tag 22\t\t\t\n      JUMPDEST \t\t\t\n      PUSH 0\t\t\t\n      DUP2 \t\t\t\n      ISZERO \t\t\t\n      ISZERO \t\t\t\n      SWAP1 \t\t\t\n      POP \t\t\t\n      SWAP2 \t\t\t\n      SWAP1 \t\t\t\n      POP \t\t\t\n      JUMP \t\t\t\n    tag 23\t\t\t\n      JUMPDEST \t\t\t\n      PUSH [tag] 40\t\t\t\n      DUP2 \t\t\t\n      PUSH [tag] 22\t\t\t\n      JUMP \t\t\t\n    tag 40\t\t\t\n      JUMPDEST \t\t\t\n      DUP3 \t\t\t\n      MSTORE \t\t\t\n      POP \t\t\t\n      POP \t\t\t\n      JUMP \t\t\t\n    tag 12\t\t\t\n      JUMPDEST \t\t\t\n      PUSH 0\t\t\t\n      PUSH 20\t\t\t\n      DUP3 \t\t\t\n      ADD \t\t\t\n      SWAP1 \t\t\t\n      POP \t\t\t\n      PUSH [tag] 42\t\t\t\n      PUSH 0\t\t\t\n      DUP4 \t\t\t\n      ADD \t\t\t\n      DUP5 \t\t\t\n      PUSH [tag] 23\t\t\t\n      JUMP \t\t\t\n    tag 42\t\t\t\n      JUMPDEST \t\t\t\n      SWAP3 \t\t\t\n      SWAP2 \t\t\t\n      POP \t\t\t\n      POP \t\t\t\n      JUMP \t\t\t\n    .data\n"
}