{
	"compilerInput": "{\"language\":\"Solidity\",\"sources\":{\"challenge3.sol\":{\"content\":\"//SPDX-License-Identifier: MIT\\npragma solidity ^0.8.13;\\n\\ncontract Challenge {\\n    address public immutable TARGET = 0x32E4D1CfAbE68Ae8192DE49B1E1d1C6Cb4c4c1E5;\\n\\n    uint256 public immutable STARTING_BALANCE;\\n\\n    constructor() {\\n        STARTING_BALANCE = address(TARGET).balance;\\n    }\\n\\n    function isSolved() external view returns (bool) {\\n        return TARGET.balance > STARTING_BALANCE + 0.001 ether;\\n    }\\n}\"}},\"settings\":{\"optimizer\":{\"enabled\":false,\"runs\":200},\"outputSelection\":{\"*\":{\"\":[\"ast\"],\"*\":[\"abi\",\"metadata\",\"devdoc\",\"userdoc\",\"storageLayout\",\"evm.legacyAssembly\",\"evm.bytecode\",\"evm.deployedBytecode\",\"evm.methodIdentifiers\",\"evm.gasEstimates\",\"evm.assembly\"]}},\"remappings\":[]}}",
	"name": "Challenge",
	"bytecode": {
		"linkReferences": {},
		"object": "60c06040527332e4d1cfabe68ae8192de49b1e1d1c6cb4c4c1e573ffffffffffffffffffffffffffffffffffffffff1660809073ffffffffffffffffffffffffffffffffffffffff1681525034801561005757600080fd5b5060805173ffffffffffffffffffffffffffffffffffffffff163160a0818152505060805160a0516102ba6100aa6000396000818160ac015261013901526000818160d7015261011501526102ba6000f3fe608060405234801561001057600080fd5b50600436106100415760003560e01c806364d98f6e14610046578063cc1f2afa14610064578063feca19d914610082575b600080fd5b61004e6100a0565b60405161005b9190610176565b60405180910390f35b61006c610113565b60405161007991906101d2565b60405180910390f35b61008a610137565b6040516100979190610206565b60405180910390f35b600066038d7ea4c680007f00000000000000000000000000000000000000000000000000000000000000006100d59190610250565b7f000000000000000000000000000000000000000000000000000000000000000073ffffffffffffffffffffffffffffffffffffffff163111905090565b7f000000000000000000000000000000000000000000000000000000000000000081565b7f000000000000000000000000000000000000000000000000000000000000000081565b60008115159050919050565b6101708161015b565b82525050565b600060208201905061018b6000830184610167565b92915050565b600073ffffffffffffffffffffffffffffffffffffffff82169050919050565b60006101bc82610191565b9050919050565b6101cc816101b1565b82525050565b60006020820190506101e760008301846101c3565b92915050565b6000819050919050565b610200816101ed565b82525050565b600060208201905061021b60008301846101f7565b92915050565b7f4e487b7100000000000000000000000000000000000000000000000000000000600052601160045260246000fd5b600061025b826101ed565b9150610266836101ed565b925082820190508082111561027e5761027d610221565b5b9291505056fea26469706673582212208d463b438624d0f0129b1179154698368309b7f45e0eff2c598387ccfa3d54f864736f6c63430008130033",
		"opcodes": "PUSH1 0xC0 PUSH1 0x40 MSTORE PUSH20 0x32E4D1CFABE68AE8192DE49B1E1D1C6CB4C4C1E5 PUSH20 0xFFFFFFFFFFFFFFFFFFFFFFFFFFFFFFFFFFFFFFFF AND PUSH1 0x80 SWAP1 PUSH20 0xFFFFFFFFFFFFFFFFFFFFFFFFFFFFFFFFFFFFFFFF AND DUP2 MSTORE POP CALLVALUE DUP1 ISZERO PUSH2 0x57 JUMPI PUSH1 0x0 DUP1 REVERT JUMPDEST POP PUSH1 0x80 MLOAD PUSH20 0xFFFFFFFFFFFFFFFFFFFFFFFFFFFFFFFFFFFFFFFF AND BALANCE PUSH1 0xA0 DUP2 DUP2 MSTORE POP POP PUSH1 0x80 MLOAD PUSH1 0xA0 MLOAD PUSH2 0x2BA PUSH2 0xAA PUSH1 0x0 CODECOPY PUSH1 0x0 DUP2 DUP2 PUSH1 0xAC ADD MSTORE PUSH2 0x139 ADD MSTORE PUSH1 0x0 DUP2 DUP2 PUSH1 0xD7 ADD MSTORE PUSH2 0x115 ADD MSTORE PUSH2 0x2BA PUSH1 0x0 RETURN INVALID PUSH1 0x80 PUSH1 0x40 MSTORE CALLVALUE DUP1 ISZERO PUSH2 0x10 JUMPI PUSH1 0x0 DUP1 REVERT JUMPDEST POP PUSH1 0x4 CALLDATASIZE LT PUSH2 0x41 JUMPI PUSH1 0x0 CALLDATALOAD PUSH1 0xE0 SHR DUP1 PUSH4 0x64D98F6E EQ PUSH2 0x46 JUMPI DUP1 PUSH4 0xCC1F2AFA EQ PUSH2 0x64 JUMPI DUP1 PUSH4 0xFECA19D9 EQ PUSH2 0x82 JUMPI JUMPDEST PUSH1 0x0 DUP1 REVERT JUMPDEST PUSH2 0x4E PUSH2 0xA0 JUMP JUMPDEST PUSH1 0x40 MLOAD PUSH2 0x5B SWAP2 SWAP1 PUSH2 0x176 JUMP JUMPDEST PUSH1 0x40 MLOAD DUP1 SWAP2 SUB SWAP1 RETURN JUMPDEST PUSH2 0x6C PUSH2 0x113 JUMP JUMPDEST PUSH1 0x40 MLOAD PUSH2 0x79 SWAP2 SWAP1 PUSH2 0x1D2 JUMP JUMPDEST PUSH1 0x40 MLOAD DUP1 SWAP2 SUB SWAP1 RETURN JUMPDEST PUSH2 0x8A PUSH2 0x137 JUMP JUMPDEST PUSH1 0x40 MLOAD PUSH2 0x97 SWAP2 SWAP1 PUSH2 0x206 JUMP JUMPDEST PUSH1 0x40 MLOAD DUP1 SWAP2 SUB SWAP1 RETURN JUMPDEST PUSH1 0x0 PUSH7 0x38D7EA4C68000 PUSH32 0x0 PUSH2 0xD5 SWAP2 SWAP1 PUSH2 0x250 JUMP JUMPDEST PUSH32 0x0 PUSH20 0xFFFFFFFFFFFFFFFFFFFFFFFFFFFFFFFFFFFFFFFF AND BALANCE GT SWAP1 POP SWAP1 JUMP JUMPDEST PUSH32 0x0 DUP2 JUMP JUMPDEST PUSH32 0x0 DUP2 JUMP JUMPDEST PUSH1 0x0 DUP2 ISZERO ISZERO SWAP1 POP SWAP2 SWAP1 POP JUMP JUMPDEST PUSH2 0x170 DUP2 PUSH2 0x15B JUMP JUMPDEST DUP3 MSTORE POP POP JUMP JUMPDEST PUSH1 0x0 PUSH1 0x20 DUP3 ADD SWAP1 POP PUSH2 0x18B PUSH1 0x0 DUP4 ADD DUP5 PUSH2 0x167 JUMP JUMPDEST SWAP3 SWAP2 POP POP JUMP JUMPDEST PUSH1 0x0 PUSH20 0xFFFFFFFFFFFFFFFFFFFFFFFFFFFFFFFFFFFFFFFF DUP3 AND SWAP1 POP SWAP2 SWAP1 POP JUMP JUMPDEST PUSH1 0x0 PUSH2 0x1BC DUP3 PUSH2 0x191 JUMP JUMPDEST SWAP1 POP SWAP2 SWAP1 POP JUMP JUMPDEST PUSH2 0x1CC DUP2 PUSH2 0x1B1 JUMP JUMPDEST DUP3 MSTORE POP POP JUMP JUMPDEST PUSH1 0x0 PUSH1 0x20 DUP3 ADD SWAP1 POP PUSH2 0x1E7 PUSH1 0x0 DUP4 ADD DUP5 PUSH2 0x1C3 JUMP JUMPDEST SWAP3 SWAP2 POP POP JUMP JUMPDEST PUSH1 0x0 DUP2 SWAP1 POP SWAP2 SWAP1 POP JUMP JUMPDEST PUSH2 0x200 DUP2 PUSH2 0x1ED JUMP JUMPDEST DUP3 MSTORE POP POP JUMP JUMPDEST PUSH1 0x0 PUSH1 0x20 DUP3 ADD SWAP1 POP PUSH2 0x21B PUSH1 0x0 DUP4 ADD DUP5 PUSH2 0x1F7 JUMP JUMPDEST SWAP3 SWAP2 POP POP JUMP JUMPDEST PUSH32 0x4E487B7100000000000000000000000000000000000000000000000000000000 PUSH1 0x0 MSTORE PUSH1 0x11 PUSH1 0x4 MSTORE PUSH1 0x24 PUSH1 0x0 REVERT JUMPDEST PUSH1 0x0 PUSH2 0x25B DUP3 PUSH2 0x1ED JUMP JUMPDEST SWAP2 POP PUSH2 0x266 DUP4 PUSH2 0x1ED JUMP JUMPDEST SWAP3 POP DUP3 DUP3 ADD SWAP1 POP DUP1 DUP3 GT ISZERO PUSH2 0x27E JUMPI PUSH2 0x27D PUSH2 0x221 JUMP JUMPDEST JUMPDEST SWAP3 SWAP2 POP POP JUMP INVALID LOG2 PUSH5 0x6970667358 0x22 SLT KECCAK256 DUP14 CHAINID EXTCODESIZE NUMBER DUP7 0x24 0xD0 CREATE SLT SWAP12 GT PUSH26 0x154698368309B7F45E0EFF2C598387CCFA3D54F864736F6C6343 STOP ADDMOD SGT STOP CALLER "
	},
	"abi": [
		{
			"inputs": [],
			"stateMutability": "nonpayable",
			"type": "constructor"
		},
		{
			"inputs": [],
			"name": "STARTING_BALANCE",
			"outputs": [
				{
					"internalType": "uint256",
					"name": "",
					"type": "uint256"
				}
			],
			"stateMutability": "view",
			"type": "function"
		},
		{
			"inputs": [],
			"name": "TARGET",
			"outputs": [
				{
					"internalType": "address",
					"name": "",
					"type": "address"
				}
			],
			"stateMutability": "view",
			"type": "function"
		},
		{
			"inputs": [],
			"name": "isSolved",
			"outputs": [
				{
					"internalType": "bool",
					"name": "",
					"type": "bool"
				}
			],
			"stateMutability": "view",
			"type": "function"
		}
	],
	"storageLayout": {
		"storage": [],
		"types": null
	},
	"web3Deploy": "var challengeContract = new web3.eth.Contract([{\"inputs\":[],\"stateMutability\":\"nonpayable\",\"type\":\"constructor\"},{\"inputs\":[],\"name\":\"STARTING_BALANCE\",\"outputs\":[{\"internalType\":\"uint256\",\"name\":\"\",\"type\":\"uint256\"}],\"stateMutability\":\"view\",\"type\":\"function\"},{\"inputs\":[],\"name\":\"TARGET\",\"outputs\":[{\"internalType\":\"address\",\"name\":\"\",\"type\":\"address\"}],\"stateMutability\":\"view\",\"type\":\"function\"},{\"inputs\":[],\"name\":\"isSolved\",\"outputs\":[{\"internalType\":\"bool\",\"name\":\"\",\"type\":\"bool\"}],\"stateMutability\":\"view\",\"type\":\"function\"}]);\nvar challenge = challengeContract.deploy({\n     data: '0x60c06040527332e4d1cfabe68ae8192de49b1e1d1c6cb4c4c1e573ffffffffffffffffffffffffffffffffffffffff1660809073ffffffffffffffffffffffffffffffffffffffff1681525034801561005757600080fd5b5060805173ffffffffffffffffffffffffffffffffffffffff163160a0818152505060805160a0516102ba6100aa6000396000818160ac015261013901526000818160d7015261011501526102ba6000f3fe608060405234801561001057600080fd5b50600436106100415760003560e01c806364d98f6e14610046578063cc1f2afa14610064578063feca19d914610082575b600080fd5b61004e6100a0565b60405161005b9190610176565b60405180910390f35b61006c610113565b60405161007991906101d2565b60405180910390f35b61008a610137565b6040516100979190610206565b60405180910390f35b600066038d7ea4c680007f00000000000000000000000000000000000000000000000000000000000000006100d59190610250565b7f000000000000000000000000000000000000000000000000000000000000000073ffffffffffffffffffffffffffffffffffffffff163111905090565b7f000000000000000000000000000000000000000000000000000000000000000081565b7f000000000000000000000000000000000000000000000000000000000000000081565b60008115159050919050565b6101708161015b565b82525050565b600060208201905061018b6000830184610167565b92915050565b600073ffffffffffffffffffffffffffffffffffffffff82169050919050565b60006101bc82610191565b9050919050565b6101cc816101b1565b82525050565b60006020820190506101e760008301846101c3565b92915050565b6000819050919050565b610200816101ed565b82525050565b600060208201905061021b60008301846101f7565b92915050565b7f4e487b7100000000000000000000000000000000000000000000000000000000600052601160045260246000fd5b600061025b826101ed565b9150610266836101ed565b925082820190508082111561027e5761027d610221565b5b9291505056fea26469706673582212208d463b438624d0f0129b1179154698368309b7f45e0eff2c598387ccfa3d54f864736f6c63430008130033', \n     arguments: [\n     ]\n}).send({\n     from: web3.eth.accounts[0], \n     gas: '4700000'\n   }, function (e, contract){\n    console.log(e, contract);\n    if (typeof contract.address !== 'undefined') {\n         console.log('Contract mined! address: ' + contract.address + ' transactionHash: ' + contract.transactionHash);\n    }\n })",
	"functionHashes": {
		"feca19d9": "STARTING_BALANCE()",
		"cc1f2afa": "TARGET()",
		"64d98f6e": "isSolved()"
	},
	"gasEstimates": {
		"Creation": {
			"codeDepositCost": "139600",
			"executionCost": "infinite",
			"totalCost": "infinite"
		},
		"External": {
			"STARTING_BALANCE()": "infinite",
			"TARGET()": "infinite",
			"isSolved()": "infinite"
		}
	},
	"devdoc": {
		"kind": "dev",
		"methods": {},
		"version": 1
	},
	"userdoc": {
		"kind": "user",
		"methods": {},
		"version": 1
	},
	"Runtime Bytecode": {
		"immutableReferences": {
			"4": [
				{
					"length": 32,
					"start": 215
				},
				{
					"length": 32,
					"start": 277
				}
			],
			"6": [
				{
					"length": 32,
					"start": 172
				},
				{
					"length": 32,
					"start": 313
				}
			]
		},
		"linkReferences": {},
		"object": "608060405234801561001057600080fd5b50600436106100415760003560e01c806364d98f6e14610046578063cc1f2afa14610064578063feca19d914610082575b600080fd5b61004e6100a0565b60405161005b9190610176565b60405180910390f35b61006c610113565b60405161007991906101d2565b60405180910390f35b61008a610137565b6040516100979190610206565b60405180910390f35b600066038d7ea4c680007f00000000000000000000000000000000000000000000000000000000000000006100d59190610250565b7f000000000000000000000000000000000000000000000000000000000000000073ffffffffffffffffffffffffffffffffffffffff163111905090565b7f000000000000000000000000000000000000000000000000000000000000000081565b7f000000000000000000000000000000000000000000000000000000000000000081565b60008115159050919050565b6101708161015b565b82525050565b600060208201905061018b6000830184610167565b92915050565b600073ffffffffffffffffffffffffffffffffffffffff82169050919050565b60006101bc82610191565b9050919050565b6101cc816101b1565b82525050565b60006020820190506101e760008301846101c3565b92915050565b6000819050919050565b610200816101ed565b82525050565b600060208201905061021b60008301846101f7565b92915050565b7f4e487b7100000000000000000000000000000000000000000000000000000000600052601160045260246000fd5b600061025b826101ed565b9150610266836101ed565b925082820190508082111561027e5761027d610221565b5b9291505056fea26469706673582212208d463b438624d0f0129b1179154698368309b7f45e0eff2c598387ccfa3d54f864736f6c63430008130033",
		"opcodes": "PUSH1 0x80 PUSH1 0x40 MSTORE CALLVALUE DUP1 ISZERO PUSH2 0x10 JUMPI PUSH1 0x0 DUP1 REVERT JUMPDEST POP PUSH1 0x4 CALLDATASIZE LT PUSH2 0x41 JUMPI PUSH1 0x0 CALLDATALOAD PUSH1 0xE0 SHR DUP1 PUSH4 0x64D98F6E EQ PUSH2 0x46 JUMPI DUP1 PUSH4 0xCC1F2AFA EQ PUSH2 0x64 JUMPI DUP1 PUSH4 0xFECA19D9 EQ PUSH2 0x82 JUMPI JUMPDEST PUSH1 0x0 DUP1 REVERT JUMPDEST PUSH2 0x4E PUSH2 0xA0 JUMP JUMPDEST PUSH1 0x40 MLOAD PUSH2 0x5B SWAP2 SWAP1 PUSH2 0x176 JUMP JUMPDEST PUSH1 0x40 MLOAD DUP1 SWAP2 SUB SWAP1 RETURN JUMPDEST PUSH2 0x6C PUSH2 0x113 JUMP JUMPDEST PUSH1 0x40 MLOAD PUSH2 0x79 SWAP2 SWAP1 PUSH2 0x1D2 JUMP JUMPDEST PUSH1 0x40 MLOAD DUP1 SWAP2 SUB SWAP1 RETURN JUMPDEST PUSH2 0x8A PUSH2 0x137 JUMP JUMPDEST PUSH1 0x40 MLOAD PUSH2 0x97 SWAP2 SWAP1 PUSH2 0x206 JUMP JUMPDEST PUSH1 0x40 MLOAD DUP1 SWAP2 SUB SWAP1 RETURN JUMPDEST PUSH1 0x0 PUSH7 0x38D7EA4C68000 PUSH32 0x0 PUSH2 0xD5 SWAP2 SWAP1 PUSH2 0x250 JUMP JUMPDEST PUSH32 0x0 PUSH20 0xFFFFFFFFFFFFFFFFFFFFFFFFFFFFFFFFFFFFFFFF AND BALANCE GT SWAP1 POP SWAP1 JUMP JUMPDEST PUSH32 0x0 DUP2 JUMP JUMPDEST PUSH32 0x0 DUP2 JUMP JUMPDEST PUSH1 0x0 DUP2 ISZERO ISZERO SWAP1 POP SWAP2 SWAP1 POP JUMP JUMPDEST PUSH2 0x170 DUP2 PUSH2 0x15B JUMP JUMPDEST DUP3 MSTORE POP POP JUMP JUMPDEST PUSH1 0x0 PUSH1 0x20 DUP3 ADD SWAP1 POP PUSH2 0x18B PUSH1 0x0 DUP4 ADD DUP5 PUSH2 0x167 JUMP JUMPDEST SWAP3 SWAP2 POP POP JUMP JUMPDEST PUSH1 0x0 PUSH20 0xFFFFFFFFFFFFFFFFFFFFFFFFFFFFFFFFFFFFFFFF DUP3 AND SWAP1 POP SWAP2 SWAP1 POP JUMP JUMPDEST PUSH1 0x0 PUSH2 0x1BC DUP3 PUSH2 0x191 JUMP JUMPDEST SWAP1 POP SWAP2 SWAP1 POP JUMP JUMPDEST PUSH2 0x1CC DUP2 PUSH2 0x1B1 JUMP JUMPDEST DUP3 MSTORE POP POP JUMP JUMPDEST PUSH1 0x0 PUSH1 0x20 DUP3 ADD SWAP1 POP PUSH2 0x1E7 PUSH1 0x0 DUP4 ADD DUP5 PUSH2 0x1C3 JUMP JUMPDEST SWAP3 SWAP2 POP POP JUMP JUMPDEST PUSH1 0x0 DUP2 SWAP1 POP SWAP2 SWAP1 POP JUMP JUMPDEST PUSH2 0x200 DUP2 PUSH2 0x1ED JUMP JUMPDEST DUP3 MSTORE POP POP JUMP JUMPDEST PUSH1 0x0 PUSH1 0x20 DUP3 ADD SWAP1 POP PUSH2 0x21B PUSH1 0x0 DUP4 ADD DUP5 PUSH2 0x1F7 JUMP JUMPDEST SWAP3 SWAP2 POP POP JUMP JUMPDEST PUSH32 0x4E487B7100000000000000000000000000000000000000000000000000000000 PUSH1 0x0 MSTORE PUSH1 0x11 PUSH1 0x4 MSTORE PUSH1 0x24 PUSH1 0x0 REVERT JUMPDEST PUSH1 0x0 PUSH2 0x25B DUP3 PUSH2 0x1ED JUMP JUMPDEST SWAP2 POP PUSH2 0x266 DUP4 PUSH2 0x1ED JUMP JUMPDEST SWAP3 POP DUP3 DUP3 ADD SWAP1 POP DUP1 DUP3 GT ISZERO PUSH2 0x27E JUMPI PUSH2 0x27D PUSH2 0x221 JUMP JUMPDEST JUMPDEST SWAP3 SWAP2 POP POP JUMP INVALID LOG2 PUSH5 0x6970667358 0x22 SLT KECCAK256 DUP14 CHAINID EXTCODESIZE NUMBER DUP7 0x24 0xD0 CREATE SLT SWAP12 GT PUSH26 0x154698368309B7F45E0EFF2C598387CCFA3D54F864736F6C6343 STOP ADDMOD SGT STOP CALLER "
	},
	"Assembly": ".code\n  PUSH C0\t\t\tcontract Challenge {\\n    addr...\n  PUSH 40\t\t\tcontract Challenge {\\n    addr...\n  MSTORE \t\t\tcontract Challenge {\\n    addr...\n  PUSH 32E4D1CFABE68AE8192DE49B1E1D1C6CB4C4C1E5\t\t\t0x32E4D1CfAbE68Ae8192DE49B1E1d...\n  PUSH FFFFFFFFFFFFFFFFFFFFFFFFFFFFFFFFFFFFFFFF\t\t\taddress public immutable TARGE...\n  AND \t\t\taddress public immutable TARGE...\n  PUSH 80\t\t\taddress public immutable TARGE...\n  SWAP1 \t\t\taddress public immutable TARGE...\n  PUSH FFFFFFFFFFFFFFFFFFFFFFFFFFFFFFFFFFFFFFFF\t\t\taddress public immutable TARGE...\n  AND \t\t\taddress public immutable TARGE...\n  DUP2 \t\t\taddress public immutable TARGE...\n  MSTORE \t\t\taddress public immutable TARGE...\n  POP \t\t\taddress public immutable TARGE...\n  CALLVALUE \t\t\tconstructor() {\\n        START...\n  DUP1 \t\t\tconstructor() {\\n        START...\n  ISZERO \t\t\tconstructor() {\\n        START...\n  PUSH [tag] 1\t\t\tconstructor() {\\n        START...\n  JUMPI \t\t\tconstructor() {\\n        START...\n  PUSH 0\t\t\tconstructor() {\\n        START...\n  DUP1 \t\t\tconstructor() {\\n        START...\n  REVERT \t\t\tconstructor() {\\n        START...\ntag 1\t\t\tconstructor() {\\n        START...\n  JUMPDEST \t\t\tconstructor() {\\n        START...\n  POP \t\t\tconstructor() {\\n        START...\n  PUSH 80\t\t\tTARGET\n  MLOAD \t\t\tTARGET\n  PUSH FFFFFFFFFFFFFFFFFFFFFFFFFFFFFFFFFFFFFFFF\t\t\taddress(TARGET).balance\n  AND \t\t\taddress(TARGET).balance\n  BALANCE \t\t\taddress(TARGET).balance\n  PUSH A0\t\t\tSTARTING_BALANCE = address(TAR...\n  DUP2 \t\t\tSTARTING_BALANCE = address(TAR...\n  DUP2 \t\t\tSTARTING_BALANCE = address(TAR...\n  MSTORE \t\t\tSTARTING_BALANCE = address(TAR...\n  POP \t\t\tSTARTING_BALANCE = address(TAR...\n  POP \t\t\tSTARTING_BALANCE = address(TAR...\n  PUSH 80\t\t\tcontract Challenge {\\n    addr...\n  MLOAD \t\t\tcontract Challenge {\\n    addr...\n  PUSH A0\t\t\tcontract Challenge {\\n    addr...\n  MLOAD \t\t\tcontract Challenge {\\n    addr...\n  PUSH #[$] 0000000000000000000000000000000000000000000000000000000000000000\t\t\tcontract Challenge {\\n    addr...\n  PUSH [$] 0000000000000000000000000000000000000000000000000000000000000000\t\t\tcontract Challenge {\\n    addr...\n  PUSH 0\t\t\tcontract Challenge {\\n    addr...\n  CODECOPY \t\t\tcontract Challenge {\\n    addr...\n  PUSH 0\t\t\tcontract Challenge {\\n    addr...\n  ASSIGNIMMUTABLE 6\t\t\tcontract Challenge {\\n    addr...\n  PUSH 0\t\t\tcontract Challenge {\\n    addr...\n  ASSIGNIMMUTABLE 4\t\t\tcontract Challenge {\\n    addr...\n  PUSH #[$] 0000000000000000000000000000000000000000000000000000000000000000\t\t\tcontract Challenge {\\n    addr...\n  PUSH 0\t\t\tcontract Challenge {\\n    addr...\n  RETURN \t\t\tcontract Challenge {\\n    addr...\n.data\n  0:\n    .code\n      PUSH 80\t\t\tcontract Challenge {\\n    addr...\n      PUSH 40\t\t\tcontract Challenge {\\n    addr...\n      MSTORE \t\t\tcontract Challenge {\\n    addr...\n      CALLVALUE \t\t\tcontract Challenge {\\n    addr...\n      DUP1 \t\t\tcontract Challenge {\\n    addr...\n      ISZERO \t\t\tcontract Challenge {\\n    addr...\n      PUSH [tag] 1\t\t\tcontract Challenge {\\n    addr...\n      JUMPI \t\t\tcontract Challenge {\\n    addr...\n      PUSH 0\t\t\tcontract Challenge {\\n    addr...\n      DUP1 \t\t\tcontract Challenge {\\n    addr...\n      REVERT \t\t\tcontract Challenge {\\n    addr...\n    tag 1\t\t\tcontract Challenge {\\n    addr...\n      JUMPDEST \t\t\tcontract Challenge {\\n    addr...\n      POP \t\t\tcontract Challenge {\\n    addr...\n      PUSH 4\t\t\tcontract Challenge {\\n    addr...\n      CALLDATASIZE \t\t\tcontract Challenge {\\n    addr...\n      LT \t\t\tcontract Challenge {\\n    addr...\n      PUSH [tag] 2\t\t\tcontract Challenge {\\n    addr...\n      JUMPI \t\t\tcontract Challenge {\\n    addr...\n      PUSH 0\t\t\tcontract Challenge {\\n    addr...\n      CALLDATALOAD \t\t\tcontract Challenge {\\n    addr...\n      PUSH E0\t\t\tcontract Challenge {\\n    addr...\n      SHR \t\t\tcontract Challenge {\\n    addr...\n      DUP1 \t\t\tcontract Challenge {\\n    addr...\n      PUSH 64D98F6E\t\t\tcontract Challenge {\\n    addr...\n      EQ \t\t\tcontract Challenge {\\n    addr...\n      PUSH [tag] 3\t\t\tcontract Challenge {\\n    addr...\n      JUMPI \t\t\tcontract Challenge {\\n    addr...\n      DUP1 \t\t\tcontract Challenge {\\n    addr...\n      PUSH CC1F2AFA\t\t\tcontract Challenge {\\n    addr...\n      EQ \t\t\tcontract Challenge {\\n    addr...\n      PUSH [tag] 4\t\t\tcontract Challenge {\\n    addr...\n      JUMPI \t\t\tcontract Challenge {\\n    addr...\n      DUP1 \t\t\tcontract Challenge {\\n    addr...\n      PUSH FECA19D9\t\t\tcontract Challenge {\\n    addr...\n      EQ \t\t\tcontract Challenge {\\n    addr...\n      PUSH [tag] 5\t\t\tcontract Challenge {\\n    addr...\n      JUMPI \t\t\tcontract Challenge {\\n    addr...\n    tag 2\t\t\tcontract Challenge {\\n    addr...\n      JUMPDEST \t\t\tcontract Challenge {\\n    addr...\n      PUSH 0\t\t\tcontract Challenge {\\n    addr...\n      DUP1 \t\t\tcontract Challenge {\\n    addr...\n      REVERT \t\t\tcontract Challenge {\\n    addr...\n    tag 3\t\t\tfunction isSolved() external v...\n      JUMPDEST \t\t\tfunction isSolved() external v...\n      PUSH [tag] 6\t\t\tfunction isSolved() external v...\n      PUSH [tag] 7\t\t\tfunction isSolved() external v...\n      JUMP \t\t\tfunction isSolved() external v...\n    tag 6\t\t\tfunction isSolved() external v...\n      JUMPDEST \t\t\tfunction isSolved() external v...\n      PUSH 40\t\t\tfunction isSolved() external v...\n      MLOAD \t\t\tfunction isSolved() external v...\n      PUSH [tag] 8\t\t\tfunction isSolved() external v...\n      SWAP2 \t\t\tfunction isSolved() external v...\n      SWAP1 \t\t\tfunction isSolved() external v...\n      PUSH [tag] 9\t\t\tfunction isSolved() external v...\n      JUMP \t\t\tfunction isSolved() external v...\n    tag 8\t\t\tfunction isSolved() external v...\n      JUMPDEST \t\t\tfunction isSolved() external v...\n      PUSH 40\t\t\tfunction isSolved() external v...\n      MLOAD \t\t\tfunction isSolved() external v...\n      DUP1 \t\t\tfunction isSolved() external v...\n      SWAP2 \t\t\tfunction isSolved() external v...\n      SUB \t\t\tfunction isSolved() external v...\n      SWAP1 \t\t\tfunction isSolved() external v...\n      RETURN \t\t\tfunction isSolved() external v...\n    tag 4\t\t\taddress public immutable TARGE...\n      JUMPDEST \t\t\taddress public immutable TARGE...\n      PUSH [tag] 10\t\t\taddress public immutable TARGE...\n      PUSH [tag] 11\t\t\taddress public immutable TARGE...\n      JUMP \t\t\taddress public immutable TARGE...\n    tag 10\t\t\taddress public immutable TARGE...\n      JUMPDEST \t\t\taddress public immutable TARGE...\n      PUSH 40\t\t\taddress public immutable TARGE...\n      MLOAD \t\t\taddress public immutable TARGE...\n      PUSH [tag] 12\t\t\taddress public immutable TARGE...\n      SWAP2 \t\t\taddress public immutable TARGE...\n      SWAP1 \t\t\taddress public immutable TARGE...\n      PUSH [tag] 13\t\t\taddress public immutable TARGE...\n      JUMP \t\t\taddress public immutable TARGE...\n    tag 12\t\t\taddress public immutable TARGE...\n      JUMPDEST \t\t\taddress public immutable TARGE...\n      PUSH 40\t\t\taddress public immutable TARGE...\n      MLOAD \t\t\taddress public immutable TARGE...\n      DUP1 \t\t\taddress public immutable TARGE...\n      SWAP2 \t\t\taddress public immutable TARGE...\n      SUB \t\t\taddress public immutable TARGE...\n      SWAP1 \t\t\taddress public immutable TARGE...\n      RETURN \t\t\taddress public immutable TARGE...\n    tag 5\t\t\tuint256 public immutable START...\n      JUMPDEST \t\t\tuint256 public immutable START...\n      PUSH [tag] 14\t\t\tuint256 public immutable START...\n      PUSH [tag] 15\t\t\tuint256 public immutable START...\n      JUMP \t\t\tuint256 public immutable START...\n    tag 14\t\t\tuint256 public immutable START...\n      JUMPDEST \t\t\tuint256 public immutable START...\n      PUSH 40\t\t\tuint256 public immutable START...\n      MLOAD \t\t\tuint256 public immutable START...\n      PUSH [tag] 16\t\t\tuint256 public immutable START...\n      SWAP2 \t\t\tuint256 public immutable START...\n      SWAP1 \t\t\tuint256 public immutable START...\n      PUSH [tag] 17\t\t\tuint256 public immutable START...\n      JUMP \t\t\tuint256 public immutable START...\n    tag 16\t\t\tuint256 public immutable START...\n      JUMPDEST \t\t\tuint256 public immutable START...\n      PUSH 40\t\t\tuint256 public immutable START...\n      MLOAD \t\t\tuint256 public immutable START...\n      DUP1 \t\t\tuint256 public immutable START...\n      SWAP2 \t\t\tuint256 public immutable START...\n      SUB \t\t\tuint256 public immutable START...\n      SWAP1 \t\t\tuint256 public immutable START...\n      RETURN \t\t\tuint256 public immutable START...\n    tag 7\t\t\tfunction isSolved() external v...\n      JUMPDEST \t\t\tfunction isSolved() external v...\n      PUSH 0\t\t\tbool\n      PUSH 38D7EA4C68000\t\t\t0.001 ether\n      PUSHIMMUTABLE 6\t\t\tSTARTING_BALANCE\n      PUSH [tag] 19\t\t\tSTARTING_BALANCE + 0.001 ether\n      SWAP2 \t\t\tSTARTING_BALANCE + 0.001 ether\n      SWAP1 \t\t\tSTARTING_BALANCE + 0.001 ether\n      PUSH [tag] 20\t\t\tSTARTING_BALANCE + 0.001 ether\n      JUMP \t\t\tSTARTING_BALANCE + 0.001 ether\n    tag 19\t\t\tSTARTING_BALANCE + 0.001 ether\n      JUMPDEST \t\t\tSTARTING_BALANCE + 0.001 ether\n      PUSHIMMUTABLE 4\t\t\tTARGET\n      PUSH FFFFFFFFFFFFFFFFFFFFFFFFFFFFFFFFFFFFFFFF\t\t\tTARGET.balance\n      AND \t\t\tTARGET.balance\n      BALANCE \t\t\tTARGET.balance\n      GT \t\t\tTARGET.balance > STARTING_BALA...\n      SWAP1 \t\t\treturn TARGET.balance > STARTI...\n      POP \t\t\treturn TARGET.balance > STARTI...\n      SWAP1 \t\t\tfunction isSolved() external v...\n      JUMP \t\t\tfunction isSolved() external v...\n    tag 11\t\t\taddress public immutable TARGE...\n      JUMPDEST \t\t\taddress public immutable TARGE...\n      PUSHIMMUTABLE 4\t\t\taddress public immutable TARGE...\n      DUP2 \t\t\taddress public immutable TARGE...\n      JUMP \t\t\taddress public immutable TARGE...\n    tag 15\t\t\tuint256 public immutable START...\n      JUMPDEST \t\t\tuint256 public immutable START...\n      PUSHIMMUTABLE 6\t\t\tuint256 public immutable START...\n      DUP2 \t\t\tuint256 public immutable START...\n      JUMP \t\t\tuint256 public immutable START...\n    tag 21\t\t\tLicense-Identifier: MIT\\npragm...\n      JUMPDEST \t\t\tLicense-Identifier: MIT\\npragm...\n      PUSH 0\t\t\tidity ^\n      DUP2 \t\t\tdress\n      ISZERO \t\t\t\\n    address \n      ISZERO \t\t\tlenge {\\n    address p\n      SWAP1 \t\t\tntract Challenge {\\n    addres...\n      POP \t\t\tntract Challenge {\\n    addres...\n      SWAP2 \t\t\tLicense-Identifier: MIT\\npragm...\n      SWAP1 \t\t\tLicense-Identifier: MIT\\npragm...\n      POP \t\t\tLicense-Identifier: MIT\\npragm...\n      JUMP \t\t\tLicense-Identifier: MIT\\npragm...\n    tag 22\t\t\tble TARGET = 0x32E4D1CfAbE68Ae...\n      JUMPDEST \t\t\tble TARGET = 0x32E4D1CfAbE68Ae...\n      PUSH [tag] 32\t\t\ttable STARTING_BALANC\n      DUP2 \t\t\tBALAN\n      PUSH [tag] 21\t\t\ttable STARTING_BALANC\n      JUMP \t\t\ttable STARTING_BALANC\n    tag 32\t\t\ttable STARTING_BALANC\n      JUMPDEST \t\t\ttable STARTING_BALANC\n      DUP3 \t\t\t im\n      MSTORE \t\t\t public immutable STARTING_BAL...\n      POP \t\t\tble TARGET = 0x32E4D1CfAbE68Ae...\n      POP \t\t\tble TARGET = 0x32E4D1CfAbE68Ae...\n      JUMP \t\t\tble TARGET = 0x32E4D1CfAbE68Ae...\n    tag 9\t\t\tructor() {\\n        STARTING_B...\n      JUMPDEST \t\t\tructor() {\\n        STARTING_B...\n      PUSH 0\t\t\tlved\n      PUSH 20\t\t\t  \n      DUP3 \t\t\ts (bool) \n      ADD \t\t\tturns (bool) {\\n   \n      SWAP1 \t\t\t view returns (bool) {\\n   \n      POP \t\t\t view returns (bool) {\\n   \n      PUSH [tag] 34\t\t\tn TARGET.balance > STARTING_BA...\n      PUSH 0\t\t\t\n      DUP4 \t\t\t    }\\n}\n      ADD \t\t\ter;\\n    }\\n}\n      DUP5 \t\t\t0.001 \n      PUSH [tag] 22\t\t\tn TARGET.balance > STARTING_BA...\n      JUMP \t\t\tn TARGET.balance > STARTING_BA...\n    tag 34\t\t\tn TARGET.balance > STARTING_BA...\n      JUMPDEST \t\t\tn TARGET.balance > STARTING_BA...\n      SWAP3 \t\t\tructor() {\\n        STARTING_B...\n      SWAP2 \t\t\tructor() {\\n        STARTING_B...\n      POP \t\t\tructor() {\\n        STARTING_B...\n      POP \t\t\tructor() {\\n        STARTING_B...\n      JUMP \t\t\tructor() {\\n        STARTING_B...\n    tag 23\t\t\t\n      JUMPDEST \t\t\t\n      PUSH 0\t\t\t\n      PUSH FFFFFFFFFFFFFFFFFFFFFFFFFFFFFFFFFFFFFFFF\t\t\t\n      DUP3 \t\t\t\n      AND \t\t\t\n      SWAP1 \t\t\t\n      POP \t\t\t\n      SWAP2 \t\t\t\n      SWAP1 \t\t\t\n      POP \t\t\t\n      JUMP \t\t\t\n    tag 24\t\t\t\n      JUMPDEST \t\t\t\n      PUSH 0\t\t\t\n      PUSH [tag] 37\t\t\t\n      DUP3 \t\t\t\n      PUSH [tag] 23\t\t\t\n      JUMP \t\t\t\n    tag 37\t\t\t\n      JUMPDEST \t\t\t\n      SWAP1 \t\t\t\n      POP \t\t\t\n      SWAP2 \t\t\t\n      SWAP1 \t\t\t\n      POP \t\t\t\n      JUMP \t\t\t\n    tag 25\t\t\t\n      JUMPDEST \t\t\t\n      PUSH [tag] 39\t\t\t\n      DUP2 \t\t\t\n      PUSH [tag] 24\t\t\t\n      JUMP \t\t\t\n    tag 39\t\t\t\n      JUMPDEST \t\t\t\n      DUP3 \t\t\t\n      MSTORE \t\t\t\n      POP \t\t\t\n      POP \t\t\t\n      JUMP \t\t\t\n    tag 13\t\t\t\n      JUMPDEST \t\t\t\n      PUSH 0\t\t\t\n      PUSH 20\t\t\t\n      DUP3 \t\t\t\n      ADD \t\t\t\n      SWAP1 \t\t\t\n      POP \t\t\t\n      PUSH [tag] 41\t\t\t\n      PUSH 0\t\t\t\n      DUP4 \t\t\t\n      ADD \t\t\t\n      DUP5 \t\t\t\n      PUSH [tag] 25\t\t\t\n      JUMP \t\t\t\n    tag 41\t\t\t\n      JUMPDEST \t\t\t\n      SWAP3 \t\t\t\n      SWAP2 \t\t\t\n      POP \t\t\t\n      POP \t\t\t\n      JUMP \t\t\t\n    tag 26\t\t\t\n      JUMPDEST \t\t\t\n      PUSH 0\t\t\t\n      DUP2 \t\t\t\n      SWAP1 \t\t\t\n      POP \t\t\t\n      SWAP2 \t\t\t\n      SWAP1 \t\t\t\n      POP \t\t\t\n      JUMP \t\t\t\n    tag 27\t\t\t\n      JUMPDEST \t\t\t\n      PUSH [tag] 44\t\t\t\n      DUP2 \t\t\t\n      PUSH [tag] 26\t\t\t\n      JUMP \t\t\t\n    tag 44\t\t\t\n      JUMPDEST \t\t\t\n      DUP3 \t\t\t\n      MSTORE \t\t\t\n      POP \t\t\t\n      POP \t\t\t\n      JUMP \t\t\t\n    tag 17\t\t\t\n      JUMPDEST \t\t\t\n      PUSH 0\t\t\t\n      PUSH 20\t\t\t\n      DUP3 \t\t\t\n      ADD \t\t\t\n      SWAP1 \t\t\t\n      POP \t\t\t\n      PUSH [tag] 46\t\t\t\n      PUSH 0\t\t\t\n      DUP4 \t\t\t\n      ADD \t\t\t\n      DUP5 \t\t\t\n      PUSH [tag] 27\t\t\t\n      JUMP \t\t\t\n    tag 46\t\t\t\n      JUMPDEST \t\t\t\n      SWAP3 \t\t\t\n      SWAP2 \t\t\t\n      POP \t\t\t\n      POP \t\t\t\n      JUMP \t\t\t\n    tag 28\t\t\t\n      JUMPDEST \t\t\t\n      PUSH 4E487B7100000000000000000000000000000000000000000000000000000000\t\t\t\n      PUSH 0\t\t\t\n      MSTORE \t\t\t\n      PUSH 11\t\t\t\n      PUSH 4\t\t\t\n      MSTORE \t\t\t\n      PUSH 24\t\t\t\n      PUSH 0\t\t\t\n      REVERT \t\t\t\n    tag 20\t\t\t\n      JUMPDEST \t\t\t\n      PUSH 0\t\t\t\n      PUSH [tag] 49\t\t\t\n      DUP3 \t\t\t\n      PUSH [tag] 26\t\t\t\n      JUMP \t\t\t\n    tag 49\t\t\t\n      JUMPDEST \t\t\t\n      SWAP2 \t\t\t\n      POP \t\t\t\n      PUSH [tag] 50\t\t\t\n      DUP4 \t\t\t\n      PUSH [tag] 26\t\t\t\n      JUMP \t\t\t\n    tag 50\t\t\t\n      JUMPDEST \t\t\t\n      SWAP3 \t\t\t\n      POP \t\t\t\n      DUP3 \t\t\t\n      DUP3 \t\t\t\n      ADD \t\t\t\n      SWAP1 \t\t\t\n      POP \t\t\t\n      DUP1 \t\t\t\n      DUP3 \t\t\t\n      GT \t\t\t\n      ISZERO \t\t\t\n      PUSH [tag] 51\t\t\t\n      JUMPI \t\t\t\n      PUSH [tag] 52\t\t\t\n      PUSH [tag] 28\t\t\t\n      JUMP \t\t\t\n    tag 52\t\t\t\n      JUMPDEST \t\t\t\n    tag 51\t\t\t\n      JUMPDEST \t\t\t\n      SWAP3 \t\t\t\n      SWAP2 \t\t\t\n      POP \t\t\t\n      POP \t\t\t\n      JUMP \t\t\t\n    .data\n"
}