{
	"compilerInput": "{\"language\":\"Solidity\",\"sources\":{\"test.sol\":{\"content\":\"//SPDX-License-Identifier:MIT\\npragma solidity ^0.8.21;\\n\\ncontract GuessTheSecretNumberChallenge {\\n    bytes32 answerHash = 0xdb81b4d58595fbbbb592d3661a34cdca14d7ab379441400cbfa1b78bc447c365;\\n    bool completed=false;    \\n    function isComplete() public view returns (bool) {\\n        return completed;\\n    }\\n\\n    function guess(uint8 n) public payable {\\n\\n        if (keccak256(abi.encodePacked(n)) == answerHash) {\\n            completed=true;\\n        }\\n    }\\n}\"}},\"settings\":{\"optimizer\":{\"enabled\":false,\"runs\":200},\"outputSelection\":{\"*\":{\"\":[\"ast\"],\"*\":[\"abi\",\"metadata\",\"devdoc\",\"userdoc\",\"storageLayout\",\"evm.legacyAssembly\",\"evm.bytecode\",\"evm.deployedBytecode\",\"evm.methodIdentifiers\",\"evm.gasEstimates\",\"evm.assembly\"]}},\"remappings\":[]}}",
	"name": "GuessTheSecretNumberChallenge",
	"bytecode": {
		"linkReferences": {},
		"object": "60806040527fdb81b4d58595fbbbb592d3661a34cdca14d7ab379441400cbfa1b78bc447c3655f1b5f555f60015f6101000a81548160ff021916908315150217905550348015604c575f5ffd5b506101ee8061005a5f395ff3fe608060405260043610610028575f3560e01c80634ba4c16b1461002c578063b2fa1c9e14610048575b5f5ffd5b6100466004803603810190610041919061010c565b610072565b005b348015610053575f5ffd5b5061005c6100bd565b6040516100699190610151565b60405180910390f35b5f5481604051602001610085919061019e565b60405160208183030381529060405280519060200120036100ba576001805f6101000a81548160ff0219169083151502179055505b50565b5f60015f9054906101000a900460ff16905090565b5f5ffd5b5f60ff82169050919050565b6100eb816100d6565b81146100f5575f5ffd5b50565b5f81359050610106816100e2565b92915050565b5f60208284031215610121576101206100d2565b5b5f61012e848285016100f8565b91505092915050565b5f8115159050919050565b61014b81610137565b82525050565b5f6020820190506101645f830184610142565b92915050565b5f8160f81b9050919050565b5f6101808261016a565b9050919050565b610198610193826100d6565b610176565b82525050565b5f6101a98284610187565b6001820191508190509291505056fea2646970667358221220bf96657e9a3a9d78d700068ca4ceb32c6d8940cf65040eb0ffdfa7c55d03f1de64736f6c63430008210033",
		"opcodes": "PUSH1 0x80 PUSH1 0x40 MSTORE PUSH32 0xDB81B4D58595FBBBB592D3661A34CDCA14D7AB379441400CBFA1B78BC447C365 PUSH0 SHL PUSH0 SSTORE PUSH0 PUSH1 0x1 PUSH0 PUSH2 0x100 EXP DUP2 SLOAD DUP2 PUSH1 0xFF MUL NOT AND SWAP1 DUP4 ISZERO ISZERO MUL OR SWAP1 SSTORE POP CALLVALUE DUP1 ISZERO PUSH1 0x4C JUMPI PUSH0 PUSH0 REVERT JUMPDEST POP PUSH2 0x1EE DUP1 PUSH2 0x5A PUSH0 CODECOPY PUSH0 RETURN INVALID PUSH1 0x80 PUSH1 0x40 MSTORE PUSH1 0x4 CALLDATASIZE LT PUSH2 0x28 JUMPI PUSH0 CALLDATALOAD PUSH1 0xE0 SHR DUP1 PUSH4 0x4BA4C16B EQ PUSH2 0x2C JUMPI DUP1 PUSH4 0xB2FA1C9E EQ PUSH2 0x48 JUMPI JUMPDEST PUSH0 PUSH0 REVERT JUMPDEST PUSH2 0x46 PUSH1 0x4 DUP1 CALLDATASIZE SUB DUP2 ADD SWAP1 PUSH2 0x41 SWAP2 SWAP1 PUSH2 0x10C JUMP JUMPDEST PUSH2 0x72 JUMP JUMPDEST STOP JUMPDEST CALLVALUE DUP1 ISZERO PUSH2 0x53 JUMPI PUSH0 PUSH0 REVERT JUMPDEST POP PUSH2 0x5C PUSH2 0xBD JUMP JUMPDEST PUSH1 0x40 MLOAD PUSH2 0x69 SWAP2 SWAP1 PUSH2 0x151 JUMP JUMPDEST PUSH1 0x40 MLOAD DUP1 SWAP2 SUB SWAP1 RETURN JUMPDEST PUSH0 SLOAD DUP2 PUSH1 0x40 MLOAD PUSH1 0x20 ADD PUSH2 0x85 SWAP2 SWAP1 PUSH2 0x19E JUMP JUMPDEST PUSH1 0x40 MLOAD PUSH1 0x20 DUP2 DUP4 SUB SUB DUP2 MSTORE SWAP1 PUSH1 0x40 MSTORE DUP1 MLOAD SWAP1 PUSH1 0x20 ADD KECCAK256 SUB PUSH2 0xBA JUMPI PUSH1 0x1 DUP1 PUSH0 PUSH2 0x100 EXP DUP2 SLOAD DUP2 PUSH1 0xFF MUL NOT AND SWAP1 DUP4 ISZERO ISZERO MUL OR SWAP1 SSTORE POP JUMPDEST POP JUMP JUMPDEST PUSH0 PUSH1 0x1 PUSH0 SWAP1 SLOAD SWAP1 PUSH2 0x100 EXP SWAP1 DIV PUSH1 0xFF AND SWAP1 POP SWAP1 JUMP JUMPDEST PUSH0 PUSH0 REVERT JUMPDEST PUSH0 PUSH1 0xFF DUP3 AND SWAP1 POP SWAP2 SWAP1 POP JUMP JUMPDEST PUSH2 0xEB DUP2 PUSH2 0xD6 JUMP JUMPDEST DUP2 EQ PUSH2 0xF5 JUMPI PUSH0 PUSH0 REVERT JUMPDEST POP JUMP JUMPDEST PUSH0 DUP2 CALLDATALOAD SWAP1 POP PUSH2 0x106 DUP2 PUSH2 0xE2 JUMP JUMPDEST SWAP3 SWAP2 POP POP JUMP JUMPDEST PUSH0 PUSH1 0x20 DUP3 DUP5 SUB SLT ISZERO PUSH2 0x121 JUMPI PUSH2 0x120 PUSH2 0xD2 JUMP JUMPDEST JUMPDEST PUSH0 PUSH2 0x12E DUP5 DUP3 DUP6 ADD PUSH2 0xF8 JUMP JUMPDEST SWAP2 POP POP SWAP3 SWAP2 POP POP JUMP JUMPDEST PUSH0 DUP2 ISZERO ISZERO SWAP1 POP SWAP2 SWAP1 POP JUMP JUMPDEST PUSH2 0x14B DUP2 PUSH2 0x137 JUMP JUMPDEST DUP3 MSTORE POP POP JUMP JUMPDEST PUSH0 PUSH1 0x20 DUP3 ADD SWAP1 POP PUSH2 0x164 PUSH0 DUP4 ADD DUP5 PUSH2 0x142 JUMP JUMPDEST SWAP3 SWAP2 POP POP JUMP JUMPDEST PUSH0 DUP2 PUSH1 0xF8 SHL SWAP1 POP SWAP2 SWAP1 POP JUMP JUMPDEST PUSH0 PUSH2 0x180 DUP3 PUSH2 0x16A JUMP JUMPDEST SWAP1 POP SWAP2 SWAP1 POP JUMP JUMPDEST PUSH2 0x198 PUSH2 0x193 DUP3 PUSH2 0xD6 JUMP JUMPDEST PUSH2 0x176 JUMP JUMPDEST DUP3 MSTORE POP POP JUMP JUMPDEST PUSH0 PUSH2 0x1A9 DUP3 DUP5 PUSH2 0x187 JUMP JUMPDEST PUSH1 0x1 DUP3 ADD SWAP2 POP DUP2 SWAP1 POP SWAP3 SWAP2 POP POP JUMP INVALID LOG2 PUSH5 0x6970667358 0x22 SLT KECCAK256 0xBF SWAP7 PUSH6 0x7E9A3A9D78D7 STOP MOD DUP13 LOG4 0xCE 0xB3 0x2C PUSH14 0x8940CF65040EB0FFDFA7C55D03F1 0xDE PUSH5 0x736F6C6343 STOP ADDMOD 0x21 STOP CALLER "
	},
	"abi": [
		{
			"inputs": [
				{
					"internalType": "uint8",
					"name": "n",
					"type": "uint8"
				}
			],
			"name": "guess",
			"outputs": [],
			"stateMutability": "payable",
			"type": "function"
		},
		{
			"inputs": [],
			"name": "isComplete",
			"outputs": [
				{
					"internalType": "bool",
					"name": "",
					"type": "bool"
				}
			],
			"stateMutability": "view",
			"type": "function"
		}
	],
	"storageLayout": {
		"storage": [
			{
				"astId": 4,
				"contract": "test.sol:GuessTheSecretNumberChallenge",
				"label": "answerHash",
				"offset": 0,
				"slot": "0",
				"type": "t_bytes32"
			},
			{
				"astId": 7,
				"contract": "test.sol:GuessTheSecretNumberChallenge",
				"label": "completed",
				"offset": 0,
				"slot": "1",
				"type": "t_bool"
			}
		],
		"types": {
			"t_bool": {
				"encoding": "inplace",
				"label": "bool",
				"numberOfBytes": "1"
			},
			"t_bytes32": {
				"encoding": "inplace",
				"label": "bytes32",
				"numberOfBytes": "32"
			}
		}
	},
	"web3Deploy": "var guessthesecretnumberchallengeContract = new web3.eth.Contract([{\"inputs\":[{\"internalType\":\"uint8\",\"name\":\"n\",\"type\":\"uint8\"}],\"name\":\"guess\",\"outputs\":[],\"stateMutability\":\"payable\",\"type\":\"function\"},{\"inputs\":[],\"name\":\"isComplete\",\"outputs\":[{\"internalType\":\"bool\",\"name\":\"\",\"type\":\"bool\"}],\"stateMutability\":\"view\",\"type\":\"function\"}]);\nvar guessthesecretnumberchallenge = guessthesecretnumberchallengeContract.deploy({\n     data: '0x60806040527fdb81b4d58595fbbbb592d3661a34cdca14d7ab379441400cbfa1b78bc447c3655f1b5f555f60015f6101000a81548160ff021916908315150217905550348015604c575f5ffd5b506101ee8061005a5f395ff3fe608060405260043610610028575f3560e01c80634ba4c16b1461002c578063b2fa1c9e14610048575b5f5ffd5b6100466004803603810190610041919061010c565b610072565b005b348015610053575f5ffd5b5061005c6100bd565b6040516100699190610151565b60405180910390f35b5f5481604051602001610085919061019e565b60405160208183030381529060405280519060200120036100ba576001805f6101000a81548160ff0219169083151502179055505b50565b5f60015f9054906101000a900460ff16905090565b5f5ffd5b5f60ff82169050919050565b6100eb816100d6565b81146100f5575f5ffd5b50565b5f81359050610106816100e2565b92915050565b5f60208284031215610121576101206100d2565b5b5f61012e848285016100f8565b91505092915050565b5f8115159050919050565b61014b81610137565b82525050565b5f6020820190506101645f830184610142565b92915050565b5f8160f81b9050919050565b5f6101808261016a565b9050919050565b610198610193826100d6565b610176565b82525050565b5f6101a98284610187565b6001820191508190509291505056fea2646970667358221220bf96657e9a3a9d78d700068ca4ceb32c6d8940cf65040eb0ffdfa7c55d03f1de64736f6c63430008210033', \n     arguments: [\n     ]\n}).send({\n     from: web3.eth.accounts[0], \n     gas: '4700000'\n   }, function (e, contract){\n    console.log(e, contract);\n    if (typeof contract.address !== 'undefined') {\n         console.log('Contract mined! address: ' + contract.address + ' transactionHash: ' + contract.transactionHash);\n    }\n })",
	"functionHashes": {
		"4ba4c16b": "guess(uint8)",
		"b2fa1c9e": "isComplete()"
	},
	"gasEstimates": {
		"Creation": {
			"codeDepositCost": "98800",
			"executionCost": "46520",
			"totalCost": "145320"
		},
		"External": {
			"guess(uint8)": "infinite",
			"isComplete()": "2473"
		}
	},
	"devdoc": {
		"kind": "dev",
		"methods": {},
		"version": 1
	},
	"userdoc": {
		"kind": "user",
		"methods": {},
		"version": 1
	},
	"Runtime Bytecode": {
		"immutableReferences": {},
		"linkReferences": {},
		"object": "608060405260043610610028575f3560e01c80634ba4c16b1461002c578063b2fa1c9e14610048575b5f5ffd5b6100466004803603810190610041919061010c565b610072565b005b348015610053575f5ffd5b5061005c6100bd565b6040516100699190610151565b60405180910390f35b5f5481604051602001610085919061019e565b60405160208183030381529060405280519060200120036100ba576001805f6101000a81548160ff0219169083151502179055505b50565b5f60015f9054906101000a900460ff16905090565b5f5ffd5b5f60ff82169050919050565b6100eb816100d6565b81146100f5575f5ffd5b50565b5f81359050610106816100e2565b92915050565b5f60208284031215610121576101206100d2565b5b5f61012e848285016100f8565b91505092915050565b5f8115159050919050565b61014b81610137565b82525050565b5f6020820190506101645f830184610142565b92915050565b5f8160f81b9050919050565b5f6101808261016a565b9050919050565b610198610193826100d6565b610176565b82525050565b5f6101a98284610187565b6001820191508190509291505056fea2646970667358221220bf96657e9a3a9d78d700068ca4ceb32c6d8940cf65040eb0ffdfa7c55d03f1de64736f6c63430008210033",
		"opcodes": "PUSH1 0x80 PUSH1 0x40 MSTORE PUSH1 0x4 CALLDATASIZE LT PUSH2 0x28 JUMPI PUSH0 CALLDATALOAD PUSH1 0xE0 SHR DUP1 PUSH4 0x4BA4C16B EQ PUSH2 0x2C JUMPI DUP1 PUSH4 0xB2FA1C9E EQ PUSH2 0x48 JUMPI JUMPDEST PUSH0 PUSH0 REVERT JUMPDEST PUSH2 0x46 PUSH1 0x4 DUP1 CALLDATASIZE SUB DUP2 ADD SWAP1 PUSH2 0x41 SWAP2 SWAP1 PUSH2 0x10C JUMP JUMPDEST PUSH2 0x72 JUMP JUMPDEST STOP JUMPDEST CALLVALUE DUP1 ISZERO PUSH2 0x53 JUMPI PUSH0 PUSH0 REVERT JUMPDEST POP PUSH2 0x5C PUSH2 0xBD JUMP JUMPDEST PUSH1 0x40 MLOAD PUSH2 0x69 SWAP2 SWAP1 PUSH2 0x151 JUMP JUMPDEST PUSH1 0x40 MLOAD DUP1 SWAP2 SUB SWAP1 RETURN JUMPDEST PUSH0 SLOAD DUP2 PUSH1 0x40 MLOAD PUSH1 0x20 ADD PUSH2 0x85 SWAP2 SWAP1 PUSH2 0x19E JUMP JUMPDEST PUSH1 0x40 MLOAD PUSH1 0x20 DUP2 DUP4 SUB SUB DUP2 MSTORE SWAP1 PUSH1 0x40 MSTORE DUP1 MLOAD SWAP1 PUSH1 0x20 ADD KECCAK256 SUB PUSH2 0xBA JUMPI PUSH1 0x1 DUP1 PUSH0 PUSH2 0x100 EXP DUP2 SLOAD DUP2 PUSH1 0xFF MUL NOT AND SWAP1 DUP4 ISZERO ISZERO MUL OR SWAP1 SSTORE POP JUMPDEST POP JUMP JUMPDEST PUSH0 PUSH1 0x1 PUSH0 SWAP1 SLOAD SWAP1 PUSH2 0x100 EXP SWAP1 DIV PUSH1 0xFF AND SWAP1 POP SWAP1 JUMP JUMPDEST PUSH0 PUSH0 REVERT JUMPDEST PUSH0 PUSH1 0xFF DUP3 AND SWAP1 POP SWAP2 SWAP1 POP JUMP JUMPDEST PUSH2 0xEB DUP2 PUSH2 0xD6 JUMP JUMPDEST DUP2 EQ PUSH2 0xF5 JUMPI PUSH0 PUSH0 REVERT JUMPDEST POP JUMP JUMPDEST PUSH0 DUP2 CALLDATALOAD SWAP1 POP PUSH2 0x106 DUP2 PUSH2 0xE2 JUMP JUMPDEST SWAP3 SWAP2 POP POP JUMP JUMPDEST PUSH0 PUSH1 0x20 DUP3 DUP5 SUB SLT ISZERO PUSH2 0x121 JUMPI PUSH2 0x120 PUSH2 0xD2 JUMP JUMPDEST JUMPDEST PUSH0 PUSH2 0x12E DUP5 DUP3 DUP6 ADD PUSH2 0xF8 JUMP JUMPDEST SWAP2 POP POP SWAP3 SWAP2 POP POP JUMP JUMPDEST PUSH0 DUP2 ISZERO ISZERO SWAP1 POP SWAP2 SWAP1 POP JUMP JUMPDEST PUSH2 0x14B DUP2 PUSH2 0x137 JUMP JUMPDEST DUP3 MSTORE POP POP JUMP JUMPDEST PUSH0 PUSH1 0x20 DUP3 ADD SWAP1 POP PUSH2 0x164 PUSH0 DUP4 ADD DUP5 PUSH2 0x142 JUMP JUMPDEST SWAP3 SWAP2 POP POP JUMP JUMPDEST PUSH0 DUP2 PUSH1 0xF8 SHL SWAP1 POP SWAP2 SWAP1 POP JUMP JUMPDEST PUSH0 PUSH2 0x180 DUP3 PUSH2 0x16A JUMP JUMPDEST SWAP1 POP SWAP2 SWAP1 POP JUMP JUMPDEST PUSH2 0x198 PUSH2 0x193 DUP3 PUSH2 0xD6 JUMP JUMPDEST PUSH2 0x176 JUMP JUMPDEST DUP3 MSTORE POP POP JUMP JUMPDEST PUSH0 PUSH2 0x1A9 DUP3 DUP5 PUSH2 0x187 JUMP JUMPDEST PUSH1 0x1 DUP3 ADD SWAP2 POP DUP2 SWAP1 POP SWAP3 SWAP2 POP POP JUMP INVALID LOG2 PUSH5 0x6970667358 0x22 SLT KECCAK256 0xBF SWAP7 PUSH6 0x7E9A3A9D78D7 STOP MOD DUP13 LOG4 0xCE 0xB3 0x2C PUSH14 0x8940CF65040EB0FFDFA7C55D03F1 0xDE PUSH5 0x736F6C6343 STOP ADDMOD 0x21 STOP CALLER "
	},
	"Assembly": ".code\n  PUSH 80\t\t\tcontract GuessTheSecretNumberC...\n  PUSH 40\t\t\tcontract GuessTheSecretNumberC...\n  MSTORE \t\t\tcontract GuessTheSecretNumberC...\n  PUSH DB81B4D58595FBBBB592D3661A34CDCA14D7AB379441400CBFA1B78BC447C365\t\t\t0xdb81b4d58595fbbbb592d3661a34...\n  PUSH 0\t\t\tbytes32 answerHash = 0xdb81b4d...\n  SHL \t\t\tbytes32 answerHash = 0xdb81b4d...\n  PUSH 0\t\t\tbytes32 answerHash = 0xdb81b4d...\n  SSTORE \t\t\tbytes32 answerHash = 0xdb81b4d...\n  PUSH 0\t\t\tfalse\n  PUSH 1\t\t\tbool completed=false\n  PUSH 0\t\t\tbool completed=false\n  PUSH 100\t\t\tbool completed=false\n  EXP \t\t\tbool completed=false\n  DUP2 \t\t\tbool completed=false\n  SLOAD \t\t\tbool completed=false\n  DUP2 \t\t\tbool completed=false\n  PUSH FF\t\t\tbool completed=false\n  MUL \t\t\tbool completed=false\n  NOT \t\t\tbool completed=false\n  AND \t\t\tbool completed=false\n  SWAP1 \t\t\tbool completed=false\n  DUP4 \t\t\tbool completed=false\n  ISZERO \t\t\tbool completed=false\n  ISZERO \t\t\tbool completed=false\n  MUL \t\t\tbool completed=false\n  OR \t\t\tbool completed=false\n  SWAP1 \t\t\tbool completed=false\n  SSTORE \t\t\tbool completed=false\n  POP \t\t\tbool completed=false\n  CALLVALUE \t\t\tcontract GuessTheSecretNumberC...\n  DUP1 \t\t\tcontract GuessTheSecretNumberC...\n  ISZERO \t\t\tcontract GuessTheSecretNumberC...\n  PUSH [tag] 1\t\t\tcontract GuessTheSecretNumberC...\n  JUMPI \t\t\tcontract GuessTheSecretNumberC...\n  PUSH 0\t\t\tcontract GuessTheSecretNumberC...\n  PUSH 0\t\t\tcontract GuessTheSecretNumberC...\n  REVERT \t\t\tcontract GuessTheSecretNumberC...\ntag 1\t\t\tcontract GuessTheSecretNumberC...\n  JUMPDEST \t\t\tcontract GuessTheSecretNumberC...\n  POP \t\t\tcontract GuessTheSecretNumberC...\n  PUSH #[$] 0000000000000000000000000000000000000000000000000000000000000000\t\t\tcontract GuessTheSecretNumberC...\n  DUP1 \t\t\tcontract GuessTheSecretNumberC...\n  PUSH [$] 0000000000000000000000000000000000000000000000000000000000000000\t\t\tcontract GuessTheSecretNumberC...\n  PUSH 0\t\t\tcontract GuessTheSecretNumberC...\n  CODECOPY \t\t\tcontract GuessTheSecretNumberC...\n  PUSH 0\t\t\tcontract GuessTheSecretNumberC...\n  RETURN \t\t\tcontract GuessTheSecretNumberC...\n.data\n  0:\n    .code\n      PUSH 80\t\t\tcontract GuessTheSecretNumberC...\n      PUSH 40\t\t\tcontract GuessTheSecretNumberC...\n      MSTORE \t\t\tcontract GuessTheSecretNumberC...\n      PUSH 4\t\t\tcontract GuessTheSecretNumberC...\n      CALLDATASIZE \t\t\tcontract GuessTheSecretNumberC...\n      LT \t\t\tcontract GuessTheSecretNumberC...\n      PUSH [tag] 1\t\t\tcontract GuessTheSecretNumberC...\n      JUMPI \t\t\tcontract GuessTheSecretNumberC...\n      PUSH 0\t\t\tcontract GuessTheSecretNumberC...\n      CALLDATALOAD \t\t\tcontract GuessTheSecretNumberC...\n      PUSH E0\t\t\tcontract GuessTheSecretNumberC...\n      SHR \t\t\tcontract GuessTheSecretNumberC...\n      DUP1 \t\t\tcontract GuessTheSecretNumberC...\n      PUSH 4BA4C16B\t\t\tcontract GuessTheSecretNumberC...\n      EQ \t\t\tcontract GuessTheSecretNumberC...\n      PUSH [tag] 2\t\t\tcontract GuessTheSecretNumberC...\n      JUMPI \t\t\tcontract GuessTheSecretNumberC...\n      DUP1 \t\t\tcontract GuessTheSecretNumberC...\n      PUSH B2FA1C9E\t\t\tcontract GuessTheSecretNumberC...\n      EQ \t\t\tcontract GuessTheSecretNumberC...\n      PUSH [tag] 3\t\t\tcontract GuessTheSecretNumberC...\n      JUMPI \t\t\tcontract GuessTheSecretNumberC...\n    tag 1\t\t\tcontract GuessTheSecretNumberC...\n      JUMPDEST \t\t\tcontract GuessTheSecretNumberC...\n      PUSH 0\t\t\tcontract GuessTheSecretNumberC...\n      PUSH 0\t\t\tcontract GuessTheSecretNumberC...\n      REVERT \t\t\tcontract GuessTheSecretNumberC...\n    tag 2\t\t\tfunction guess(uint8 n) public...\n      JUMPDEST \t\t\tfunction guess(uint8 n) public...\n      PUSH [tag] 4\t\t\tfunction guess(uint8 n) public...\n      PUSH 4\t\t\tfunction guess(uint8 n) public...\n      DUP1 \t\t\tfunction guess(uint8 n) public...\n      CALLDATASIZE \t\t\tfunction guess(uint8 n) public...\n      SUB \t\t\tfunction guess(uint8 n) public...\n      DUP2 \t\t\tfunction guess(uint8 n) public...\n      ADD \t\t\tfunction guess(uint8 n) public...\n      SWAP1 \t\t\tfunction guess(uint8 n) public...\n      PUSH [tag] 5\t\t\tfunction guess(uint8 n) public...\n      SWAP2 \t\t\tfunction guess(uint8 n) public...\n      SWAP1 \t\t\tfunction guess(uint8 n) public...\n      PUSH [tag] 6\t\t\tfunction guess(uint8 n) public...\n      JUMP \t\t\tfunction guess(uint8 n) public...\n    tag 5\t\t\tfunction guess(uint8 n) public...\n      JUMPDEST \t\t\tfunction guess(uint8 n) public...\n      PUSH [tag] 7\t\t\tfunction guess(uint8 n) public...\n      JUMP \t\t\tfunction guess(uint8 n) public...\n    tag 4\t\t\tfunction guess(uint8 n) public...\n      JUMPDEST \t\t\tfunction guess(uint8 n) public...\n      STOP \t\t\tfunction guess(uint8 n) public...\n    tag 3\t\t\tfunction isComplete() public v...\n      JUMPDEST \t\t\tfunction isComplete() public v...\n      CALLVALUE \t\t\tfunction isComplete() public v...\n      DUP1 \t\t\tfunction isComplete() public v...\n      ISZERO \t\t\tfunction isComplete() public v...\n      PUSH [tag] 8\t\t\tfunction isComplete() public v...\n      JUMPI \t\t\tfunction isComplete() public v...\n      PUSH 0\t\t\tfunction isComplete() public v...\n      PUSH 0\t\t\tfunction isComplete() public v...\n      REVERT \t\t\tfunction isComplete() public v...\n    tag 8\t\t\tfunction isComplete() public v...\n      JUMPDEST \t\t\tfunction isComplete() public v...\n      POP \t\t\tfunction isComplete() public v...\n      PUSH [tag] 9\t\t\tfunction isComplete() public v...\n      PUSH [tag] 10\t\t\tfunction isComplete() public v...\n      JUMP \t\t\tfunction isComplete() public v...\n    tag 9\t\t\tfunction isComplete() public v...\n      JUMPDEST \t\t\tfunction isComplete() public v...\n      PUSH 40\t\t\tfunction isComplete() public v...\n      MLOAD \t\t\tfunction isComplete() public v...\n      PUSH [tag] 11\t\t\tfunction isComplete() public v...\n      SWAP2 \t\t\tfunction isComplete() public v...\n      SWAP1 \t\t\tfunction isComplete() public v...\n      PUSH [tag] 12\t\t\tfunction isComplete() public v...\n      JUMP \t\t\tfunction isComplete() public v...\n    tag 11\t\t\tfunction isComplete() public v...\n      JUMPDEST \t\t\tfunction isComplete() public v...\n      PUSH 40\t\t\tfunction isComplete() public v...\n      MLOAD \t\t\tfunction isComplete() public v...\n      DUP1 \t\t\tfunction isComplete() public v...\n      SWAP2 \t\t\tfunction isComplete() public v...\n      SUB \t\t\tfunction isComplete() public v...\n      SWAP1 \t\t\tfunction isComplete() public v...\n      RETURN \t\t\tfunction isComplete() public v...\n    tag 7\t\t\tfunction guess(uint8 n) public...\n      JUMPDEST \t\t\tfunction guess(uint8 n) public...\n      PUSH 0\t\t\tanswerHash\n      SLOAD \t\t\tanswerHash\n      DUP2 \t\t\tn\n      PUSH 40\t\t\tabi.encodePacked(n)\n      MLOAD \t\t\tabi.encodePacked(n)\n      PUSH 20\t\t\tabi.encodePacked(n)\n      ADD \t\t\tabi.encodePacked(n)\n      PUSH [tag] 14\t\t\tabi.encodePacked(n)\n      SWAP2 \t\t\tabi.encodePacked(n)\n      SWAP1 \t\t\tabi.encodePacked(n)\n      PUSH [tag] 15\t\t\tabi.encodePacked(n)\n      JUMP \t\t\tabi.encodePacked(n)\n    tag 14\t\t\tabi.encodePacked(n)\n      JUMPDEST \t\t\tabi.encodePacked(n)\n      PUSH 40\t\t\tabi.encodePacked(n)\n      MLOAD \t\t\tabi.encodePacked(n)\n      PUSH 20\t\t\tabi.encodePacked(n)\n      DUP2 \t\t\tabi.encodePacked(n)\n      DUP4 \t\t\tabi.encodePacked(n)\n      SUB \t\t\tabi.encodePacked(n)\n      SUB \t\t\tabi.encodePacked(n)\n      DUP2 \t\t\tabi.encodePacked(n)\n      MSTORE \t\t\tabi.encodePacked(n)\n      SWAP1 \t\t\tabi.encodePacked(n)\n      PUSH 40\t\t\tabi.encodePacked(n)\n      MSTORE \t\t\tabi.encodePacked(n)\n      DUP1 \t\t\tkeccak256(abi.encodePacked(n))\n      MLOAD \t\t\tkeccak256(abi.encodePacked(n))\n      SWAP1 \t\t\tkeccak256(abi.encodePacked(n))\n      PUSH 20\t\t\tkeccak256(abi.encodePacked(n))\n      ADD \t\t\tkeccak256(abi.encodePacked(n))\n      KECCAK256 \t\t\tkeccak256(abi.encodePacked(n))\n      SUB \t\t\tkeccak256(abi.encodePacked(n))...\n      PUSH [tag] 16\t\t\tif (keccak256(abi.encodePacked...\n      JUMPI \t\t\tif (keccak256(abi.encodePacked...\n      PUSH 1\t\t\ttrue\n      DUP1 \t\t\tcompleted\n      PUSH 0\t\t\tcompleted\n      PUSH 100\t\t\tcompleted=true\n      EXP \t\t\tcompleted=true\n      DUP2 \t\t\tcompleted=true\n      SLOAD \t\t\tcompleted=true\n      DUP2 \t\t\tcompleted=true\n      PUSH FF\t\t\tcompleted=true\n      MUL \t\t\tcompleted=true\n      NOT \t\t\tcompleted=true\n      AND \t\t\tcompleted=true\n      SWAP1 \t\t\tcompleted=true\n      DUP4 \t\t\tcompleted=true\n      ISZERO \t\t\tcompleted=true\n      ISZERO \t\t\tcompleted=true\n      MUL \t\t\tcompleted=true\n      OR \t\t\tcompleted=true\n      SWAP1 \t\t\tcompleted=true\n      SSTORE \t\t\tcompleted=true\n      POP \t\t\tcompleted=true\n    tag 16\t\t\tif (keccak256(abi.encodePacked...\n      JUMPDEST \t\t\tif (keccak256(abi.encodePacked...\n      POP \t\t\tfunction guess(uint8 n) public...\n      JUMP \t\t\tfunction guess(uint8 n) public...\n    tag 10\t\t\tfunction isComplete() public v...\n      JUMPDEST \t\t\tfunction isComplete() public v...\n      PUSH 0\t\t\tbool\n      PUSH 1\t\t\tcompleted\n      PUSH 0\t\t\tcompleted\n      SWAP1 \t\t\tcompleted\n      SLOAD \t\t\tcompleted\n      SWAP1 \t\t\tcompleted\n      PUSH 100\t\t\tcompleted\n      EXP \t\t\tcompleted\n      SWAP1 \t\t\tcompleted\n      DIV \t\t\tcompleted\n      PUSH FF\t\t\tcompleted\n      AND \t\t\tcompleted\n      SWAP1 \t\t\treturn completed\n      POP \t\t\treturn completed\n      SWAP1 \t\t\tfunction isComplete() public v...\n      JUMP \t\t\tfunction isComplete() public v...\n    tag 19\t\t\tllenge {\\n    bytes32 answerHa...\n      JUMPDEST \t\t\tllenge {\\n    bytes32 answerHa...\n      PUSH 0\t\t\tl\n      PUSH 0\t\t\tb\n      REVERT \t\t\t5;\\n    bool \n    tag 21\t\t\t) public payable {\\n\\n        ...\n      JUMPDEST \t\t\t) public payable {\\n\\n        ...\n      PUSH 0\t\t\tcak256(\n      PUSH FF\t\t\th) {\n      DUP3 \t\t\tswerH\n      AND \t\t\t= answerHash) {\\n\n      SWAP1 \t\t\tacked(n)) == answerHash) {\\n\n      POP \t\t\tacked(n)) == answerHash) {\\n\n      SWAP2 \t\t\t) public payable {\\n\\n        ...\n      SWAP1 \t\t\t) public payable {\\n\\n        ...\n      POP \t\t\t) public payable {\\n\\n        ...\n      JUMP \t\t\t) public payable {\\n\\n        ...\n    tag 22\t\t\tcompleted=true;\\n        }\\n  ...\n      JUMPDEST \t\t\tcompleted=true;\\n        }\\n  ...\n      PUSH [tag] 35\t\t\t\n      DUP2 \t\t\t\n      PUSH [tag] 21\t\t\t\n      JUMP \t\t\t\n    tag 35\t\t\t\n      JUMPDEST \t\t\t\n      DUP2 \t\t\t\n      EQ \t\t\t\n      PUSH [tag] 36\t\t\t\n      JUMPI \t\t\t\n      PUSH 0\t\t\t\n      PUSH 0\t\t\t\n      REVERT \t\t\t\n    tag 36\t\t\t\n      JUMPDEST \t\t\t\n      POP \t\t\tcompleted=true;\\n        }\\n  ...\n      JUMP \t\t\tcompleted=true;\\n        }\\n  ...\n    tag 23\t\t\t\n      JUMPDEST \t\t\t\n      PUSH 0\t\t\t\n      DUP2 \t\t\t\n      CALLDATALOAD \t\t\t\n      SWAP1 \t\t\t\n      POP \t\t\t\n      PUSH [tag] 38\t\t\t\n      DUP2 \t\t\t\n      PUSH [tag] 22\t\t\t\n      JUMP \t\t\t\n    tag 38\t\t\t\n      JUMPDEST \t\t\t\n      SWAP3 \t\t\t\n      SWAP2 \t\t\t\n      POP \t\t\t\n      POP \t\t\t\n      JUMP \t\t\t\n    tag 6\t\t\t\n      JUMPDEST \t\t\t\n      PUSH 0\t\t\t\n      PUSH 20\t\t\t\n      DUP3 \t\t\t\n      DUP5 \t\t\t\n      SUB \t\t\t\n      SLT \t\t\t\n      ISZERO \t\t\t\n      PUSH [tag] 40\t\t\t\n      JUMPI \t\t\t\n      PUSH [tag] 41\t\t\t\n      PUSH [tag] 19\t\t\t\n      JUMP \t\t\t\n    tag 41\t\t\t\n      JUMPDEST \t\t\t\n    tag 40\t\t\t\n      JUMPDEST \t\t\t\n      PUSH 0\t\t\t\n      PUSH [tag] 42\t\t\t\n      DUP5 \t\t\t\n      DUP3 \t\t\t\n      DUP6 \t\t\t\n      ADD \t\t\t\n      PUSH [tag] 23\t\t\t\n      JUMP \t\t\t\n    tag 42\t\t\t\n      JUMPDEST \t\t\t\n      SWAP2 \t\t\t\n      POP \t\t\t\n      POP \t\t\t\n      SWAP3 \t\t\t\n      SWAP2 \t\t\t\n      POP \t\t\t\n      POP \t\t\t\n      JUMP \t\t\t\n    tag 24\t\t\t\n      JUMPDEST \t\t\t\n      PUSH 0\t\t\t\n      DUP2 \t\t\t\n      ISZERO \t\t\t\n      ISZERO \t\t\t\n      SWAP1 \t\t\t\n      POP \t\t\t\n      SWAP2 \t\t\t\n      SWAP1 \t\t\t\n      POP \t\t\t\n      JUMP \t\t\t\n    tag 25\t\t\t\n      JUMPDEST \t\t\t\n      PUSH [tag] 45\t\t\t\n      DUP2 \t\t\t\n      PUSH [tag] 24\t\t\t\n      JUMP \t\t\t\n    tag 45\t\t\t\n      JUMPDEST \t\t\t\n      DUP3 \t\t\t\n      MSTORE \t\t\t\n      POP \t\t\t\n      POP \t\t\t\n      JUMP \t\t\t\n    tag 12\t\t\t\n      JUMPDEST \t\t\t\n      PUSH 0\t\t\t\n      PUSH 20\t\t\t\n      DUP3 \t\t\t\n      ADD \t\t\t\n      SWAP1 \t\t\t\n      POP \t\t\t\n      PUSH [tag] 47\t\t\t\n      PUSH 0\t\t\t\n      DUP4 \t\t\t\n      ADD \t\t\t\n      DUP5 \t\t\t\n      PUSH [tag] 25\t\t\t\n      JUMP \t\t\t\n    tag 47\t\t\t\n      JUMPDEST \t\t\t\n      SWAP3 \t\t\t\n      SWAP2 \t\t\t\n      POP \t\t\t\n      POP \t\t\t\n      JUMP \t\t\t\n    tag 26\t\t\t\n      JUMPDEST \t\t\t\n      PUSH 0\t\t\t\n      DUP2 \t\t\t\n      PUSH F8\t\t\t\n      SHL \t\t\t\n      SWAP1 \t\t\t\n      POP \t\t\t\n      SWAP2 \t\t\t\n      SWAP1 \t\t\t\n      POP \t\t\t\n      JUMP \t\t\t\n    tag 27\t\t\t\n      JUMPDEST \t\t\t\n      PUSH 0\t\t\t\n      PUSH [tag] 50\t\t\t\n      DUP3 \t\t\t\n      PUSH [tag] 26\t\t\t\n      JUMP \t\t\t\n    tag 50\t\t\t\n      JUMPDEST \t\t\t\n      SWAP1 \t\t\t\n      POP \t\t\t\n      SWAP2 \t\t\t\n      SWAP1 \t\t\t\n      POP \t\t\t\n      JUMP \t\t\t\n    tag 28\t\t\t\n      JUMPDEST \t\t\t\n      PUSH [tag] 52\t\t\t\n      PUSH [tag] 53\t\t\t\n      DUP3 \t\t\t\n      PUSH [tag] 21\t\t\t\n      JUMP \t\t\t\n    tag 53\t\t\t\n      JUMPDEST \t\t\t\n      PUSH [tag] 27\t\t\t\n      JUMP \t\t\t\n    tag 52\t\t\t\n      JUMPDEST \t\t\t\n      DUP3 \t\t\t\n      MSTORE \t\t\t\n      POP \t\t\t\n      POP \t\t\t\n      JUMP \t\t\t\n    tag 15\t\t\t\n      JUMPDEST \t\t\t\n      PUSH 0\t\t\t\n      PUSH [tag] 55\t\t\t\n      DUP3 \t\t\t\n      DUP5 \t\t\t\n      PUSH [tag] 28\t\t\t\n      JUMP \t\t\t\n    tag 55\t\t\t\n      JUMPDEST \t\t\t\n      PUSH 1\t\t\t\n      DUP3 \t\t\t\n      ADD \t\t\t\n      SWAP2 \t\t\t\n      POP \t\t\t\n      DUP2 \t\t\t\n      SWAP1 \t\t\t\n      POP \t\t\t\n      SWAP3 \t\t\t\n      SWAP2 \t\t\t\n      POP \t\t\t\n      POP \t\t\t\n      JUMP \t\t\t\n    .data\n"
}