{
	"compilerInput": "{\"language\":\"Solidity\",\"sources\":{\"test.sol\":{\"content\":\"//SPDX-License-Identifier: MIT\\npragma solidity ^0.8.21;\\n\\ncontract PredictTheFutureChallenge {\\n    address guesser;\\n    uint8 guess;\\n    uint256 settlementBlockNumber;\\n    bool iscomplete;\\n\\n    function isComplete() public view returns (bool) {\\n        return iscomplete;\\n    }\\n\\n    function lockInGuess(uint8 n) public payable {\\n        guesser = msg.sender;\\n        guess = n;\\n        settlementBlockNumber = block.number + 1;\\n    }\\n\\n    function settle() public {\\n        require(msg.sender == guesser);\\n        require(block.number > settlementBlockNumber);\\n\\n        uint8 answer = uint8(uint256(keccak256(abi.encodePacked(blockhash(block.number - 1), block.timestamp)))) % 10;\\n        if (answer==guess){\\n            iscomplete=true;\\n        }\\n    }\\n}\"}},\"settings\":{\"optimizer\":{\"enabled\":false,\"runs\":200},\"outputSelection\":{\"*\":{\"\":[\"ast\"],\"*\":[\"abi\",\"metadata\",\"devdoc\",\"userdoc\",\"storageLayout\",\"evm.legacyAssembly\",\"evm.bytecode\",\"evm.deployedBytecode\",\"evm.methodIdentifiers\",\"evm.gasEstimates\",\"evm.assembly\"]}},\"remappings\":[]}}",
	"name": "PredictTheFutureChallenge",
	"bytecode": {
		"linkReferences": {},
		"object": "6080604052348015600e575f5ffd5b506104368061001c5f395ff3fe608060405260043610610033575f3560e01c806311da60b4146100375780632c0e00541461004d578063b2fa1c9e14610069575b5f5ffd5b348015610042575f5ffd5b5061004b610093565b005b61006760048036038101906100629190610235565b610177565b005b348015610074575f5ffd5b5061007d6101e6565b60405161008a919061027a565b60405180910390f35b5f5f9054906101000a900473ffffffffffffffffffffffffffffffffffffffff1673ffffffffffffffffffffffffffffffffffffffff163373ffffffffffffffffffffffffffffffffffffffff16146100ea575f5ffd5b60015443116100f7575f5ffd5b5f600a60014361010791906102c9565b404260405160200161011a929190610345565b604051602081830303815290604052805190602001205f1c61013c919061039d565b90505f60149054906101000a900460ff1660ff168160ff160361017457600160025f6101000a81548160ff0219169083151502179055505b50565b335f5f6101000a81548173ffffffffffffffffffffffffffffffffffffffff021916908373ffffffffffffffffffffffffffffffffffffffff160217905550805f60146101000a81548160ff021916908360ff1602179055506001436101dd91906103cd565b60018190555050565b5f60025f9054906101000a900460ff16905090565b5f5ffd5b5f60ff82169050919050565b610214816101ff565b811461021e575f5ffd5b50565b5f8135905061022f8161020b565b92915050565b5f6020828403121561024a576102496101fb565b5b5f61025784828501610221565b91505092915050565b5f8115159050919050565b61027481610260565b82525050565b5f60208201905061028d5f83018461026b565b92915050565b5f819050919050565b7f4e487b71000000000000000000000000000000000000000000000000000000005f52601160045260245ffd5b5f6102d382610293565b91506102de83610293565b92508282039050818111156102f6576102f561029c565b5b92915050565b5f819050919050565b5f819050919050565b61031f61031a826102fc565b610305565b82525050565b5f819050919050565b61033f61033a82610293565b610325565b82525050565b5f610350828561030e565b602082019150610360828461032e565b6020820191508190509392505050565b7f4e487b71000000000000000000000000000000000000000000000000000000005f52601260045260245ffd5b5f6103a7826101ff565b91506103b2836101ff565b9250826103c2576103c1610370565b5b828206905092915050565b5f6103d782610293565b91506103e283610293565b92508282019050808211156103fa576103f961029c565b5b9291505056fea26469706673582212207585cb9eef8174c6190421efa2889a0cede5ec3bea75ea0c4a1bca063d08ef6d64736f6c63430008210033",
		"opcodes": "PUSH1 0x80 PUSH1 0x40 MSTORE CALLVALUE DUP1 ISZERO PUSH1 0xE JUMPI PUSH0 PUSH0 REVERT JUMPDEST POP PUSH2 0x436 DUP1 PUSH2 0x1C PUSH0 CODECOPY PUSH0 RETURN INVALID PUSH1 0x80 PUSH1 0x40 MSTORE PUSH1 0x4 CALLDATASIZE LT PUSH2 0x33 JUMPI PUSH0 CALLDATALOAD PUSH1 0xE0 SHR DUP1 PUSH4 0x11DA60B4 EQ PUSH2 0x37 JUMPI DUP1 PUSH4 0x2C0E0054 EQ PUSH2 0x4D JUMPI DUP1 PUSH4 0xB2FA1C9E EQ PUSH2 0x69 JUMPI JUMPDEST PUSH0 PUSH0 REVERT JUMPDEST CALLVALUE DUP1 ISZERO PUSH2 0x42 JUMPI PUSH0 PUSH0 REVERT JUMPDEST POP PUSH2 0x4B PUSH2 0x93 JUMP JUMPDEST STOP JUMPDEST PUSH2 0x67 PUSH1 0x4 DUP1 CALLDATASIZE SUB DUP2 ADD SWAP1 PUSH2 0x62 SWAP2 SWAP1 PUSH2 0x235 JUMP JUMPDEST PUSH2 0x177 JUMP JUMPDEST STOP JUMPDEST CALLVALUE DUP1 ISZERO PUSH2 0x74 JUMPI PUSH0 PUSH0 REVERT JUMPDEST POP PUSH2 0x7D PUSH2 0x1E6 JUMP JUMPDEST PUSH1 0x40 MLOAD PUSH2 0x8A SWAP2 SWAP1 PUSH2 0x27A JUMP JUMPDEST PUSH1 0x40 MLOAD DUP1 SWAP2 SUB SWAP1 RETURN JUMPDEST PUSH0 PUSH0 SWAP1 SLOAD SWAP1 PUSH2 0x100 EXP SWAP1 DIV PUSH20 0xFFFFFFFFFFFFFFFFFFFFFFFFFFFFFFFFFFFFFFFF AND PUSH20 0xFFFFFFFFFFFFFFFFFFFFFFFFFFFFFFFFFFFFFFFF AND CALLER PUSH20 0xFFFFFFFFFFFFFFFFFFFFFFFFFFFFFFFFFFFFFFFF AND EQ PUSH2 0xEA JUMPI PUSH0 PUSH0 REVERT JUMPDEST PUSH1 0x1 SLOAD NUMBER GT PUSH2 0xF7 JUMPI PUSH0 PUSH0 REVERT JUMPDEST PUSH0 PUSH1 0xA PUSH1 0x1 NUMBER PUSH2 0x107 SWAP2 SWAP1 PUSH2 0x2C9 JUMP JUMPDEST BLOCKHASH TIMESTAMP PUSH1 0x40 MLOAD PUSH1 0x20 ADD PUSH2 0x11A SWAP3 SWAP2 SWAP1 PUSH2 0x345 JUMP JUMPDEST PUSH1 0x40 MLOAD PUSH1 0x20 DUP2 DUP4 SUB SUB DUP2 MSTORE SWAP1 PUSH1 0x40 MSTORE DUP1 MLOAD SWAP1 PUSH1 0x20 ADD KECCAK256 PUSH0 SHR PUSH2 0x13C SWAP2 SWAP1 PUSH2 0x39D JUMP JUMPDEST SWAP1 POP PUSH0 PUSH1 0x14 SWAP1 SLOAD SWAP1 PUSH2 0x100 EXP SWAP1 DIV PUSH1 0xFF AND PUSH1 0xFF AND DUP2 PUSH1 0xFF AND SUB PUSH2 0x174 JUMPI PUSH1 0x1 PUSH1 0x2 PUSH0 PUSH2 0x100 EXP DUP2 SLOAD DUP2 PUSH1 0xFF MUL NOT AND SWAP1 DUP4 ISZERO ISZERO MUL OR SWAP1 SSTORE POP JUMPDEST POP JUMP JUMPDEST CALLER PUSH0 PUSH0 PUSH2 0x100 EXP DUP2 SLOAD DUP2 PUSH20 0xFFFFFFFFFFFFFFFFFFFFFFFFFFFFFFFFFFFFFFFF MUL NOT AND SWAP1 DUP4 PUSH20 0xFFFFFFFFFFFFFFFFFFFFFFFFFFFFFFFFFFFFFFFF AND MUL OR SWAP1 SSTORE POP DUP1 PUSH0 PUSH1 0x14 PUSH2 0x100 EXP DUP2 SLOAD DUP2 PUSH1 0xFF MUL NOT AND SWAP1 DUP4 PUSH1 0xFF AND MUL OR SWAP1 SSTORE POP PUSH1 0x1 NUMBER PUSH2 0x1DD SWAP2 SWAP1 PUSH2 0x3CD JUMP JUMPDEST PUSH1 0x1 DUP2 SWAP1 SSTORE POP POP JUMP JUMPDEST PUSH0 PUSH1 0x2 PUSH0 SWAP1 SLOAD SWAP1 PUSH2 0x100 EXP SWAP1 DIV PUSH1 0xFF AND SWAP1 POP SWAP1 JUMP JUMPDEST PUSH0 PUSH0 REVERT JUMPDEST PUSH0 PUSH1 0xFF DUP3 AND SWAP1 POP SWAP2 SWAP1 POP JUMP JUMPDEST PUSH2 0x214 DUP2 PUSH2 0x1FF JUMP JUMPDEST DUP2 EQ PUSH2 0x21E JUMPI PUSH0 PUSH0 REVERT JUMPDEST POP JUMP JUMPDEST PUSH0 DUP2 CALLDATALOAD SWAP1 POP PUSH2 0x22F DUP2 PUSH2 0x20B JUMP JUMPDEST SWAP3 SWAP2 POP POP JUMP JUMPDEST PUSH0 PUSH1 0x20 DUP3 DUP5 SUB SLT ISZERO PUSH2 0x24A JUMPI PUSH2 0x249 PUSH2 0x1FB JUMP JUMPDEST JUMPDEST PUSH0 PUSH2 0x257 DUP5 DUP3 DUP6 ADD PUSH2 0x221 JUMP JUMPDEST SWAP2 POP POP SWAP3 SWAP2 POP POP JUMP JUMPDEST PUSH0 DUP2 ISZERO ISZERO SWAP1 POP SWAP2 SWAP1 POP JUMP JUMPDEST PUSH2 0x274 DUP2 PUSH2 0x260 JUMP JUMPDEST DUP3 MSTORE POP POP JUMP JUMPDEST PUSH0 PUSH1 0x20 DUP3 ADD SWAP1 POP PUSH2 0x28D PUSH0 DUP4 ADD DUP5 PUSH2 0x26B JUMP JUMPDEST SWAP3 SWAP2 POP POP JUMP JUMPDEST PUSH0 DUP2 SWAP1 POP SWAP2 SWAP1 POP JUMP JUMPDEST PUSH32 0x4E487B7100000000000000000000000000000000000000000000000000000000 PUSH0 MSTORE PUSH1 0x11 PUSH1 0x4 MSTORE PUSH1 0x24 PUSH0 REVERT JUMPDEST PUSH0 PUSH2 0x2D3 DUP3 PUSH2 0x293 JUMP JUMPDEST SWAP2 POP PUSH2 0x2DE DUP4 PUSH2 0x293 JUMP JUMPDEST SWAP3 POP DUP3 DUP3 SUB SWAP1 POP DUP2 DUP2 GT ISZERO PUSH2 0x2F6 JUMPI PUSH2 0x2F5 PUSH2 0x29C JUMP JUMPDEST JUMPDEST SWAP3 SWAP2 POP POP JUMP JUMPDEST PUSH0 DUP2 SWAP1 POP SWAP2 SWAP1 POP JUMP JUMPDEST PUSH0 DUP2 SWAP1 POP SWAP2 SWAP1 POP JUMP JUMPDEST PUSH2 0x31F PUSH2 0x31A DUP3 PUSH2 0x2FC JUMP JUMPDEST PUSH2 0x305 JUMP JUMPDEST DUP3 MSTORE POP POP JUMP JUMPDEST PUSH0 DUP2 SWAP1 POP SWAP2 SWAP1 POP JUMP JUMPDEST PUSH2 0x33F PUSH2 0x33A DUP3 PUSH2 0x293 JUMP JUMPDEST PUSH2 0x325 JUMP JUMPDEST DUP3 MSTORE POP POP JUMP JUMPDEST PUSH0 PUSH2 0x350 DUP3 DUP6 PUSH2 0x30E JUMP JUMPDEST PUSH1 0x20 DUP3 ADD SWAP2 POP PUSH2 0x360 DUP3 DUP5 PUSH2 0x32E JUMP JUMPDEST PUSH1 0x20 DUP3 ADD SWAP2 POP DUP2 SWAP1 POP SWAP4 SWAP3 POP POP POP JUMP JUMPDEST PUSH32 0x4E487B7100000000000000000000000000000000000000000000000000000000 PUSH0 MSTORE PUSH1 0x12 PUSH1 0x4 MSTORE PUSH1 0x24 PUSH0 REVERT JUMPDEST PUSH0 PUSH2 0x3A7 DUP3 PUSH2 0x1FF JUMP JUMPDEST SWAP2 POP PUSH2 0x3B2 DUP4 PUSH2 0x1FF JUMP JUMPDEST SWAP3 POP DUP3 PUSH2 0x3C2 JUMPI PUSH2 0x3C1 PUSH2 0x370 JUMP JUMPDEST JUMPDEST DUP3 DUP3 MOD SWAP1 POP SWAP3 SWAP2 POP POP JUMP JUMPDEST PUSH0 PUSH2 0x3D7 DUP3 PUSH2 0x293 JUMP JUMPDEST SWAP2 POP PUSH2 0x3E2 DUP4 PUSH2 0x293 JUMP JUMPDEST SWAP3 POP DUP3 DUP3 ADD SWAP1 POP DUP1 DUP3 GT ISZERO PUSH2 0x3FA JUMPI PUSH2 0x3F9 PUSH2 0x29C JUMP JUMPDEST JUMPDEST SWAP3 SWAP2 POP POP JUMP INVALID LOG2 PUSH5 0x6970667358 0x22 SLT KECCAK256 PUSH22 0x85CB9EEF8174C6190421EFA2889A0CEDE5EC3BEA75EA 0xC BLOBBASEFEE SHL 0xCA MOD RETURNDATASIZE ADDMOD 0xEF PUSH14 0x64736F6C63430008210033000000 "
	},
	"abi": [
		{
			"inputs": [],
			"name": "isComplete",
			"outputs": [
				{
					"internalType": "bool",
					"name": "",
					"type": "bool"
				}
			],
			"stateMutability": "view",
			"type": "function"
		},
		{
			"inputs": [
				{
					"internalType": "uint8",
					"name": "n",
					"type": "uint8"
				}
			],
			"name": "lockInGuess",
			"outputs": [],
			"stateMutability": "payable",
			"type": "function"
		},
		{
			"inputs": [],
			"name": "settle",
			"outputs": [],
			"stateMutability": "nonpayable",
			"type": "function"
		}
	],
	"storageLayout": {
		"storage": [
			{
				"astId": 3,
				"contract": "test.sol:PredictTheFutureChallenge",
				"label": "guesser",
				"offset": 0,
				"slot": "0",
				"type": "t_address"
			},
			{
				"astId": 5,
				"contract": "test.sol:PredictTheFutureChallenge",
				"label": "guess",
				"offset": 20,
				"slot": "0",
				"type": "t_uint8"
			},
			{
				"astId": 7,
				"contract": "test.sol:PredictTheFutureChallenge",
				"label": "settlementBlockNumber",
				"offset": 0,
				"slot": "1",
				"type": "t_uint256"
			},
			{
				"astId": 9,
				"contract": "test.sol:PredictTheFutureChallenge",
				"label": "iscomplete",
				"offset": 0,
				"slot": "2",
				"type": "t_bool"
			}
		],
		"types": {
			"t_address": {
				"encoding": "inplace",
				"label": "address",
				"numberOfBytes": "20"
			},
			"t_bool": {
				"encoding": "inplace",
				"label": "bool",
				"numberOfBytes": "1"
			},
			"t_uint256": {
				"encoding": "inplace",
				"label": "uint256",
				"numberOfBytes": "32"
			},
			"t_uint8": {
				"encoding": "inplace",
				"label": "uint8",
				"numberOfBytes": "1"
			}
		}
	},
	"web3Deploy": "var predictthefuturechallengeContract = new web3.eth.Contract([{\"inputs\":[],\"name\":\"isComplete\",\"outputs\":[{\"internalType\":\"bool\",\"name\":\"\",\"type\":\"bool\"}],\"stateMutability\":\"view\",\"type\":\"function\"},{\"inputs\":[{\"internalType\":\"uint8\",\"name\":\"n\",\"type\":\"uint8\"}],\"name\":\"lockInGuess\",\"outputs\":[],\"stateMutability\":\"payable\",\"type\":\"function\"},{\"inputs\":[],\"name\":\"settle\",\"outputs\":[],\"stateMutability\":\"nonpayable\",\"type\":\"function\"}]);\nvar predictthefuturechallenge = predictthefuturechallengeContract.deploy({\n     data: '0x6080604052348015600e575f5ffd5b506104368061001c5f395ff3fe608060405260043610610033575f3560e01c806311da60b4146100375780632c0e00541461004d578063b2fa1c9e14610069575b5f5ffd5b348015610042575f5ffd5b5061004b610093565b005b61006760048036038101906100629190610235565b610177565b005b348015610074575f5ffd5b5061007d6101e6565b60405161008a919061027a565b60405180910390f35b5f5f9054906101000a900473ffffffffffffffffffffffffffffffffffffffff1673ffffffffffffffffffffffffffffffffffffffff163373ffffffffffffffffffffffffffffffffffffffff16146100ea575f5ffd5b60015443116100f7575f5ffd5b5f600a60014361010791906102c9565b404260405160200161011a929190610345565b604051602081830303815290604052805190602001205f1c61013c919061039d565b90505f60149054906101000a900460ff1660ff168160ff160361017457600160025f6101000a81548160ff0219169083151502179055505b50565b335f5f6101000a81548173ffffffffffffffffffffffffffffffffffffffff021916908373ffffffffffffffffffffffffffffffffffffffff160217905550805f60146101000a81548160ff021916908360ff1602179055506001436101dd91906103cd565b60018190555050565b5f60025f9054906101000a900460ff16905090565b5f5ffd5b5f60ff82169050919050565b610214816101ff565b811461021e575f5ffd5b50565b5f8135905061022f8161020b565b92915050565b5f6020828403121561024a576102496101fb565b5b5f61025784828501610221565b91505092915050565b5f8115159050919050565b61027481610260565b82525050565b5f60208201905061028d5f83018461026b565b92915050565b5f819050919050565b7f4e487b71000000000000000000000000000000000000000000000000000000005f52601160045260245ffd5b5f6102d382610293565b91506102de83610293565b92508282039050818111156102f6576102f561029c565b5b92915050565b5f819050919050565b5f819050919050565b61031f61031a826102fc565b610305565b82525050565b5f819050919050565b61033f61033a82610293565b610325565b82525050565b5f610350828561030e565b602082019150610360828461032e565b6020820191508190509392505050565b7f4e487b71000000000000000000000000000000000000000000000000000000005f52601260045260245ffd5b5f6103a7826101ff565b91506103b2836101ff565b9250826103c2576103c1610370565b5b828206905092915050565b5f6103d782610293565b91506103e283610293565b92508282019050808211156103fa576103f961029c565b5b9291505056fea26469706673582212207585cb9eef8174c6190421efa2889a0cede5ec3bea75ea0c4a1bca063d08ef6d64736f6c63430008210033', \n     arguments: [\n     ]\n}).send({\n     from: web3.eth.accounts[0], \n     gas: '4700000'\n   }, function (e, contract){\n    console.log(e, contract);\n    if (typeof contract.address !== 'undefined') {\n         console.log('Contract mined! address: ' + contract.address + ' transactionHash: ' + contract.transactionHash);\n    }\n })",
	"functionHashes": {
		"b2fa1c9e": "isComplete()",
		"2c0e0054": "lockInGuess(uint8)",
		"11da60b4": "settle()"
	},
	"gasEstimates": {
		"Creation": {
			"codeDepositCost": "215600",
			"executionCost": "255",
			"totalCost": "215855"
		},
		"External": {
			"isComplete()": "2495",
			"lockInGuess(uint8)": "infinite",
			"settle()": "infinite"
		}
	},
	"devdoc": {
		"kind": "dev",
		"methods": {},
		"version": 1
	},
	"userdoc": {
		"kind": "user",
		"methods": {},
		"version": 1
	},
	"Runtime Bytecode": {
		"immutableReferences": {},
		"linkReferences": {},
		"object": "608060405260043610610033575f3560e01c806311da60b4146100375780632c0e00541461004d578063b2fa1c9e14610069575b5f5ffd5b348015610042575f5ffd5b5061004b610093565b005b61006760048036038101906100629190610235565b610177565b005b348015610074575f5ffd5b5061007d6101e6565b60405161008a919061027a565b60405180910390f35b5f5f9054906101000a900473ffffffffffffffffffffffffffffffffffffffff1673ffffffffffffffffffffffffffffffffffffffff163373ffffffffffffffffffffffffffffffffffffffff16146100ea575f5ffd5b60015443116100f7575f5ffd5b5f600a60014361010791906102c9565b404260405160200161011a929190610345565b604051602081830303815290604052805190602001205f1c61013c919061039d565b90505f60149054906101000a900460ff1660ff168160ff160361017457600160025f6101000a81548160ff0219169083151502179055505b50565b335f5f6101000a81548173ffffffffffffffffffffffffffffffffffffffff021916908373ffffffffffffffffffffffffffffffffffffffff160217905550805f60146101000a81548160ff021916908360ff1602179055506001436101dd91906103cd565b60018190555050565b5f60025f9054906101000a900460ff16905090565b5f5ffd5b5f60ff82169050919050565b610214816101ff565b811461021e575f5ffd5b50565b5f8135905061022f8161020b565b92915050565b5f6020828403121561024a576102496101fb565b5b5f61025784828501610221565b91505092915050565b5f8115159050919050565b61027481610260565b82525050565b5f60208201905061028d5f83018461026b565b92915050565b5f819050919050565b7f4e487b71000000000000000000000000000000000000000000000000000000005f52601160045260245ffd5b5f6102d382610293565b91506102de83610293565b92508282039050818111156102f6576102f561029c565b5b92915050565b5f819050919050565b5f819050919050565b61031f61031a826102fc565b610305565b82525050565b5f819050919050565b61033f61033a82610293565b610325565b82525050565b5f610350828561030e565b602082019150610360828461032e565b6020820191508190509392505050565b7f4e487b71000000000000000000000000000000000000000000000000000000005f52601260045260245ffd5b5f6103a7826101ff565b91506103b2836101ff565b9250826103c2576103c1610370565b5b828206905092915050565b5f6103d782610293565b91506103e283610293565b92508282019050808211156103fa576103f961029c565b5b9291505056fea26469706673582212207585cb9eef8174c6190421efa2889a0cede5ec3bea75ea0c4a1bca063d08ef6d64736f6c63430008210033",
		"opcodes": "PUSH1 0x80 PUSH1 0x40 MSTORE PUSH1 0x4 CALLDATASIZE LT PUSH2 0x33 JUMPI PUSH0 CALLDATALOAD PUSH1 0xE0 SHR DUP1 PUSH4 0x11DA60B4 EQ PUSH2 0x37 JUMPI DUP1 PUSH4 0x2C0E0054 EQ PUSH2 0x4D JUMPI DUP1 PUSH4 0xB2FA1C9E EQ PUSH2 0x69 JUMPI JUMPDEST PUSH0 PUSH0 REVERT JUMPDEST CALLVALUE DUP1 ISZERO PUSH2 0x42 JUMPI PUSH0 PUSH0 REVERT JUMPDEST POP PUSH2 0x4B PUSH2 0x93 JUMP JUMPDEST STOP JUMPDEST PUSH2 0x67 PUSH1 0x4 DUP1 CALLDATASIZE SUB DUP2 ADD SWAP1 PUSH2 0x62 SWAP2 SWAP1 PUSH2 0x235 JUMP JUMPDEST PUSH2 0x177 JUMP JUMPDEST STOP JUMPDEST CALLVALUE DUP1 ISZERO PUSH2 0x74 JUMPI PUSH0 PUSH0 REVERT JUMPDEST POP PUSH2 0x7D PUSH2 0x1E6 JUMP JUMPDEST PUSH1 0x40 MLOAD PUSH2 0x8A SWAP2 SWAP1 PUSH2 0x27A JUMP JUMPDEST PUSH1 0x40 MLOAD DUP1 SWAP2 SUB SWAP1 RETURN JUMPDEST PUSH0 PUSH0 SWAP1 SLOAD SWAP1 PUSH2 0x100 EXP SWAP1 DIV PUSH20 0xFFFFFFFFFFFFFFFFFFFFFFFFFFFFFFFFFFFFFFFF AND PUSH20 0xFFFFFFFFFFFFFFFFFFFFFFFFFFFFFFFFFFFFFFFF AND CALLER PUSH20 0xFFFFFFFFFFFFFFFFFFFFFFFFFFFFFFFFFFFFFFFF AND EQ PUSH2 0xEA JUMPI PUSH0 PUSH0 REVERT JUMPDEST PUSH1 0x1 SLOAD NUMBER GT PUSH2 0xF7 JUMPI PUSH0 PUSH0 REVERT JUMPDEST PUSH0 PUSH1 0xA PUSH1 0x1 NUMBER PUSH2 0x107 SWAP2 SWAP1 PUSH2 0x2C9 JUMP JUMPDEST BLOCKHASH TIMESTAMP PUSH1 0x40 MLOAD PUSH1 0x20 ADD PUSH2 0x11A SWAP3 SWAP2 SWAP1 PUSH2 0x345 JUMP JUMPDEST PUSH1 0x40 MLOAD PUSH1 0x20 DUP2 DUP4 SUB SUB DUP2 MSTORE SWAP1 PUSH1 0x40 MSTORE DUP1 MLOAD SWAP1 PUSH1 0x20 ADD KECCAK256 PUSH0 SHR PUSH2 0x13C SWAP2 SWAP1 PUSH2 0x39D JUMP JUMPDEST SWAP1 POP PUSH0 PUSH1 0x14 SWAP1 SLOAD SWAP1 PUSH2 0x100 EXP SWAP1 DIV PUSH1 0xFF AND PUSH1 0xFF AND DUP2 PUSH1 0xFF AND SUB PUSH2 0x174 JUMPI PUSH1 0x1 PUSH1 0x2 PUSH0 PUSH2 0x100 EXP DUP2 SLOAD DUP2 PUSH1 0xFF MUL NOT AND SWAP1 DUP4 ISZERO ISZERO MUL OR SWAP1 SSTORE POP JUMPDEST POP JUMP JUMPDEST CALLER PUSH0 PUSH0 PUSH2 0x100 EXP DUP2 SLOAD DUP2 PUSH20 0xFFFFFFFFFFFFFFFFFFFFFFFFFFFFFFFFFFFFFFFF MUL NOT AND SWAP1 DUP4 PUSH20 0xFFFFFFFFFFFFFFFFFFFFFFFFFFFFFFFFFFFFFFFF AND MUL OR SWAP1 SSTORE POP DUP1 PUSH0 PUSH1 0x14 PUSH2 0x100 EXP DUP2 SLOAD DUP2 PUSH1 0xFF MUL NOT AND SWAP1 DUP4 PUSH1 0xFF AND MUL OR SWAP1 SSTORE POP PUSH1 0x1 NUMBER PUSH2 0x1DD SWAP2 SWAP1 PUSH2 0x3CD JUMP JUMPDEST PUSH1 0x1 DUP2 SWAP1 SSTORE POP POP JUMP JUMPDEST PUSH0 PUSH1 0x2 PUSH0 SWAP1 SLOAD SWAP1 PUSH2 0x100 EXP SWAP1 DIV PUSH1 0xFF AND SWAP1 POP SWAP1 JUMP JUMPDEST PUSH0 PUSH0 REVERT JUMPDEST PUSH0 PUSH1 0xFF DUP3 AND SWAP1 POP SWAP2 SWAP1 POP JUMP JUMPDEST PUSH2 0x214 DUP2 PUSH2 0x1FF JUMP JUMPDEST DUP2 EQ PUSH2 0x21E JUMPI PUSH0 PUSH0 REVERT JUMPDEST POP JUMP JUMPDEST PUSH0 DUP2 CALLDATALOAD SWAP1 POP PUSH2 0x22F DUP2 PUSH2 0x20B JUMP JUMPDEST SWAP3 SWAP2 POP POP JUMP JUMPDEST PUSH0 PUSH1 0x20 DUP3 DUP5 SUB SLT ISZERO PUSH2 0x24A JUMPI PUSH2 0x249 PUSH2 0x1FB JUMP JUMPDEST JUMPDEST PUSH0 PUSH2 0x257 DUP5 DUP3 DUP6 ADD PUSH2 0x221 JUMP JUMPDEST SWAP2 POP POP SWAP3 SWAP2 POP POP JUMP JUMPDEST PUSH0 DUP2 ISZERO ISZERO SWAP1 POP SWAP2 SWAP1 POP JUMP JUMPDEST PUSH2 0x274 DUP2 PUSH2 0x260 JUMP JUMPDEST DUP3 MSTORE POP POP JUMP JUMPDEST PUSH0 PUSH1 0x20 DUP3 ADD SWAP1 POP PUSH2 0x28D PUSH0 DUP4 ADD DUP5 PUSH2 0x26B JUMP JUMPDEST SWAP3 SWAP2 POP POP JUMP JUMPDEST PUSH0 DUP2 SWAP1 POP SWAP2 SWAP1 POP JUMP JUMPDEST PUSH32 0x4E487B7100000000000000000000000000000000000000000000000000000000 PUSH0 MSTORE PUSH1 0x11 PUSH1 0x4 MSTORE PUSH1 0x24 PUSH0 REVERT JUMPDEST PUSH0 PUSH2 0x2D3 DUP3 PUSH2 0x293 JUMP JUMPDEST SWAP2 POP PUSH2 0x2DE DUP4 PUSH2 0x293 JUMP JUMPDEST SWAP3 POP DUP3 DUP3 SUB SWAP1 POP DUP2 DUP2 GT ISZERO PUSH2 0x2F6 JUMPI PUSH2 0x2F5 PUSH2 0x29C JUMP JUMPDEST JUMPDEST SWAP3 SWAP2 POP POP JUMP JUMPDEST PUSH0 DUP2 SWAP1 POP SWAP2 SWAP1 POP JUMP JUMPDEST PUSH0 DUP2 SWAP1 POP SWAP2 SWAP1 POP JUMP JUMPDEST PUSH2 0x31F PUSH2 0x31A DUP3 PUSH2 0x2FC JUMP JUMPDEST PUSH2 0x305 JUMP JUMPDEST DUP3 MSTORE POP POP JUMP JUMPDEST PUSH0 DUP2 SWAP1 POP SWAP2 SWAP1 POP JUMP JUMPDEST PUSH2 0x33F PUSH2 0x33A DUP3 PUSH2 0x293 JUMP JUMPDEST PUSH2 0x325 JUMP JUMPDEST DUP3 MSTORE POP POP JUMP JUMPDEST PUSH0 PUSH2 0x350 DUP3 DUP6 PUSH2 0x30E JUMP JUMPDEST PUSH1 0x20 DUP3 ADD SWAP2 POP PUSH2 0x360 DUP3 DUP5 PUSH2 0x32E JUMP JUMPDEST PUSH1 0x20 DUP3 ADD SWAP2 POP DUP2 SWAP1 POP SWAP4 SWAP3 POP POP POP JUMP JUMPDEST PUSH32 0x4E487B7100000000000000000000000000000000000000000000000000000000 PUSH0 MSTORE PUSH1 0x12 PUSH1 0x4 MSTORE PUSH1 0x24 PUSH0 REVERT JUMPDEST PUSH0 PUSH2 0x3A7 DUP3 PUSH2 0x1FF JUMP JUMPDEST SWAP2 POP PUSH2 0x3B2 DUP4 PUSH2 0x1FF JUMP JUMPDEST SWAP3 POP DUP3 PUSH2 0x3C2 JUMPI PUSH2 0x3C1 PUSH2 0x370 JUMP JUMPDEST JUMPDEST DUP3 DUP3 MOD SWAP1 POP SWAP3 SWAP2 POP POP JUMP JUMPDEST PUSH0 PUSH2 0x3D7 DUP3 PUSH2 0x293 JUMP JUMPDEST SWAP2 POP PUSH2 0x3E2 DUP4 PUSH2 0x293 JUMP JUMPDEST SWAP3 POP DUP3 DUP3 ADD SWAP1 POP DUP1 DUP3 GT ISZERO PUSH2 0x3FA JUMPI PUSH2 0x3F9 PUSH2 0x29C JUMP JUMPDEST JUMPDEST SWAP3 SWAP2 POP POP JUMP INVALID LOG2 PUSH5 0x6970667358 0x22 SLT KECCAK256 PUSH22 0x85CB9EEF8174C6190421EFA2889A0CEDE5EC3BEA75EA 0xC BLOBBASEFEE SHL 0xCA MOD RETURNDATASIZE ADDMOD 0xEF PUSH14 0x64736F6C63430008210033000000 "
	},
	"Assembly": ".code\n  PUSH 80\t\t\tcontract PredictTheFutureChall...\n  PUSH 40\t\t\tcontract PredictTheFutureChall...\n  MSTORE \t\t\tcontract PredictTheFutureChall...\n  CALLVALUE \t\t\tcontract PredictTheFutureChall...\n  DUP1 \t\t\tcontract PredictTheFutureChall...\n  ISZERO \t\t\tcontract PredictTheFutureChall...\n  PUSH [tag] 1\t\t\tcontract PredictTheFutureChall...\n  JUMPI \t\t\tcontract PredictTheFutureChall...\n  PUSH 0\t\t\tcontract PredictTheFutureChall...\n  PUSH 0\t\t\tcontract PredictTheFutureChall...\n  REVERT \t\t\tcontract PredictTheFutureChall...\ntag 1\t\t\tcontract PredictTheFutureChall...\n  JUMPDEST \t\t\tcontract PredictTheFutureChall...\n  POP \t\t\tcontract PredictTheFutureChall...\n  PUSH #[$] 0000000000000000000000000000000000000000000000000000000000000000\t\t\tcontract PredictTheFutureChall...\n  DUP1 \t\t\tcontract PredictTheFutureChall...\n  PUSH [$] 0000000000000000000000000000000000000000000000000000000000000000\t\t\tcontract PredictTheFutureChall...\n  PUSH 0\t\t\tcontract PredictTheFutureChall...\n  CODECOPY \t\t\tcontract PredictTheFutureChall...\n  PUSH 0\t\t\tcontract PredictTheFutureChall...\n  RETURN \t\t\tcontract PredictTheFutureChall...\n.data\n  0:\n    .code\n      PUSH 80\t\t\tcontract PredictTheFutureChall...\n      PUSH 40\t\t\tcontract PredictTheFutureChall...\n      MSTORE \t\t\tcontract PredictTheFutureChall...\n      PUSH 4\t\t\tcontract PredictTheFutureChall...\n      CALLDATASIZE \t\t\tcontract PredictTheFutureChall...\n      LT \t\t\tcontract PredictTheFutureChall...\n      PUSH [tag] 1\t\t\tcontract PredictTheFutureChall...\n      JUMPI \t\t\tcontract PredictTheFutureChall...\n      PUSH 0\t\t\tcontract PredictTheFutureChall...\n      CALLDATALOAD \t\t\tcontract PredictTheFutureChall...\n      PUSH E0\t\t\tcontract PredictTheFutureChall...\n      SHR \t\t\tcontract PredictTheFutureChall...\n      DUP1 \t\t\tcontract PredictTheFutureChall...\n      PUSH 11DA60B4\t\t\tcontract PredictTheFutureChall...\n      EQ \t\t\tcontract PredictTheFutureChall...\n      PUSH [tag] 2\t\t\tcontract PredictTheFutureChall...\n      JUMPI \t\t\tcontract PredictTheFutureChall...\n      DUP1 \t\t\tcontract PredictTheFutureChall...\n      PUSH 2C0E0054\t\t\tcontract PredictTheFutureChall...\n      EQ \t\t\tcontract PredictTheFutureChall...\n      PUSH [tag] 3\t\t\tcontract PredictTheFutureChall...\n      JUMPI \t\t\tcontract PredictTheFutureChall...\n      DUP1 \t\t\tcontract PredictTheFutureChall...\n      PUSH B2FA1C9E\t\t\tcontract PredictTheFutureChall...\n      EQ \t\t\tcontract PredictTheFutureChall...\n      PUSH [tag] 4\t\t\tcontract PredictTheFutureChall...\n      JUMPI \t\t\tcontract PredictTheFutureChall...\n    tag 1\t\t\tcontract PredictTheFutureChall...\n      JUMPDEST \t\t\tcontract PredictTheFutureChall...\n      PUSH 0\t\t\tcontract PredictTheFutureChall...\n      PUSH 0\t\t\tcontract PredictTheFutureChall...\n      REVERT \t\t\tcontract PredictTheFutureChall...\n    tag 2\t\t\tfunction settle() public {\\n  ...\n      JUMPDEST \t\t\tfunction settle() public {\\n  ...\n      CALLVALUE \t\t\tfunction settle() public {\\n  ...\n      DUP1 \t\t\tfunction settle() public {\\n  ...\n      ISZERO \t\t\tfunction settle() public {\\n  ...\n      PUSH [tag] 5\t\t\tfunction settle() public {\\n  ...\n      JUMPI \t\t\tfunction settle() public {\\n  ...\n      PUSH 0\t\t\tfunction settle() public {\\n  ...\n      PUSH 0\t\t\tfunction settle() public {\\n  ...\n      REVERT \t\t\tfunction settle() public {\\n  ...\n    tag 5\t\t\tfunction settle() public {\\n  ...\n      JUMPDEST \t\t\tfunction settle() public {\\n  ...\n      POP \t\t\tfunction settle() public {\\n  ...\n      PUSH [tag] 6\t\t\tfunction settle() public {\\n  ...\n      PUSH [tag] 7\t\t\tfunction settle() public {\\n  ...\n      JUMP \t\t\tfunction settle() public {\\n  ...\n    tag 6\t\t\tfunction settle() public {\\n  ...\n      JUMPDEST \t\t\tfunction settle() public {\\n  ...\n      STOP \t\t\tfunction settle() public {\\n  ...\n    tag 3\t\t\tfunction lockInGuess(uint8 n) ...\n      JUMPDEST \t\t\tfunction lockInGuess(uint8 n) ...\n      PUSH [tag] 8\t\t\tfunction lockInGuess(uint8 n) ...\n      PUSH 4\t\t\tfunction lockInGuess(uint8 n) ...\n      DUP1 \t\t\tfunction lockInGuess(uint8 n) ...\n      CALLDATASIZE \t\t\tfunction lockInGuess(uint8 n) ...\n      SUB \t\t\tfunction lockInGuess(uint8 n) ...\n      DUP2 \t\t\tfunction lockInGuess(uint8 n) ...\n      ADD \t\t\tfunction lockInGuess(uint8 n) ...\n      SWAP1 \t\t\tfunction lockInGuess(uint8 n) ...\n      PUSH [tag] 9\t\t\tfunction lockInGuess(uint8 n) ...\n      SWAP2 \t\t\tfunction lockInGuess(uint8 n) ...\n      SWAP1 \t\t\tfunction lockInGuess(uint8 n) ...\n      PUSH [tag] 10\t\t\tfunction lockInGuess(uint8 n) ...\n      JUMP \t\t\tfunction lockInGuess(uint8 n) ...\n    tag 9\t\t\tfunction lockInGuess(uint8 n) ...\n      JUMPDEST \t\t\tfunction lockInGuess(uint8 n) ...\n      PUSH [tag] 11\t\t\tfunction lockInGuess(uint8 n) ...\n      JUMP \t\t\tfunction lockInGuess(uint8 n) ...\n    tag 8\t\t\tfunction lockInGuess(uint8 n) ...\n      JUMPDEST \t\t\tfunction lockInGuess(uint8 n) ...\n      STOP \t\t\tfunction lockInGuess(uint8 n) ...\n    tag 4\t\t\tfunction isComplete() public v...\n      JUMPDEST \t\t\tfunction isComplete() public v...\n      CALLVALUE \t\t\tfunction isComplete() public v...\n      DUP1 \t\t\tfunction isComplete() public v...\n      ISZERO \t\t\tfunction isComplete() public v...\n      PUSH [tag] 12\t\t\tfunction isComplete() public v...\n      JUMPI \t\t\tfunction isComplete() public v...\n      PUSH 0\t\t\tfunction isComplete() public v...\n      PUSH 0\t\t\tfunction isComplete() public v...\n      REVERT \t\t\tfunction isComplete() public v...\n    tag 12\t\t\tfunction isComplete() public v...\n      JUMPDEST \t\t\tfunction isComplete() public v...\n      POP \t\t\tfunction isComplete() public v...\n      PUSH [tag] 13\t\t\tfunction isComplete() public v...\n      PUSH [tag] 14\t\t\tfunction isComplete() public v...\n      JUMP \t\t\tfunction isComplete() public v...\n    tag 13\t\t\tfunction isComplete() public v...\n      JUMPDEST \t\t\tfunction isComplete() public v...\n      PUSH 40\t\t\tfunction isComplete() public v...\n      MLOAD \t\t\tfunction isComplete() public v...\n      PUSH [tag] 15\t\t\tfunction isComplete() public v...\n      SWAP2 \t\t\tfunction isComplete() public v...\n      SWAP1 \t\t\tfunction isComplete() public v...\n      PUSH [tag] 16\t\t\tfunction isComplete() public v...\n      JUMP \t\t\tfunction isComplete() public v...\n    tag 15\t\t\tfunction isComplete() public v...\n      JUMPDEST \t\t\tfunction isComplete() public v...\n      PUSH 40\t\t\tfunction isComplete() public v...\n      MLOAD \t\t\tfunction isComplete() public v...\n      DUP1 \t\t\tfunction isComplete() public v...\n      SWAP2 \t\t\tfunction isComplete() public v...\n      SUB \t\t\tfunction isComplete() public v...\n      SWAP1 \t\t\tfunction isComplete() public v...\n      RETURN \t\t\tfunction isComplete() public v...\n    tag 7\t\t\tfunction settle() public {\\n  ...\n      JUMPDEST \t\t\tfunction settle() public {\\n  ...\n      PUSH 0\t\t\tguesser\n      PUSH 0\t\t\tguesser\n      SWAP1 \t\t\tguesser\n      SLOAD \t\t\tguesser\n      SWAP1 \t\t\tguesser\n      PUSH 100\t\t\tguesser\n      EXP \t\t\tguesser\n      SWAP1 \t\t\tguesser\n      DIV \t\t\tguesser\n      PUSH FFFFFFFFFFFFFFFFFFFFFFFFFFFFFFFFFFFFFFFF\t\t\tguesser\n      AND \t\t\tguesser\n      PUSH FFFFFFFFFFFFFFFFFFFFFFFFFFFFFFFFFFFFFFFF\t\t\tmsg.sender == guesser\n      AND \t\t\tmsg.sender == guesser\n      CALLER \t\t\tmsg.sender\n      PUSH FFFFFFFFFFFFFFFFFFFFFFFFFFFFFFFFFFFFFFFF\t\t\tmsg.sender == guesser\n      AND \t\t\tmsg.sender == guesser\n      EQ \t\t\tmsg.sender == guesser\n      PUSH [tag] 18\t\t\trequire(msg.sender == guesser)\n      JUMPI \t\t\trequire(msg.sender == guesser)\n      PUSH 0\t\t\trequire(msg.sender == guesser)\n      PUSH 0\t\t\trequire(msg.sender == guesser)\n      REVERT \t\t\trequire(msg.sender == guesser)\n    tag 18\t\t\trequire(msg.sender == guesser)\n      JUMPDEST \t\t\trequire(msg.sender == guesser)\n      PUSH 1\t\t\tsettlementBlockNumber\n      SLOAD \t\t\tsettlementBlockNumber\n      NUMBER \t\t\tblock.number\n      GT \t\t\tblock.number > settlementBlock...\n      PUSH [tag] 19\t\t\trequire(block.number > settlem...\n      JUMPI \t\t\trequire(block.number > settlem...\n      PUSH 0\t\t\trequire(block.number > settlem...\n      PUSH 0\t\t\trequire(block.number > settlem...\n      REVERT \t\t\trequire(block.number > settlem...\n    tag 19\t\t\trequire(block.number > settlem...\n      JUMPDEST \t\t\trequire(block.number > settlem...\n      PUSH 0\t\t\tuint8 answer\n      PUSH A\t\t\t10\n      PUSH 1\t\t\t1\n      NUMBER \t\t\tblock.number\n      PUSH [tag] 20\t\t\tblock.number - 1\n      SWAP2 \t\t\tblock.number - 1\n      SWAP1 \t\t\tblock.number - 1\n      PUSH [tag] 21\t\t\tblock.number - 1\n      JUMP \t\t\tblock.number - 1\n    tag 20\t\t\tblock.number - 1\n      JUMPDEST \t\t\tblock.number - 1\n      BLOCKHASH \t\t\tblockhash(block.number - 1)\n      TIMESTAMP \t\t\tblock.timestamp\n      PUSH 40\t\t\tabi.encodePacked(blockhash(blo...\n      MLOAD \t\t\tabi.encodePacked(blockhash(blo...\n      PUSH 20\t\t\tabi.encodePacked(blockhash(blo...\n      ADD \t\t\tabi.encodePacked(blockhash(blo...\n      PUSH [tag] 22\t\t\tabi.encodePacked(blockhash(blo...\n      SWAP3 \t\t\tabi.encodePacked(blockhash(blo...\n      SWAP2 \t\t\tabi.encodePacked(blockhash(blo...\n      SWAP1 \t\t\tabi.encodePacked(blockhash(blo...\n      PUSH [tag] 23\t\t\tabi.encodePacked(blockhash(blo...\n      JUMP \t\t\tabi.encodePacked(blockhash(blo...\n    tag 22\t\t\tabi.encodePacked(blockhash(blo...\n      JUMPDEST \t\t\tabi.encodePacked(blockhash(blo...\n      PUSH 40\t\t\tabi.encodePacked(blockhash(blo...\n      MLOAD \t\t\tabi.encodePacked(blockhash(blo...\n      PUSH 20\t\t\tabi.encodePacked(blockhash(blo...\n      DUP2 \t\t\tabi.encodePacked(blockhash(blo...\n      DUP4 \t\t\tabi.encodePacked(blockhash(blo...\n      SUB \t\t\tabi.encodePacked(blockhash(blo...\n      SUB \t\t\tabi.encodePacked(blockhash(blo...\n      DUP2 \t\t\tabi.encodePacked(blockhash(blo...\n      MSTORE \t\t\tabi.encodePacked(blockhash(blo...\n      SWAP1 \t\t\tabi.encodePacked(blockhash(blo...\n      PUSH 40\t\t\tabi.encodePacked(blockhash(blo...\n      MSTORE \t\t\tabi.encodePacked(blockhash(blo...\n      DUP1 \t\t\tkeccak256(abi.encodePacked(blo...\n      MLOAD \t\t\tkeccak256(abi.encodePacked(blo...\n      SWAP1 \t\t\tkeccak256(abi.encodePacked(blo...\n      PUSH 20\t\t\tkeccak256(abi.encodePacked(blo...\n      ADD \t\t\tkeccak256(abi.encodePacked(blo...\n      KECCAK256 \t\t\tkeccak256(abi.encodePacked(blo...\n      PUSH 0\t\t\tuint256(keccak256(abi.encodePa...\n      SHR \t\t\tuint256(keccak256(abi.encodePa...\n      PUSH [tag] 24\t\t\tuint8(uint256(keccak256(abi.en...\n      SWAP2 \t\t\tuint8(uint256(keccak256(abi.en...\n      SWAP1 \t\t\tuint8(uint256(keccak256(abi.en...\n      PUSH [tag] 25\t\t\tuint8(uint256(keccak256(abi.en...\n      JUMP \t\t\tuint8(uint256(keccak256(abi.en...\n    tag 24\t\t\tuint8(uint256(keccak256(abi.en...\n      JUMPDEST \t\t\tuint8(uint256(keccak256(abi.en...\n      SWAP1 \t\t\tuint8 answer = uint8(uint256(k...\n      POP \t\t\tuint8 answer = uint8(uint256(k...\n      PUSH 0\t\t\tguess\n      PUSH 14\t\t\tguess\n      SWAP1 \t\t\tguess\n      SLOAD \t\t\tguess\n      SWAP1 \t\t\tguess\n      PUSH 100\t\t\tguess\n      EXP \t\t\tguess\n      SWAP1 \t\t\tguess\n      DIV \t\t\tguess\n      PUSH FF\t\t\tguess\n      AND \t\t\tguess\n      PUSH FF\t\t\tanswer==guess\n      AND \t\t\tanswer==guess\n      DUP2 \t\t\tanswer\n      PUSH FF\t\t\tanswer==guess\n      AND \t\t\tanswer==guess\n      SUB \t\t\tanswer==guess\n      PUSH [tag] 26\t\t\tif (answer==guess){\\n         ...\n      JUMPI \t\t\tif (answer==guess){\\n         ...\n      PUSH 1\t\t\ttrue\n      PUSH 2\t\t\tiscomplete\n      PUSH 0\t\t\tiscomplete\n      PUSH 100\t\t\tiscomplete=true\n      EXP \t\t\tiscomplete=true\n      DUP2 \t\t\tiscomplete=true\n      SLOAD \t\t\tiscomplete=true\n      DUP2 \t\t\tiscomplete=true\n      PUSH FF\t\t\tiscomplete=true\n      MUL \t\t\tiscomplete=true\n      NOT \t\t\tiscomplete=true\n      AND \t\t\tiscomplete=true\n      SWAP1 \t\t\tiscomplete=true\n      DUP4 \t\t\tiscomplete=true\n      ISZERO \t\t\tiscomplete=true\n      ISZERO \t\t\tiscomplete=true\n      MUL \t\t\tiscomplete=true\n      OR \t\t\tiscomplete=true\n      SWAP1 \t\t\tiscomplete=true\n      SSTORE \t\t\tiscomplete=true\n      POP \t\t\tiscomplete=true\n    tag 26\t\t\tif (answer==guess){\\n         ...\n      JUMPDEST \t\t\tif (answer==guess){\\n         ...\n      POP \t\t\t{\\n        require(msg.sender ...\n      JUMP \t\t\tfunction settle() public {\\n  ...\n    tag 11\t\t\tfunction lockInGuess(uint8 n) ...\n      JUMPDEST \t\t\tfunction lockInGuess(uint8 n) ...\n      CALLER \t\t\tmsg.sender\n      PUSH 0\t\t\tguesser\n      PUSH 0\t\t\tguesser\n      PUSH 100\t\t\tguesser = msg.sender\n      EXP \t\t\tguesser = msg.sender\n      DUP2 \t\t\tguesser = msg.sender\n      SLOAD \t\t\tguesser = msg.sender\n      DUP2 \t\t\tguesser = msg.sender\n      PUSH FFFFFFFFFFFFFFFFFFFFFFFFFFFFFFFFFFFFFFFF\t\t\tguesser = msg.sender\n      MUL \t\t\tguesser = msg.sender\n      NOT \t\t\tguesser = msg.sender\n      AND \t\t\tguesser = msg.sender\n      SWAP1 \t\t\tguesser = msg.sender\n      DUP4 \t\t\tguesser = msg.sender\n      PUSH FFFFFFFFFFFFFFFFFFFFFFFFFFFFFFFFFFFFFFFF\t\t\tguesser = msg.sender\n      AND \t\t\tguesser = msg.sender\n      MUL \t\t\tguesser = msg.sender\n      OR \t\t\tguesser = msg.sender\n      SWAP1 \t\t\tguesser = msg.sender\n      SSTORE \t\t\tguesser = msg.sender\n      POP \t\t\tguesser = msg.sender\n      DUP1 \t\t\tn\n      PUSH 0\t\t\tguess\n      PUSH 14\t\t\tguess\n      PUSH 100\t\t\tguess = n\n      EXP \t\t\tguess = n\n      DUP2 \t\t\tguess = n\n      SLOAD \t\t\tguess = n\n      DUP2 \t\t\tguess = n\n      PUSH FF\t\t\tguess = n\n      MUL \t\t\tguess = n\n      NOT \t\t\tguess = n\n      AND \t\t\tguess = n\n      SWAP1 \t\t\tguess = n\n      DUP4 \t\t\tguess = n\n      PUSH FF\t\t\tguess = n\n      AND \t\t\tguess = n\n      MUL \t\t\tguess = n\n      OR \t\t\tguess = n\n      SWAP1 \t\t\tguess = n\n      SSTORE \t\t\tguess = n\n      POP \t\t\tguess = n\n      PUSH 1\t\t\t1\n      NUMBER \t\t\tblock.number\n      PUSH [tag] 28\t\t\tblock.number + 1\n      SWAP2 \t\t\tblock.number + 1\n      SWAP1 \t\t\tblock.number + 1\n      PUSH [tag] 29\t\t\tblock.number + 1\n      JUMP \t\t\tblock.number + 1\n    tag 28\t\t\tblock.number + 1\n      JUMPDEST \t\t\tblock.number + 1\n      PUSH 1\t\t\tsettlementBlockNumber\n      DUP2 \t\t\tsettlementBlockNumber = block....\n      SWAP1 \t\t\tsettlementBlockNumber = block....\n      SSTORE \t\t\tsettlementBlockNumber = block....\n      POP \t\t\tsettlementBlockNumber = block....\n      POP \t\t\tfunction lockInGuess(uint8 n) ...\n      JUMP \t\t\tfunction lockInGuess(uint8 n) ...\n    tag 14\t\t\tfunction isComplete() public v...\n      JUMPDEST \t\t\tfunction isComplete() public v...\n      PUSH 0\t\t\tbool\n      PUSH 2\t\t\tiscomplete\n      PUSH 0\t\t\tiscomplete\n      SWAP1 \t\t\tiscomplete\n      SLOAD \t\t\tiscomplete\n      SWAP1 \t\t\tiscomplete\n      PUSH 100\t\t\tiscomplete\n      EXP \t\t\tiscomplete\n      SWAP1 \t\t\tiscomplete\n      DIV \t\t\tiscomplete\n      PUSH FF\t\t\tiscomplete\n      AND \t\t\tiscomplete\n      SWAP1 \t\t\treturn iscomplete\n      POP \t\t\treturn iscomplete\n      SWAP1 \t\t\tfunction isComplete() public v...\n      JUMP \t\t\tfunction isComplete() public v...\n    tag 32\t\t\tnge {\\n    address guesser;\\n ...\n      JUMPDEST \t\t\tnge {\\n    address guesser;\\n ...\n      PUSH 0\t\t\tt\n      PUSH 0\t\t\tu\n      REVERT \t\t\t\\n\\n    functi\n    tag 34\t\t\t   guesser = msg.sender;\\n    ...\n      JUMPDEST \t\t\t   guesser = msg.sender;\\n    ...\n      PUSH 0\t\t\tess = n\n      PUSH FF\t\t\t blo\n      DUP3 \t\t\tumber\n      AND \t\t\tockNumber = bloc\n      SWAP1 \t\t\tettlementBlockNumber = bloc\n      POP \t\t\tettlementBlockNumber = bloc\n      SWAP2 \t\t\t   guesser = msg.sender;\\n    ...\n      SWAP1 \t\t\t   guesser = msg.sender;\\n    ...\n      POP \t\t\t   guesser = msg.sender;\\n    ...\n      JUMP \t\t\t   guesser = msg.sender;\\n    ...\n    tag 35\t\t\t;\\n    }\\n\\n    function settl...\n      JUMPDEST \t\t\t;\\n    }\\n\\n    function settl...\n      PUSH [tag] 53\t\t\tuesser);\\n        requi\n      DUP2 \t\t\t requ\n      PUSH [tag] 34\t\t\tuesser);\\n        requi\n      JUMP \t\t\tuesser);\\n        requi\n    tag 53\t\t\tuesser);\\n        requi\n      JUMPDEST \t\t\tuesser);\\n        requi\n      DUP2 \t\t\ter ==\n      EQ \t\t\tender == guesser);\\n        re...\n      PUSH [tag] 54\t\t\tuire(msg.sender == guesser);\\n...\n      JUMPI \t\t\tuire(msg.sender == guesser);\\n...\n      PUSH 0\t\t\t \n      PUSH 0\t\t\tb\n      REVERT \t\t\tock.number >\n    tag 54\t\t\tuire(msg.sender == guesser);\\n...\n      JUMPDEST \t\t\tuire(msg.sender == guesser);\\n...\n      POP \t\t\t;\\n    }\\n\\n    function settl...\n      JUMP \t\t\t;\\n    }\\n\\n    function settl...\n    tag 36\t\t\tckNumber);\\n\\n        uint8 an...\n      JUMPDEST \t\t\tckNumber);\\n\\n        uint8 an...\n      PUSH 0\t\t\tt256(\n      DUP2 \t\t\tash(bl\n      CALLDATALOAD \t\t\tPacked(blockhash(blo\n      SWAP1 \t\t\tbi.encodePacked(blockhash(blo\n      POP \t\t\tbi.encodePacked(blockhash(blo\n      PUSH [tag] 56\t\t\t - 1), block.timestamp)))) % 1...\n      DUP2 \t\t\t) % 1\n      PUSH [tag] 35\t\t\t - 1), block.timestamp)))) % 1...\n      JUMP \t\t\t - 1), block.timestamp)))) % 1...\n    tag 56\t\t\t - 1), block.timestamp)))) % 1...\n      JUMPDEST \t\t\t - 1), block.timestamp)))) % 1...\n      SWAP3 \t\t\tckNumber);\\n\\n        uint8 an...\n      SWAP2 \t\t\tckNumber);\\n\\n        uint8 an...\n      POP \t\t\tckNumber);\\n\\n        uint8 an...\n      POP \t\t\tckNumber);\\n\\n        uint8 an...\n      JUMP \t\t\tckNumber);\\n\\n        uint8 an...\n    tag 10\t\t\t (answer==guess){\\n           ...\n      JUMPDEST \t\t\t (answer==guess){\\n           ...\n      PUSH 0\t\t\t    }\\n\n      PUSH 20\t\t\t\n      DUP3 \t\t\t\n      DUP5 \t\t\t\n      SUB \t\t\t\n      SLT \t\t\t\n      ISZERO \t\t\t\n      PUSH [tag] 58\t\t\t\n      JUMPI \t\t\t\n      PUSH [tag] 59\t\t\t\n      PUSH [tag] 32\t\t\t\n      JUMP \t\t\t\n    tag 59\t\t\t\n      JUMPDEST \t\t\t\n    tag 58\t\t\t\n      JUMPDEST \t\t\t\n      PUSH 0\t\t\t\n      PUSH [tag] 60\t\t\t\n      DUP5 \t\t\t\n      DUP3 \t\t\t\n      DUP6 \t\t\t\n      ADD \t\t\t\n      PUSH [tag] 36\t\t\t\n      JUMP \t\t\t\n    tag 60\t\t\t\n      JUMPDEST \t\t\t\n      SWAP2 \t\t\t\n      POP \t\t\t\n      POP \t\t\t\n      SWAP3 \t\t\t (answer==guess){\\n           ...\n      SWAP2 \t\t\t (answer==guess){\\n           ...\n      POP \t\t\t (answer==guess){\\n           ...\n      POP \t\t\t (answer==guess){\\n           ...\n      JUMP \t\t\t (answer==guess){\\n           ...\n    tag 37\t\t\t\n      JUMPDEST \t\t\t\n      PUSH 0\t\t\t\n      DUP2 \t\t\t\n      ISZERO \t\t\t\n      ISZERO \t\t\t\n      SWAP1 \t\t\t\n      POP \t\t\t\n      SWAP2 \t\t\t\n      SWAP1 \t\t\t\n      POP \t\t\t\n      JUMP \t\t\t\n    tag 38\t\t\t\n      JUMPDEST \t\t\t\n      PUSH [tag] 63\t\t\t\n      DUP2 \t\t\t\n      PUSH [tag] 37\t\t\t\n      JUMP \t\t\t\n    tag 63\t\t\t\n      JUMPDEST \t\t\t\n      DUP3 \t\t\t\n      MSTORE \t\t\t\n      POP \t\t\t\n      POP \t\t\t\n      JUMP \t\t\t\n    tag 16\t\t\t\n      JUMPDEST \t\t\t\n      PUSH 0\t\t\t\n      PUSH 20\t\t\t\n      DUP3 \t\t\t\n      ADD \t\t\t\n      SWAP1 \t\t\t\n      POP \t\t\t\n      PUSH [tag] 65\t\t\t\n      PUSH 0\t\t\t\n      DUP4 \t\t\t\n      ADD \t\t\t\n      DUP5 \t\t\t\n      PUSH [tag] 38\t\t\t\n      JUMP \t\t\t\n    tag 65\t\t\t\n      JUMPDEST \t\t\t\n      SWAP3 \t\t\t\n      SWAP2 \t\t\t\n      POP \t\t\t\n      POP \t\t\t\n      JUMP \t\t\t\n    tag 39\t\t\t\n      JUMPDEST \t\t\t\n      PUSH 0\t\t\t\n      DUP2 \t\t\t\n      SWAP1 \t\t\t\n      POP \t\t\t\n      SWAP2 \t\t\t\n      SWAP1 \t\t\t\n      POP \t\t\t\n      JUMP \t\t\t\n    tag 40\t\t\t\n      JUMPDEST \t\t\t\n      PUSH 4E487B7100000000000000000000000000000000000000000000000000000000\t\t\t\n      PUSH 0\t\t\t\n      MSTORE \t\t\t\n      PUSH 11\t\t\t\n      PUSH 4\t\t\t\n      MSTORE \t\t\t\n      PUSH 24\t\t\t\n      PUSH 0\t\t\t\n      REVERT \t\t\t\n    tag 21\t\t\t\n      JUMPDEST \t\t\t\n      PUSH 0\t\t\t\n      PUSH [tag] 69\t\t\t\n      DUP3 \t\t\t\n      PUSH [tag] 39\t\t\t\n      JUMP \t\t\t\n    tag 69\t\t\t\n      JUMPDEST \t\t\t\n      SWAP2 \t\t\t\n      POP \t\t\t\n      PUSH [tag] 70\t\t\t\n      DUP4 \t\t\t\n      PUSH [tag] 39\t\t\t\n      JUMP \t\t\t\n    tag 70\t\t\t\n      JUMPDEST \t\t\t\n      SWAP3 \t\t\t\n      POP \t\t\t\n      DUP3 \t\t\t\n      DUP3 \t\t\t\n      SUB \t\t\t\n      SWAP1 \t\t\t\n      POP \t\t\t\n      DUP2 \t\t\t\n      DUP2 \t\t\t\n      GT \t\t\t\n      ISZERO \t\t\t\n      PUSH [tag] 71\t\t\t\n      JUMPI \t\t\t\n      PUSH [tag] 72\t\t\t\n      PUSH [tag] 40\t\t\t\n      JUMP \t\t\t\n    tag 72\t\t\t\n      JUMPDEST \t\t\t\n    tag 71\t\t\t\n      JUMPDEST \t\t\t\n      SWAP3 \t\t\t\n      SWAP2 \t\t\t\n      POP \t\t\t\n      POP \t\t\t\n      JUMP \t\t\t\n    tag 41\t\t\t\n      JUMPDEST \t\t\t\n      PUSH 0\t\t\t\n      DUP2 \t\t\t\n      SWAP1 \t\t\t\n      POP \t\t\t\n      SWAP2 \t\t\t\n      SWAP1 \t\t\t\n      POP \t\t\t\n      JUMP \t\t\t\n    tag 42\t\t\t\n      JUMPDEST \t\t\t\n      PUSH 0\t\t\t\n      DUP2 \t\t\t\n      SWAP1 \t\t\t\n      POP \t\t\t\n      SWAP2 \t\t\t\n      SWAP1 \t\t\t\n      POP \t\t\t\n      JUMP \t\t\t\n    tag 43\t\t\t\n      JUMPDEST \t\t\t\n      PUSH [tag] 76\t\t\t\n      PUSH [tag] 77\t\t\t\n      DUP3 \t\t\t\n      PUSH [tag] 41\t\t\t\n      JUMP \t\t\t\n    tag 77\t\t\t\n      JUMPDEST \t\t\t\n      PUSH [tag] 42\t\t\t\n      JUMP \t\t\t\n    tag 76\t\t\t\n      JUMPDEST \t\t\t\n      DUP3 \t\t\t\n      MSTORE \t\t\t\n      POP \t\t\t\n      POP \t\t\t\n      JUMP \t\t\t\n    tag 44\t\t\t\n      JUMPDEST \t\t\t\n      PUSH 0\t\t\t\n      DUP2 \t\t\t\n      SWAP1 \t\t\t\n      POP \t\t\t\n      SWAP2 \t\t\t\n      SWAP1 \t\t\t\n      POP \t\t\t\n      JUMP \t\t\t\n    tag 45\t\t\t\n      JUMPDEST \t\t\t\n      PUSH [tag] 80\t\t\t\n      PUSH [tag] 81\t\t\t\n      DUP3 \t\t\t\n      PUSH [tag] 39\t\t\t\n      JUMP \t\t\t\n    tag 81\t\t\t\n      JUMPDEST \t\t\t\n      PUSH [tag] 44\t\t\t\n      JUMP \t\t\t\n    tag 80\t\t\t\n      JUMPDEST \t\t\t\n      DUP3 \t\t\t\n      MSTORE \t\t\t\n      POP \t\t\t\n      POP \t\t\t\n      JUMP \t\t\t\n    tag 23\t\t\t\n      JUMPDEST \t\t\t\n      PUSH 0\t\t\t\n      PUSH [tag] 83\t\t\t\n      DUP3 \t\t\t\n      DUP6 \t\t\t\n      PUSH [tag] 43\t\t\t\n      JUMP \t\t\t\n    tag 83\t\t\t\n      JUMPDEST \t\t\t\n      PUSH 20\t\t\t\n      DUP3 \t\t\t\n      ADD \t\t\t\n      SWAP2 \t\t\t\n      POP \t\t\t\n      PUSH [tag] 84\t\t\t\n      DUP3 \t\t\t\n      DUP5 \t\t\t\n      PUSH [tag] 45\t\t\t\n      JUMP \t\t\t\n    tag 84\t\t\t\n      JUMPDEST \t\t\t\n      PUSH 20\t\t\t\n      DUP3 \t\t\t\n      ADD \t\t\t\n      SWAP2 \t\t\t\n      POP \t\t\t\n      DUP2 \t\t\t\n      SWAP1 \t\t\t\n      POP \t\t\t\n      SWAP4 \t\t\t\n      SWAP3 \t\t\t\n      POP \t\t\t\n      POP \t\t\t\n      POP \t\t\t\n      JUMP \t\t\t\n    tag 46\t\t\t\n      JUMPDEST \t\t\t\n      PUSH 4E487B7100000000000000000000000000000000000000000000000000000000\t\t\t\n      PUSH 0\t\t\t\n      MSTORE \t\t\t\n      PUSH 12\t\t\t\n      PUSH 4\t\t\t\n      MSTORE \t\t\t\n      PUSH 24\t\t\t\n      PUSH 0\t\t\t\n      REVERT \t\t\t\n    tag 25\t\t\t\n      JUMPDEST \t\t\t\n      PUSH 0\t\t\t\n      PUSH [tag] 87\t\t\t\n      DUP3 \t\t\t\n      PUSH [tag] 34\t\t\t\n      JUMP \t\t\t\n    tag 87\t\t\t\n      JUMPDEST \t\t\t\n      SWAP2 \t\t\t\n      POP \t\t\t\n      PUSH [tag] 88\t\t\t\n      DUP4 \t\t\t\n      PUSH [tag] 34\t\t\t\n      JUMP \t\t\t\n    tag 88\t\t\t\n      JUMPDEST \t\t\t\n      SWAP3 \t\t\t\n      POP \t\t\t\n      DUP3 \t\t\t\n      PUSH [tag] 89\t\t\t\n      JUMPI \t\t\t\n      PUSH [tag] 90\t\t\t\n      PUSH [tag] 46\t\t\t\n      JUMP \t\t\t\n    tag 90\t\t\t\n      JUMPDEST \t\t\t\n    tag 89\t\t\t\n      JUMPDEST \t\t\t\n      DUP3 \t\t\t\n      DUP3 \t\t\t\n      MOD \t\t\t\n      SWAP1 \t\t\t\n      POP \t\t\t\n      SWAP3 \t\t\t\n      SWAP2 \t\t\t\n      POP \t\t\t\n      POP \t\t\t\n      JUMP \t\t\t\n    tag 29\t\t\t\n      JUMPDEST \t\t\t\n      PUSH 0\t\t\t\n      PUSH [tag] 92\t\t\t\n      DUP3 \t\t\t\n      PUSH [tag] 39\t\t\t\n      JUMP \t\t\t\n    tag 92\t\t\t\n      JUMPDEST \t\t\t\n      SWAP2 \t\t\t\n      POP \t\t\t\n      PUSH [tag] 93\t\t\t\n      DUP4 \t\t\t\n      PUSH [tag] 39\t\t\t\n      JUMP \t\t\t\n    tag 93\t\t\t\n      JUMPDEST \t\t\t\n      SWAP3 \t\t\t\n      POP \t\t\t\n      DUP3 \t\t\t\n      DUP3 \t\t\t\n      ADD \t\t\t\n      SWAP1 \t\t\t\n      POP \t\t\t\n      DUP1 \t\t\t\n      DUP3 \t\t\t\n      GT \t\t\t\n      ISZERO \t\t\t\n      PUSH [tag] 94\t\t\t\n      JUMPI \t\t\t\n      PUSH [tag] 95\t\t\t\n      PUSH [tag] 40\t\t\t\n      JUMP \t\t\t\n    tag 95\t\t\t\n      JUMPDEST \t\t\t\n    tag 94\t\t\t\n      JUMPDEST \t\t\t\n      SWAP3 \t\t\t\n      SWAP2 \t\t\t\n      POP \t\t\t\n      POP \t\t\t\n      JUMP \t\t\t\n    .data\n"
}