{
	"compilerInput": "{\"language\":\"Solidity\",\"sources\":{\"test.sol\":{\"content\":\"//SPDX-License-Identifier:MIT\\npragma solidity ^0.8.21;\\n\\ncontract TokenSaleChallenge {\\n    mapping(address => uint256) public balanceOf;\\n    uint256 constant PRICE_PER_TOKEN = 0.001 ether;\\n\\n    constructor() public payable {\\n        require(msg.value == 0.001 ether);\\n    }\\n\\n    function isComplete() public view returns (bool) {\\n        return address(this).balance < 1 ether;\\n    }\\n\\n    function buy(uint256 numTokens) public payable {\\n        require(msg.value == numTokens * PRICE_PER_TOKEN);\\n\\n        balanceOf[msg.sender] += numTokens;\\n    }\\n\\n    function sell(uint256 numTokens) public {\\n        require(balanceOf[msg.sender] >= numTokens);\\n\\n        balanceOf[msg.sender] -= numTokens;\\n        payable(address(msg.sender)).transfer(numTokens * PRICE_PER_TOKEN);\\n    }\\n}\"}},\"settings\":{\"optimizer\":{\"enabled\":false,\"runs\":200},\"outputSelection\":{\"*\":{\"\":[\"ast\"],\"*\":[\"abi\",\"metadata\",\"devdoc\",\"userdoc\",\"storageLayout\",\"evm.legacyAssembly\",\"evm.bytecode\",\"evm.deployedBytecode\",\"evm.methodIdentifiers\",\"evm.gasEstimates\",\"evm.assembly\"]}},\"remappings\":[]}}",
	"name": "TokenSaleChallenge",
	"bytecode": {
		"linkReferences": {},
		"object": "608060405266038d7ea4c6800034146015575f5ffd5b6104c2806100225f395ff3fe60806040526004361061003e575f3560e01c806370a0823114610042578063b2fa1c9e1461007e578063d96a094a146100a8578063e4849b32146100c4575b5f5ffd5b34801561004d575f5ffd5b50610068600480360381019061006391906102d4565b6100ec565b6040516100759190610317565b60405180910390f35b348015610089575f5ffd5b50610092610100565b60405161009f919061034a565b60405180910390f35b6100c260048036038101906100bd919061038d565b610111565b005b3480156100cf575f5ffd5b506100ea60048036038101906100e5919061038d565b610183565b005b5f602052805f5260405f205f915090505481565b5f670de0b6b3a76400004710905090565b66038d7ea4c680008161012491906103e5565b341461012e575f5ffd5b805f5f3373ffffffffffffffffffffffffffffffffffffffff1673ffffffffffffffffffffffffffffffffffffffff1681526020019081526020015f205f8282546101799190610426565b9250508190555050565b805f5f3373ffffffffffffffffffffffffffffffffffffffff1673ffffffffffffffffffffffffffffffffffffffff1681526020019081526020015f205410156101cb575f5ffd5b805f5f3373ffffffffffffffffffffffffffffffffffffffff1673ffffffffffffffffffffffffffffffffffffffff1681526020019081526020015f205f8282546102169190610459565b925050819055503373ffffffffffffffffffffffffffffffffffffffff166108fc66038d7ea4c680008361024a91906103e5565b90811502906040515f60405180830381858888f19350505050158015610272573d5f5f3e3d5ffd5b5050565b5f5ffd5b5f73ffffffffffffffffffffffffffffffffffffffff82169050919050565b5f6102a38261027a565b9050919050565b6102b381610299565b81146102bd575f5ffd5b50565b5f813590506102ce816102aa565b92915050565b5f602082840312156102e9576102e8610276565b5b5f6102f6848285016102c0565b91505092915050565b5f819050919050565b610311816102ff565b82525050565b5f60208201905061032a5f830184610308565b92915050565b5f8115159050919050565b61034481610330565b82525050565b5f60208201905061035d5f83018461033b565b92915050565b61036c816102ff565b8114610376575f5ffd5b50565b5f8135905061038781610363565b92915050565b5f602082840312156103a2576103a1610276565b5b5f6103af84828501610379565b91505092915050565b7f4e487b71000000000000000000000000000000000000000000000000000000005f52601160045260245ffd5b5f6103ef826102ff565b91506103fa836102ff565b9250828202610408816102ff565b9150828204841483151761041f5761041e6103b8565b5b5092915050565b5f610430826102ff565b915061043b836102ff565b9250828201905080821115610453576104526103b8565b5b92915050565b5f610463826102ff565b915061046e836102ff565b9250828203905081811115610486576104856103b8565b5b9291505056fea264697066735822122069f32e98865e4570e13176e5511d5e0875215f2caa053649cc33afc3aaa8531c64736f6c634300081f0033",
		"opcodes": "PUSH1 0x80 PUSH1 0x40 MSTORE PUSH7 0x38D7EA4C68000 CALLVALUE EQ PUSH1 0x15 JUMPI PUSH0 PUSH0 REVERT JUMPDEST PUSH2 0x4C2 DUP1 PUSH2 0x22 PUSH0 CODECOPY PUSH0 RETURN INVALID PUSH1 0x80 PUSH1 0x40 MSTORE PUSH1 0x4 CALLDATASIZE LT PUSH2 0x3E JUMPI PUSH0 CALLDATALOAD PUSH1 0xE0 SHR DUP1 PUSH4 0x70A08231 EQ PUSH2 0x42 JUMPI DUP1 PUSH4 0xB2FA1C9E EQ PUSH2 0x7E JUMPI DUP1 PUSH4 0xD96A094A EQ PUSH2 0xA8 JUMPI DUP1 PUSH4 0xE4849B32 EQ PUSH2 0xC4 JUMPI JUMPDEST PUSH0 PUSH0 REVERT JUMPDEST CALLVALUE DUP1 ISZERO PUSH2 0x4D JUMPI PUSH0 PUSH0 REVERT JUMPDEST POP PUSH2 0x68 PUSH1 0x4 DUP1 CALLDATASIZE SUB DUP2 ADD SWAP1 PUSH2 0x63 SWAP2 SWAP1 PUSH2 0x2D4 JUMP JUMPDEST PUSH2 0xEC JUMP JUMPDEST PUSH1 0x40 MLOAD PUSH2 0x75 SWAP2 SWAP1 PUSH2 0x317 JUMP JUMPDEST PUSH1 0x40 MLOAD DUP1 SWAP2 SUB SWAP1 RETURN JUMPDEST CALLVALUE DUP1 ISZERO PUSH2 0x89 JUMPI PUSH0 PUSH0 REVERT JUMPDEST POP PUSH2 0x92 PUSH2 0x100 JUMP JUMPDEST PUSH1 0x40 MLOAD PUSH2 0x9F SWAP2 SWAP1 PUSH2 0x34A JUMP JUMPDEST PUSH1 0x40 MLOAD DUP1 SWAP2 SUB SWAP1 RETURN JUMPDEST PUSH2 0xC2 PUSH1 0x4 DUP1 CALLDATASIZE SUB DUP2 ADD SWAP1 PUSH2 0xBD SWAP2 SWAP1 PUSH2 0x38D JUMP JUMPDEST PUSH2 0x111 JUMP JUMPDEST STOP JUMPDEST CALLVALUE DUP1 ISZERO PUSH2 0xCF JUMPI PUSH0 PUSH0 REVERT JUMPDEST POP PUSH2 0xEA PUSH1 0x4 DUP1 CALLDATASIZE SUB DUP2 ADD SWAP1 PUSH2 0xE5 SWAP2 SWAP1 PUSH2 0x38D JUMP JUMPDEST PUSH2 0x183 JUMP JUMPDEST STOP JUMPDEST PUSH0 PUSH1 0x20 MSTORE DUP1 PUSH0 MSTORE PUSH1 0x40 PUSH0 KECCAK256 PUSH0 SWAP2 POP SWAP1 POP SLOAD DUP2 JUMP JUMPDEST PUSH0 PUSH8 0xDE0B6B3A7640000 SELFBALANCE LT SWAP1 POP SWAP1 JUMP JUMPDEST PUSH7 0x38D7EA4C68000 DUP2 PUSH2 0x124 SWAP2 SWAP1 PUSH2 0x3E5 JUMP JUMPDEST CALLVALUE EQ PUSH2 0x12E JUMPI PUSH0 PUSH0 REVERT JUMPDEST DUP1 PUSH0 PUSH0 CALLER PUSH20 0xFFFFFFFFFFFFFFFFFFFFFFFFFFFFFFFFFFFFFFFF AND PUSH20 0xFFFFFFFFFFFFFFFFFFFFFFFFFFFFFFFFFFFFFFFF AND DUP2 MSTORE PUSH1 0x20 ADD SWAP1 DUP2 MSTORE PUSH1 0x20 ADD PUSH0 KECCAK256 PUSH0 DUP3 DUP3 SLOAD PUSH2 0x179 SWAP2 SWAP1 PUSH2 0x426 JUMP JUMPDEST SWAP3 POP POP DUP2 SWAP1 SSTORE POP POP JUMP JUMPDEST DUP1 PUSH0 PUSH0 CALLER PUSH20 0xFFFFFFFFFFFFFFFFFFFFFFFFFFFFFFFFFFFFFFFF AND PUSH20 0xFFFFFFFFFFFFFFFFFFFFFFFFFFFFFFFFFFFFFFFF AND DUP2 MSTORE PUSH1 0x20 ADD SWAP1 DUP2 MSTORE PUSH1 0x20 ADD PUSH0 KECCAK256 SLOAD LT ISZERO PUSH2 0x1CB JUMPI PUSH0 PUSH0 REVERT JUMPDEST DUP1 PUSH0 PUSH0 CALLER PUSH20 0xFFFFFFFFFFFFFFFFFFFFFFFFFFFFFFFFFFFFFFFF AND PUSH20 0xFFFFFFFFFFFFFFFFFFFFFFFFFFFFFFFFFFFFFFFF AND DUP2 MSTORE PUSH1 0x20 ADD SWAP1 DUP2 MSTORE PUSH1 0x20 ADD PUSH0 KECCAK256 PUSH0 DUP3 DUP3 SLOAD PUSH2 0x216 SWAP2 SWAP1 PUSH2 0x459 JUMP JUMPDEST SWAP3 POP POP DUP2 SWAP1 SSTORE POP CALLER PUSH20 0xFFFFFFFFFFFFFFFFFFFFFFFFFFFFFFFFFFFFFFFF AND PUSH2 0x8FC PUSH7 0x38D7EA4C68000 DUP4 PUSH2 0x24A SWAP2 SWAP1 PUSH2 0x3E5 JUMP JUMPDEST SWAP1 DUP2 ISZERO MUL SWAP1 PUSH1 0x40 MLOAD PUSH0 PUSH1 0x40 MLOAD DUP1 DUP4 SUB DUP2 DUP6 DUP9 DUP9 CALL SWAP4 POP POP POP POP ISZERO DUP1 ISZERO PUSH2 0x272 JUMPI RETURNDATASIZE PUSH0 PUSH0 RETURNDATACOPY RETURNDATASIZE PUSH0 REVERT JUMPDEST POP POP JUMP JUMPDEST PUSH0 PUSH0 REVERT JUMPDEST PUSH0 PUSH20 0xFFFFFFFFFFFFFFFFFFFFFFFFFFFFFFFFFFFFFFFF DUP3 AND SWAP1 POP SWAP2 SWAP1 POP JUMP JUMPDEST PUSH0 PUSH2 0x2A3 DUP3 PUSH2 0x27A JUMP JUMPDEST SWAP1 POP SWAP2 SWAP1 POP JUMP JUMPDEST PUSH2 0x2B3 DUP2 PUSH2 0x299 JUMP JUMPDEST DUP2 EQ PUSH2 0x2BD JUMPI PUSH0 PUSH0 REVERT JUMPDEST POP JUMP JUMPDEST PUSH0 DUP2 CALLDATALOAD SWAP1 POP PUSH2 0x2CE DUP2 PUSH2 0x2AA JUMP JUMPDEST SWAP3 SWAP2 POP POP JUMP JUMPDEST PUSH0 PUSH1 0x20 DUP3 DUP5 SUB SLT ISZERO PUSH2 0x2E9 JUMPI PUSH2 0x2E8 PUSH2 0x276 JUMP JUMPDEST JUMPDEST PUSH0 PUSH2 0x2F6 DUP5 DUP3 DUP6 ADD PUSH2 0x2C0 JUMP JUMPDEST SWAP2 POP POP SWAP3 SWAP2 POP POP JUMP JUMPDEST PUSH0 DUP2 SWAP1 POP SWAP2 SWAP1 POP JUMP JUMPDEST PUSH2 0x311 DUP2 PUSH2 0x2FF JUMP JUMPDEST DUP3 MSTORE POP POP JUMP JUMPDEST PUSH0 PUSH1 0x20 DUP3 ADD SWAP1 POP PUSH2 0x32A PUSH0 DUP4 ADD DUP5 PUSH2 0x308 JUMP JUMPDEST SWAP3 SWAP2 POP POP JUMP JUMPDEST PUSH0 DUP2 ISZERO ISZERO SWAP1 POP SWAP2 SWAP1 POP JUMP JUMPDEST PUSH2 0x344 DUP2 PUSH2 0x330 JUMP JUMPDEST DUP3 MSTORE POP POP JUMP JUMPDEST PUSH0 PUSH1 0x20 DUP3 ADD SWAP1 POP PUSH2 0x35D PUSH0 DUP4 ADD DUP5 PUSH2 0x33B JUMP JUMPDEST SWAP3 SWAP2 POP POP JUMP JUMPDEST PUSH2 0x36C DUP2 PUSH2 0x2FF JUMP JUMPDEST DUP2 EQ PUSH2 0x376 JUMPI PUSH0 PUSH0 REVERT JUMPDEST POP JUMP JUMPDEST PUSH0 DUP2 CALLDATALOAD SWAP1 POP PUSH2 0x387 DUP2 PUSH2 0x363 JUMP JUMPDEST SWAP3 SWAP2 POP POP JUMP JUMPDEST PUSH0 PUSH1 0x20 DUP3 DUP5 SUB SLT ISZERO PUSH2 0x3A2 JUMPI PUSH2 0x3A1 PUSH2 0x276 JUMP JUMPDEST JUMPDEST PUSH0 PUSH2 0x3AF DUP5 DUP3 DUP6 ADD PUSH2 0x379 JUMP JUMPDEST SWAP2 POP POP SWAP3 SWAP2 POP POP JUMP JUMPDEST PUSH32 0x4E487B7100000000000000000000000000000000000000000000000000000000 PUSH0 MSTORE PUSH1 0x11 PUSH1 0x4 MSTORE PUSH1 0x24 PUSH0 REVERT JUMPDEST PUSH0 PUSH2 0x3EF DUP3 PUSH2 0x2FF JUMP JUMPDEST SWAP2 POP PUSH2 0x3FA DUP4 PUSH2 0x2FF JUMP JUMPDEST SWAP3 POP DUP3 DUP3 MUL PUSH2 0x408 DUP2 PUSH2 0x2FF JUMP JUMPDEST SWAP2 POP DUP3 DUP3 DIV DUP5 EQ DUP4 ISZERO OR PUSH2 0x41F JUMPI PUSH2 0x41E PUSH2 0x3B8 JUMP JUMPDEST JUMPDEST POP SWAP3 SWAP2 POP POP JUMP JUMPDEST PUSH0 PUSH2 0x430 DUP3 PUSH2 0x2FF JUMP JUMPDEST SWAP2 POP PUSH2 0x43B DUP4 PUSH2 0x2FF JUMP JUMPDEST SWAP3 POP DUP3 DUP3 ADD SWAP1 POP DUP1 DUP3 GT ISZERO PUSH2 0x453 JUMPI PUSH2 0x452 PUSH2 0x3B8 JUMP JUMPDEST JUMPDEST SWAP3 SWAP2 POP POP JUMP JUMPDEST PUSH0 PUSH2 0x463 DUP3 PUSH2 0x2FF JUMP JUMPDEST SWAP2 POP PUSH2 0x46E DUP4 PUSH2 0x2FF JUMP JUMPDEST SWAP3 POP DUP3 DUP3 SUB SWAP1 POP DUP2 DUP2 GT ISZERO PUSH2 0x486 JUMPI PUSH2 0x485 PUSH2 0x3B8 JUMP JUMPDEST JUMPDEST SWAP3 SWAP2 POP POP JUMP INVALID LOG2 PUSH5 0x6970667358 0x22 SLT KECCAK256 PUSH10 0xF32E98865E4570E13176 JUMPF 0x511D MCOPY ADDMOD PUSH22 0x215F2CAA053649CC33AFC3AAA8531C64736F6C634300 ADDMOD 0x1F STOP CALLER "
	},
	"abi": [
		{
			"inputs": [],
			"stateMutability": "payable",
			"type": "constructor"
		},
		{
			"inputs": [
				{
					"internalType": "address",
					"name": "",
					"type": "address"
				}
			],
			"name": "balanceOf",
			"outputs": [
				{
					"internalType": "uint256",
					"name": "",
					"type": "uint256"
				}
			],
			"stateMutability": "view",
			"type": "function"
		},
		{
			"inputs": [
				{
					"internalType": "uint256",
					"name": "numTokens",
					"type": "uint256"
				}
			],
			"name": "buy",
			"outputs": [],
			"stateMutability": "payable",
			"type": "function"
		},
		{
			"inputs": [],
			"name": "isComplete",
			"outputs": [
				{
					"internalType": "bool",
					"name": "",
					"type": "bool"
				}
			],
			"stateMutability": "view",
			"type": "function"
		},
		{
			"inputs": [
				{
					"internalType": "uint256",
					"name": "numTokens",
					"type": "uint256"
				}
			],
			"name": "sell",
			"outputs": [],
			"stateMutability": "nonpayable",
			"type": "function"
		}
	],
	"storageLayout": {
		"storage": [
			{
				"astId": 5,
				"contract": "test.sol:TokenSaleChallenge",
				"label": "balanceOf",
				"offset": 0,
				"slot": "0",
				"type": "t_mapping(t_address,t_uint256)"
			}
		],
		"types": {
			"t_address": {
				"encoding": "inplace",
				"label": "address",
				"numberOfBytes": "20"
			},
			"t_mapping(t_address,t_uint256)": {
				"encoding": "mapping",
				"key": "t_address",
				"label": "mapping(address => uint256)",
				"numberOfBytes": "32",
				"value": "t_uint256"
			},
			"t_uint256": {
				"encoding": "inplace",
				"label": "uint256",
				"numberOfBytes": "32"
			}
		}
	},
	"web3Deploy": "var tokensalechallengeContract = new web3.eth.Contract([{\"inputs\":[],\"stateMutability\":\"payable\",\"type\":\"constructor\"},{\"inputs\":[{\"internalType\":\"address\",\"name\":\"\",\"type\":\"address\"}],\"name\":\"balanceOf\",\"outputs\":[{\"internalType\":\"uint256\",\"name\":\"\",\"type\":\"uint256\"}],\"stateMutability\":\"view\",\"type\":\"function\"},{\"inputs\":[{\"internalType\":\"uint256\",\"name\":\"numTokens\",\"type\":\"uint256\"}],\"name\":\"buy\",\"outputs\":[],\"stateMutability\":\"payable\",\"type\":\"function\"},{\"inputs\":[],\"name\":\"isComplete\",\"outputs\":[{\"internalType\":\"bool\",\"name\":\"\",\"type\":\"bool\"}],\"stateMutability\":\"view\",\"type\":\"function\"},{\"inputs\":[{\"internalType\":\"uint256\",\"name\":\"numTokens\",\"type\":\"uint256\"}],\"name\":\"sell\",\"outputs\":[],\"stateMutability\":\"nonpayable\",\"type\":\"function\"}]);\nvar tokensalechallenge = tokensalechallengeContract.deploy({\n     data: '0x608060405266038d7ea4c6800034146015575f5ffd5b6104c2806100225f395ff3fe60806040526004361061003e575f3560e01c806370a0823114610042578063b2fa1c9e1461007e578063d96a094a146100a8578063e4849b32146100c4575b5f5ffd5b34801561004d575f5ffd5b50610068600480360381019061006391906102d4565b6100ec565b6040516100759190610317565b60405180910390f35b348015610089575f5ffd5b50610092610100565b60405161009f919061034a565b60405180910390f35b6100c260048036038101906100bd919061038d565b610111565b005b3480156100cf575f5ffd5b506100ea60048036038101906100e5919061038d565b610183565b005b5f602052805f5260405f205f915090505481565b5f670de0b6b3a76400004710905090565b66038d7ea4c680008161012491906103e5565b341461012e575f5ffd5b805f5f3373ffffffffffffffffffffffffffffffffffffffff1673ffffffffffffffffffffffffffffffffffffffff1681526020019081526020015f205f8282546101799190610426565b9250508190555050565b805f5f3373ffffffffffffffffffffffffffffffffffffffff1673ffffffffffffffffffffffffffffffffffffffff1681526020019081526020015f205410156101cb575f5ffd5b805f5f3373ffffffffffffffffffffffffffffffffffffffff1673ffffffffffffffffffffffffffffffffffffffff1681526020019081526020015f205f8282546102169190610459565b925050819055503373ffffffffffffffffffffffffffffffffffffffff166108fc66038d7ea4c680008361024a91906103e5565b90811502906040515f60405180830381858888f19350505050158015610272573d5f5f3e3d5ffd5b5050565b5f5ffd5b5f73ffffffffffffffffffffffffffffffffffffffff82169050919050565b5f6102a38261027a565b9050919050565b6102b381610299565b81146102bd575f5ffd5b50565b5f813590506102ce816102aa565b92915050565b5f602082840312156102e9576102e8610276565b5b5f6102f6848285016102c0565b91505092915050565b5f819050919050565b610311816102ff565b82525050565b5f60208201905061032a5f830184610308565b92915050565b5f8115159050919050565b61034481610330565b82525050565b5f60208201905061035d5f83018461033b565b92915050565b61036c816102ff565b8114610376575f5ffd5b50565b5f8135905061038781610363565b92915050565b5f602082840312156103a2576103a1610276565b5b5f6103af84828501610379565b91505092915050565b7f4e487b71000000000000000000000000000000000000000000000000000000005f52601160045260245ffd5b5f6103ef826102ff565b91506103fa836102ff565b9250828202610408816102ff565b9150828204841483151761041f5761041e6103b8565b5b5092915050565b5f610430826102ff565b915061043b836102ff565b9250828201905080821115610453576104526103b8565b5b92915050565b5f610463826102ff565b915061046e836102ff565b9250828203905081811115610486576104856103b8565b5b9291505056fea264697066735822122069f32e98865e4570e13176e5511d5e0875215f2caa053649cc33afc3aaa8531c64736f6c634300081f0033', \n     arguments: [\n     ]\n}).send({\n     from: web3.eth.accounts[0], \n     gas: '4700000'\n   }, function (e, contract){\n    console.log(e, contract);\n    if (typeof contract.address !== 'undefined') {\n         console.log('Contract mined! address: ' + contract.address + ' transactionHash: ' + contract.transactionHash);\n    }\n })",
	"functionHashes": {
		"70a08231": "balanceOf(address)",
		"d96a094a": "buy(uint256)",
		"b2fa1c9e": "isComplete()",
		"e4849b32": "sell(uint256)"
	},
	"gasEstimates": {
		"Creation": {
			"codeDepositCost": "243600",
			"executionCost": "283",
			"totalCost": "243883"
		},
		"External": {
			"balanceOf(address)": "2779",
			"buy(uint256)": "infinite",
			"isComplete()": "346",
			"sell(uint256)": "infinite"
		}
	},
	"devdoc": {
		"kind": "dev",
		"methods": {},
		"version": 1
	},
	"userdoc": {
		"kind": "user",
		"methods": {},
		"version": 1
	},
	"Runtime Bytecode": {
		"immutableReferences": {},
		"linkReferences": {},
		"object": "60806040526004361061003e575f3560e01c806370a0823114610042578063b2fa1c9e1461007e578063d96a094a146100a8578063e4849b32146100c4575b5f5ffd5b34801561004d575f5ffd5b50610068600480360381019061006391906102d4565b6100ec565b6040516100759190610317565b60405180910390f35b348015610089575f5ffd5b50610092610100565b60405161009f919061034a565b60405180910390f35b6100c260048036038101906100bd919061038d565b610111565b005b3480156100cf575f5ffd5b506100ea60048036038101906100e5919061038d565b610183565b005b5f602052805f5260405f205f915090505481565b5f670de0b6b3a76400004710905090565b66038d7ea4c680008161012491906103e5565b341461012e575f5ffd5b805f5f3373ffffffffffffffffffffffffffffffffffffffff1673ffffffffffffffffffffffffffffffffffffffff1681526020019081526020015f205f8282546101799190610426565b9250508190555050565b805f5f3373ffffffffffffffffffffffffffffffffffffffff1673ffffffffffffffffffffffffffffffffffffffff1681526020019081526020015f205410156101cb575f5ffd5b805f5f3373ffffffffffffffffffffffffffffffffffffffff1673ffffffffffffffffffffffffffffffffffffffff1681526020019081526020015f205f8282546102169190610459565b925050819055503373ffffffffffffffffffffffffffffffffffffffff166108fc66038d7ea4c680008361024a91906103e5565b90811502906040515f60405180830381858888f19350505050158015610272573d5f5f3e3d5ffd5b5050565b5f5ffd5b5f73ffffffffffffffffffffffffffffffffffffffff82169050919050565b5f6102a38261027a565b9050919050565b6102b381610299565b81146102bd575f5ffd5b50565b5f813590506102ce816102aa565b92915050565b5f602082840312156102e9576102e8610276565b5b5f6102f6848285016102c0565b91505092915050565b5f819050919050565b610311816102ff565b82525050565b5f60208201905061032a5f830184610308565b92915050565b5f8115159050919050565b61034481610330565b82525050565b5f60208201905061035d5f83018461033b565b92915050565b61036c816102ff565b8114610376575f5ffd5b50565b5f8135905061038781610363565b92915050565b5f602082840312156103a2576103a1610276565b5b5f6103af84828501610379565b91505092915050565b7f4e487b71000000000000000000000000000000000000000000000000000000005f52601160045260245ffd5b5f6103ef826102ff565b91506103fa836102ff565b9250828202610408816102ff565b9150828204841483151761041f5761041e6103b8565b5b5092915050565b5f610430826102ff565b915061043b836102ff565b9250828201905080821115610453576104526103b8565b5b92915050565b5f610463826102ff565b915061046e836102ff565b9250828203905081811115610486576104856103b8565b5b9291505056fea264697066735822122069f32e98865e4570e13176e5511d5e0875215f2caa053649cc33afc3aaa8531c64736f6c634300081f0033",
		"opcodes": "PUSH1 0x80 PUSH1 0x40 MSTORE PUSH1 0x4 CALLDATASIZE LT PUSH2 0x3E JUMPI PUSH0 CALLDATALOAD PUSH1 0xE0 SHR DUP1 PUSH4 0x70A08231 EQ PUSH2 0x42 JUMPI DUP1 PUSH4 0xB2FA1C9E EQ PUSH2 0x7E JUMPI DUP1 PUSH4 0xD96A094A EQ PUSH2 0xA8 JUMPI DUP1 PUSH4 0xE4849B32 EQ PUSH2 0xC4 JUMPI JUMPDEST PUSH0 PUSH0 REVERT JUMPDEST CALLVALUE DUP1 ISZERO PUSH2 0x4D JUMPI PUSH0 PUSH0 REVERT JUMPDEST POP PUSH2 0x68 PUSH1 0x4 DUP1 CALLDATASIZE SUB DUP2 ADD SWAP1 PUSH2 0x63 SWAP2 SWAP1 PUSH2 0x2D4 JUMP JUMPDEST PUSH2 0xEC JUMP JUMPDEST PUSH1 0x40 MLOAD PUSH2 0x75 SWAP2 SWAP1 PUSH2 0x317 JUMP JUMPDEST PUSH1 0x40 MLOAD DUP1 SWAP2 SUB SWAP1 RETURN JUMPDEST CALLVALUE DUP1 ISZERO PUSH2 0x89 JUMPI PUSH0 PUSH0 REVERT JUMPDEST POP PUSH2 0x92 PUSH2 0x100 JUMP JUMPDEST PUSH1 0x40 MLOAD PUSH2 0x9F SWAP2 SWAP1 PUSH2 0x34A JUMP JUMPDEST PUSH1 0x40 MLOAD DUP1 SWAP2 SUB SWAP1 RETURN JUMPDEST PUSH2 0xC2 PUSH1 0x4 DUP1 CALLDATASIZE SUB DUP2 ADD SWAP1 PUSH2 0xBD SWAP2 SWAP1 PUSH2 0x38D JUMP JUMPDEST PUSH2 0x111 JUMP JUMPDEST STOP JUMPDEST CALLVALUE DUP1 ISZERO PUSH2 0xCF JUMPI PUSH0 PUSH0 REVERT JUMPDEST POP PUSH2 0xEA PUSH1 0x4 DUP1 CALLDATASIZE SUB DUP2 ADD SWAP1 PUSH2 0xE5 SWAP2 SWAP1 PUSH2 0x38D JUMP JUMPDEST PUSH2 0x183 JUMP JUMPDEST STOP JUMPDEST PUSH0 PUSH1 0x20 MSTORE DUP1 PUSH0 MSTORE PUSH1 0x40 PUSH0 KECCAK256 PUSH0 SWAP2 POP SWAP1 POP SLOAD DUP2 JUMP JUMPDEST PUSH0 PUSH8 0xDE0B6B3A7640000 SELFBALANCE LT SWAP1 POP SWAP1 JUMP JUMPDEST PUSH7 0x38D7EA4C68000 DUP2 PUSH2 0x124 SWAP2 SWAP1 PUSH2 0x3E5 JUMP JUMPDEST CALLVALUE EQ PUSH2 0x12E JUMPI PUSH0 PUSH0 REVERT JUMPDEST DUP1 PUSH0 PUSH0 CALLER PUSH20 0xFFFFFFFFFFFFFFFFFFFFFFFFFFFFFFFFFFFFFFFF AND PUSH20 0xFFFFFFFFFFFFFFFFFFFFFFFFFFFFFFFFFFFFFFFF AND DUP2 MSTORE PUSH1 0x20 ADD SWAP1 DUP2 MSTORE PUSH1 0x20 ADD PUSH0 KECCAK256 PUSH0 DUP3 DUP3 SLOAD PUSH2 0x179 SWAP2 SWAP1 PUSH2 0x426 JUMP JUMPDEST SWAP3 POP POP DUP2 SWAP1 SSTORE POP POP JUMP JUMPDEST DUP1 PUSH0 PUSH0 CALLER PUSH20 0xFFFFFFFFFFFFFFFFFFFFFFFFFFFFFFFFFFFFFFFF AND PUSH20 0xFFFFFFFFFFFFFFFFFFFFFFFFFFFFFFFFFFFFFFFF AND DUP2 MSTORE PUSH1 0x20 ADD SWAP1 DUP2 MSTORE PUSH1 0x20 ADD PUSH0 KECCAK256 SLOAD LT ISZERO PUSH2 0x1CB JUMPI PUSH0 PUSH0 REVERT JUMPDEST DUP1 PUSH0 PUSH0 CALLER PUSH20 0xFFFFFFFFFFFFFFFFFFFFFFFFFFFFFFFFFFFFFFFF AND PUSH20 0xFFFFFFFFFFFFFFFFFFFFFFFFFFFFFFFFFFFFFFFF AND DUP2 MSTORE PUSH1 0x20 ADD SWAP1 DUP2 MSTORE PUSH1 0x20 ADD PUSH0 KECCAK256 PUSH0 DUP3 DUP3 SLOAD PUSH2 0x216 SWAP2 SWAP1 PUSH2 0x459 JUMP JUMPDEST SWAP3 POP POP DUP2 SWAP1 SSTORE POP CALLER PUSH20 0xFFFFFFFFFFFFFFFFFFFFFFFFFFFFFFFFFFFFFFFF AND PUSH2 0x8FC PUSH7 0x38D7EA4C68000 DUP4 PUSH2 0x24A SWAP2 SWAP1 PUSH2 0x3E5 JUMP JUMPDEST SWAP1 DUP2 ISZERO MUL SWAP1 PUSH1 0x40 MLOAD PUSH0 PUSH1 0x40 MLOAD DUP1 DUP4 SUB DUP2 DUP6 DUP9 DUP9 CALL SWAP4 POP POP POP POP ISZERO DUP1 ISZERO PUSH2 0x272 JUMPI RETURNDATASIZE PUSH0 PUSH0 RETURNDATACOPY RETURNDATASIZE PUSH0 REVERT JUMPDEST POP POP JUMP JUMPDEST PUSH0 PUSH0 REVERT JUMPDEST PUSH0 PUSH20 0xFFFFFFFFFFFFFFFFFFFFFFFFFFFFFFFFFFFFFFFF DUP3 AND SWAP1 POP SWAP2 SWAP1 POP JUMP JUMPDEST PUSH0 PUSH2 0x2A3 DUP3 PUSH2 0x27A JUMP JUMPDEST SWAP1 POP SWAP2 SWAP1 POP JUMP JUMPDEST PUSH2 0x2B3 DUP2 PUSH2 0x299 JUMP JUMPDEST DUP2 EQ PUSH2 0x2BD JUMPI PUSH0 PUSH0 REVERT JUMPDEST POP JUMP JUMPDEST PUSH0 DUP2 CALLDATALOAD SWAP1 POP PUSH2 0x2CE DUP2 PUSH2 0x2AA JUMP JUMPDEST SWAP3 SWAP2 POP POP JUMP JUMPDEST PUSH0 PUSH1 0x20 DUP3 DUP5 SUB SLT ISZERO PUSH2 0x2E9 JUMPI PUSH2 0x2E8 PUSH2 0x276 JUMP JUMPDEST JUMPDEST PUSH0 PUSH2 0x2F6 DUP5 DUP3 DUP6 ADD PUSH2 0x2C0 JUMP JUMPDEST SWAP2 POP POP SWAP3 SWAP2 POP POP JUMP JUMPDEST PUSH0 DUP2 SWAP1 POP SWAP2 SWAP1 POP JUMP JUMPDEST PUSH2 0x311 DUP2 PUSH2 0x2FF JUMP JUMPDEST DUP3 MSTORE POP POP JUMP JUMPDEST PUSH0 PUSH1 0x20 DUP3 ADD SWAP1 POP PUSH2 0x32A PUSH0 DUP4 ADD DUP5 PUSH2 0x308 JUMP JUMPDEST SWAP3 SWAP2 POP POP JUMP JUMPDEST PUSH0 DUP2 ISZERO ISZERO SWAP1 POP SWAP2 SWAP1 POP JUMP JUMPDEST PUSH2 0x344 DUP2 PUSH2 0x330 JUMP JUMPDEST DUP3 MSTORE POP POP JUMP JUMPDEST PUSH0 PUSH1 0x20 DUP3 ADD SWAP1 POP PUSH2 0x35D PUSH0 DUP4 ADD DUP5 PUSH2 0x33B JUMP JUMPDEST SWAP3 SWAP2 POP POP JUMP JUMPDEST PUSH2 0x36C DUP2 PUSH2 0x2FF JUMP JUMPDEST DUP2 EQ PUSH2 0x376 JUMPI PUSH0 PUSH0 REVERT JUMPDEST POP JUMP JUMPDEST PUSH0 DUP2 CALLDATALOAD SWAP1 POP PUSH2 0x387 DUP2 PUSH2 0x363 JUMP JUMPDEST SWAP3 SWAP2 POP POP JUMP JUMPDEST PUSH0 PUSH1 0x20 DUP3 DUP5 SUB SLT ISZERO PUSH2 0x3A2 JUMPI PUSH2 0x3A1 PUSH2 0x276 JUMP JUMPDEST JUMPDEST PUSH0 PUSH2 0x3AF DUP5 DUP3 DUP6 ADD PUSH2 0x379 JUMP JUMPDEST SWAP2 POP POP SWAP3 SWAP2 POP POP JUMP JUMPDEST PUSH32 0x4E487B7100000000000000000000000000000000000000000000000000000000 PUSH0 MSTORE PUSH1 0x11 PUSH1 0x4 MSTORE PUSH1 0x24 PUSH0 REVERT JUMPDEST PUSH0 PUSH2 0x3EF DUP3 PUSH2 0x2FF JUMP JUMPDEST SWAP2 POP PUSH2 0x3FA DUP4 PUSH2 0x2FF JUMP JUMPDEST SWAP3 POP DUP3 DUP3 MUL PUSH2 0x408 DUP2 PUSH2 0x2FF JUMP JUMPDEST SWAP2 POP DUP3 DUP3 DIV DUP5 EQ DUP4 ISZERO OR PUSH2 0x41F JUMPI PUSH2 0x41E PUSH2 0x3B8 JUMP JUMPDEST JUMPDEST POP SWAP3 SWAP2 POP POP JUMP JUMPDEST PUSH0 PUSH2 0x430 DUP3 PUSH2 0x2FF JUMP JUMPDEST SWAP2 POP PUSH2 0x43B DUP4 PUSH2 0x2FF JUMP JUMPDEST SWAP3 POP DUP3 DUP3 ADD SWAP1 POP DUP1 DUP3 GT ISZERO PUSH2 0x453 JUMPI PUSH2 0x452 PUSH2 0x3B8 JUMP JUMPDEST JUMPDEST SWAP3 SWAP2 POP POP JUMP JUMPDEST PUSH0 PUSH2 0x463 DUP3 PUSH2 0x2FF JUMP JUMPDEST SWAP2 POP PUSH2 0x46E DUP4 PUSH2 0x2FF JUMP JUMPDEST SWAP3 POP DUP3 DUP3 SUB SWAP1 POP DUP2 DUP2 GT ISZERO PUSH2 0x486 JUMPI PUSH2 0x485 PUSH2 0x3B8 JUMP JUMPDEST JUMPDEST SWAP3 SWAP2 POP POP JUMP INVALID LOG2 PUSH5 0x6970667358 0x22 SLT KECCAK256 PUSH10 0xF32E98865E4570E13176 JUMPF 0x511D MCOPY ADDMOD PUSH22 0x215F2CAA053649CC33AFC3AAA8531C64736F6C634300 ADDMOD 0x1F STOP CALLER "
	},
	"Assembly": ".code\n  PUSH 80\t\t\tcontract TokenSaleChallenge {\\...\n  PUSH 40\t\t\tcontract TokenSaleChallenge {\\...\n  MSTORE \t\t\tcontract TokenSaleChallenge {\\...\n  PUSH 38D7EA4C68000\t\t\t0.001 ether\n  CALLVALUE \t\t\tmsg.value\n  EQ \t\t\tmsg.value == 0.001 ether\n  PUSH [tag] 3\t\t\trequire(msg.value == 0.001 eth...\n  JUMPI \t\t\trequire(msg.value == 0.001 eth...\n  PUSH 0\t\t\trequire(msg.value == 0.001 eth...\n  PUSH 0\t\t\trequire(msg.value == 0.001 eth...\n  REVERT \t\t\trequire(msg.value == 0.001 eth...\ntag 3\t\t\trequire(msg.value == 0.001 eth...\n  JUMPDEST \t\t\trequire(msg.value == 0.001 eth...\n  PUSH #[$] 0000000000000000000000000000000000000000000000000000000000000000\t\t\tcontract TokenSaleChallenge {\\...\n  DUP1 \t\t\tcontract TokenSaleChallenge {\\...\n  PUSH [$] 0000000000000000000000000000000000000000000000000000000000000000\t\t\tcontract TokenSaleChallenge {\\...\n  PUSH 0\t\t\tcontract TokenSaleChallenge {\\...\n  CODECOPY \t\t\tcontract TokenSaleChallenge {\\...\n  PUSH 0\t\t\tcontract TokenSaleChallenge {\\...\n  RETURN \t\t\tcontract TokenSaleChallenge {\\...\n.data\n  0:\n    .code\n      PUSH 80\t\t\tcontract TokenSaleChallenge {\\...\n      PUSH 40\t\t\tcontract TokenSaleChallenge {\\...\n      MSTORE \t\t\tcontract TokenSaleChallenge {\\...\n      PUSH 4\t\t\tcontract TokenSaleChallenge {\\...\n      CALLDATASIZE \t\t\tcontract TokenSaleChallenge {\\...\n      LT \t\t\tcontract TokenSaleChallenge {\\...\n      PUSH [tag] 1\t\t\tcontract TokenSaleChallenge {\\...\n      JUMPI \t\t\tcontract TokenSaleChallenge {\\...\n      PUSH 0\t\t\tcontract TokenSaleChallenge {\\...\n      CALLDATALOAD \t\t\tcontract TokenSaleChallenge {\\...\n      PUSH E0\t\t\tcontract TokenSaleChallenge {\\...\n      SHR \t\t\tcontract TokenSaleChallenge {\\...\n      DUP1 \t\t\tcontract TokenSaleChallenge {\\...\n      PUSH 70A08231\t\t\tcontract TokenSaleChallenge {\\...\n      EQ \t\t\tcontract TokenSaleChallenge {\\...\n      PUSH [tag] 2\t\t\tcontract TokenSaleChallenge {\\...\n      JUMPI \t\t\tcontract TokenSaleChallenge {\\...\n      DUP1 \t\t\tcontract TokenSaleChallenge {\\...\n      PUSH B2FA1C9E\t\t\tcontract TokenSaleChallenge {\\...\n      EQ \t\t\tcontract TokenSaleChallenge {\\...\n      PUSH [tag] 3\t\t\tcontract TokenSaleChallenge {\\...\n      JUMPI \t\t\tcontract TokenSaleChallenge {\\...\n      DUP1 \t\t\tcontract TokenSaleChallenge {\\...\n      PUSH D96A094A\t\t\tcontract TokenSaleChallenge {\\...\n      EQ \t\t\tcontract TokenSaleChallenge {\\...\n      PUSH [tag] 4\t\t\tcontract TokenSaleChallenge {\\...\n      JUMPI \t\t\tcontract TokenSaleChallenge {\\...\n      DUP1 \t\t\tcontract TokenSaleChallenge {\\...\n      PUSH E4849B32\t\t\tcontract TokenSaleChallenge {\\...\n      EQ \t\t\tcontract TokenSaleChallenge {\\...\n      PUSH [tag] 5\t\t\tcontract TokenSaleChallenge {\\...\n      JUMPI \t\t\tcontract TokenSaleChallenge {\\...\n    tag 1\t\t\tcontract TokenSaleChallenge {\\...\n      JUMPDEST \t\t\tcontract TokenSaleChallenge {\\...\n      PUSH 0\t\t\tcontract TokenSaleChallenge {\\...\n      PUSH 0\t\t\tcontract TokenSaleChallenge {\\...\n      REVERT \t\t\tcontract TokenSaleChallenge {\\...\n    tag 2\t\t\tmapping(address => uint256) pu...\n      JUMPDEST \t\t\tmapping(address => uint256) pu...\n      CALLVALUE \t\t\tmapping(address => uint256) pu...\n      DUP1 \t\t\tmapping(address => uint256) pu...\n      ISZERO \t\t\tmapping(address => uint256) pu...\n      PUSH [tag] 6\t\t\tmapping(address => uint256) pu...\n      JUMPI \t\t\tmapping(address => uint256) pu...\n      PUSH 0\t\t\tmapping(address => uint256) pu...\n      PUSH 0\t\t\tmapping(address => uint256) pu...\n      REVERT \t\t\tmapping(address => uint256) pu...\n    tag 6\t\t\tmapping(address => uint256) pu...\n      JUMPDEST \t\t\tmapping(address => uint256) pu...\n      POP \t\t\tmapping(address => uint256) pu...\n      PUSH [tag] 7\t\t\tmapping(address => uint256) pu...\n      PUSH 4\t\t\tmapping(address => uint256) pu...\n      DUP1 \t\t\tmapping(address => uint256) pu...\n      CALLDATASIZE \t\t\tmapping(address => uint256) pu...\n      SUB \t\t\tmapping(address => uint256) pu...\n      DUP2 \t\t\tmapping(address => uint256) pu...\n      ADD \t\t\tmapping(address => uint256) pu...\n      SWAP1 \t\t\tmapping(address => uint256) pu...\n      PUSH [tag] 8\t\t\tmapping(address => uint256) pu...\n      SWAP2 \t\t\tmapping(address => uint256) pu...\n      SWAP1 \t\t\tmapping(address => uint256) pu...\n      PUSH [tag] 9\t\t\tmapping(address => uint256) pu...\n      JUMP \t\t\tmapping(address => uint256) pu...\n    tag 8\t\t\tmapping(address => uint256) pu...\n      JUMPDEST \t\t\tmapping(address => uint256) pu...\n      PUSH [tag] 10\t\t\tmapping(address => uint256) pu...\n      JUMP \t\t\tmapping(address => uint256) pu...\n    tag 7\t\t\tmapping(address => uint256) pu...\n      JUMPDEST \t\t\tmapping(address => uint256) pu...\n      PUSH 40\t\t\tmapping(address => uint256) pu...\n      MLOAD \t\t\tmapping(address => uint256) pu...\n      PUSH [tag] 11\t\t\tmapping(address => uint256) pu...\n      SWAP2 \t\t\tmapping(address => uint256) pu...\n      SWAP1 \t\t\tmapping(address => uint256) pu...\n      PUSH [tag] 12\t\t\tmapping(address => uint256) pu...\n      JUMP \t\t\tmapping(address => uint256) pu...\n    tag 11\t\t\tmapping(address => uint256) pu...\n      JUMPDEST \t\t\tmapping(address => uint256) pu...\n      PUSH 40\t\t\tmapping(address => uint256) pu...\n      MLOAD \t\t\tmapping(address => uint256) pu...\n      DUP1 \t\t\tmapping(address => uint256) pu...\n      SWAP2 \t\t\tmapping(address => uint256) pu...\n      SUB \t\t\tmapping(address => uint256) pu...\n      SWAP1 \t\t\tmapping(address => uint256) pu...\n      RETURN \t\t\tmapping(address => uint256) pu...\n    tag 3\t\t\tfunction isComplete() public v...\n      JUMPDEST \t\t\tfunction isComplete() public v...\n      CALLVALUE \t\t\tfunction isComplete() public v...\n      DUP1 \t\t\tfunction isComplete() public v...\n      ISZERO \t\t\tfunction isComplete() public v...\n      PUSH [tag] 13\t\t\tfunction isComplete() public v...\n      JUMPI \t\t\tfunction isComplete() public v...\n      PUSH 0\t\t\tfunction isComplete() public v...\n      PUSH 0\t\t\tfunction isComplete() public v...\n      REVERT \t\t\tfunction isComplete() public v...\n    tag 13\t\t\tfunction isComplete() public v...\n      JUMPDEST \t\t\tfunction isComplete() public v...\n      POP \t\t\tfunction isComplete() public v...\n      PUSH [tag] 14\t\t\tfunction isComplete() public v...\n      PUSH [tag] 15\t\t\tfunction isComplete() public v...\n      JUMP \t\t\tfunction isComplete() public v...\n    tag 14\t\t\tfunction isComplete() public v...\n      JUMPDEST \t\t\tfunction isComplete() public v...\n      PUSH 40\t\t\tfunction isComplete() public v...\n      MLOAD \t\t\tfunction isComplete() public v...\n      PUSH [tag] 16\t\t\tfunction isComplete() public v...\n      SWAP2 \t\t\tfunction isComplete() public v...\n      SWAP1 \t\t\tfunction isComplete() public v...\n      PUSH [tag] 17\t\t\tfunction isComplete() public v...\n      JUMP \t\t\tfunction isComplete() public v...\n    tag 16\t\t\tfunction isComplete() public v...\n      JUMPDEST \t\t\tfunction isComplete() public v...\n      PUSH 40\t\t\tfunction isComplete() public v...\n      MLOAD \t\t\tfunction isComplete() public v...\n      DUP1 \t\t\tfunction isComplete() public v...\n      SWAP2 \t\t\tfunction isComplete() public v...\n      SUB \t\t\tfunction isComplete() public v...\n      SWAP1 \t\t\tfunction isComplete() public v...\n      RETURN \t\t\tfunction isComplete() public v...\n    tag 4\t\t\tfunction buy(uint256 numTokens...\n      JUMPDEST \t\t\tfunction buy(uint256 numTokens...\n      PUSH [tag] 18\t\t\tfunction buy(uint256 numTokens...\n      PUSH 4\t\t\tfunction buy(uint256 numTokens...\n      DUP1 \t\t\tfunction buy(uint256 numTokens...\n      CALLDATASIZE \t\t\tfunction buy(uint256 numTokens...\n      SUB \t\t\tfunction buy(uint256 numTokens...\n      DUP2 \t\t\tfunction buy(uint256 numTokens...\n      ADD \t\t\tfunction buy(uint256 numTokens...\n      SWAP1 \t\t\tfunction buy(uint256 numTokens...\n      PUSH [tag] 19\t\t\tfunction buy(uint256 numTokens...\n      SWAP2 \t\t\tfunction buy(uint256 numTokens...\n      SWAP1 \t\t\tfunction buy(uint256 numTokens...\n      PUSH [tag] 20\t\t\tfunction buy(uint256 numTokens...\n      JUMP \t\t\tfunction buy(uint256 numTokens...\n    tag 19\t\t\tfunction buy(uint256 numTokens...\n      JUMPDEST \t\t\tfunction buy(uint256 numTokens...\n      PUSH [tag] 21\t\t\tfunction buy(uint256 numTokens...\n      JUMP \t\t\tfunction buy(uint256 numTokens...\n    tag 18\t\t\tfunction buy(uint256 numTokens...\n      JUMPDEST \t\t\tfunction buy(uint256 numTokens...\n      STOP \t\t\tfunction buy(uint256 numTokens...\n    tag 5\t\t\tfunction sell(uint256 numToken...\n      JUMPDEST \t\t\tfunction sell(uint256 numToken...\n      CALLVALUE \t\t\tfunction sell(uint256 numToken...\n      DUP1 \t\t\tfunction sell(uint256 numToken...\n      ISZERO \t\t\tfunction sell(uint256 numToken...\n      PUSH [tag] 22\t\t\tfunction sell(uint256 numToken...\n      JUMPI \t\t\tfunction sell(uint256 numToken...\n      PUSH 0\t\t\tfunction sell(uint256 numToken...\n      PUSH 0\t\t\tfunction sell(uint256 numToken...\n      REVERT \t\t\tfunction sell(uint256 numToken...\n    tag 22\t\t\tfunction sell(uint256 numToken...\n      JUMPDEST \t\t\tfunction sell(uint256 numToken...\n      POP \t\t\tfunction sell(uint256 numToken...\n      PUSH [tag] 23\t\t\tfunction sell(uint256 numToken...\n      PUSH 4\t\t\tfunction sell(uint256 numToken...\n      DUP1 \t\t\tfunction sell(uint256 numToken...\n      CALLDATASIZE \t\t\tfunction sell(uint256 numToken...\n      SUB \t\t\tfunction sell(uint256 numToken...\n      DUP2 \t\t\tfunction sell(uint256 numToken...\n      ADD \t\t\tfunction sell(uint256 numToken...\n      SWAP1 \t\t\tfunction sell(uint256 numToken...\n      PUSH [tag] 24\t\t\tfunction sell(uint256 numToken...\n      SWAP2 \t\t\tfunction sell(uint256 numToken...\n      SWAP1 \t\t\tfunction sell(uint256 numToken...\n      PUSH [tag] 20\t\t\tfunction sell(uint256 numToken...\n      JUMP \t\t\tfunction sell(uint256 numToken...\n    tag 24\t\t\tfunction sell(uint256 numToken...\n      JUMPDEST \t\t\tfunction sell(uint256 numToken...\n      PUSH [tag] 25\t\t\tfunction sell(uint256 numToken...\n      JUMP \t\t\tfunction sell(uint256 numToken...\n    tag 23\t\t\tfunction sell(uint256 numToken...\n      JUMPDEST \t\t\tfunction sell(uint256 numToken...\n      STOP \t\t\tfunction sell(uint256 numToken...\n    tag 10\t\t\tmapping(address => uint256) pu...\n      JUMPDEST \t\t\tmapping(address => uint256) pu...\n      PUSH 0\t\t\tmapping(address => uint256) pu...\n      PUSH 20\t\t\tmapping(address => uint256) pu...\n      MSTORE \t\t\tmapping(address => uint256) pu...\n      DUP1 \t\t\tmapping(address => uint256) pu...\n      PUSH 0\t\t\tmapping(address => uint256) pu...\n      MSTORE \t\t\tmapping(address => uint256) pu...\n      PUSH 40\t\t\tmapping(address => uint256) pu...\n      PUSH 0\t\t\tmapping(address => uint256) pu...\n      KECCAK256 \t\t\tmapping(address => uint256) pu...\n      PUSH 0\t\t\tmapping(address => uint256) pu...\n      SWAP2 \t\t\tmapping(address => uint256) pu...\n      POP \t\t\tmapping(address => uint256) pu...\n      SWAP1 \t\t\tmapping(address => uint256) pu...\n      POP \t\t\tmapping(address => uint256) pu...\n      SLOAD \t\t\tmapping(address => uint256) pu...\n      DUP2 \t\t\tmapping(address => uint256) pu...\n      JUMP \t\t\tmapping(address => uint256) pu...\n    tag 15\t\t\tfunction isComplete() public v...\n      JUMPDEST \t\t\tfunction isComplete() public v...\n      PUSH 0\t\t\tbool\n      PUSH DE0B6B3A7640000\t\t\t1 ether\n      SELFBALANCE \t\t\taddress(this).balance\n      LT \t\t\taddress(this).balance < 1 ethe...\n      SWAP1 \t\t\treturn address(this).balance <...\n      POP \t\t\treturn address(this).balance <...\n      SWAP1 \t\t\tfunction isComplete() public v...\n      JUMP \t\t\tfunction isComplete() public v...\n    tag 21\t\t\tfunction buy(uint256 numTokens...\n      JUMPDEST \t\t\tfunction buy(uint256 numTokens...\n      PUSH 38D7EA4C68000\t\t\t0.001 ether\n      DUP2 \t\t\tnumTokens\n      PUSH [tag] 28\t\t\tnumTokens * PRICE_PER_TOKEN\n      SWAP2 \t\t\tnumTokens * PRICE_PER_TOKEN\n      SWAP1 \t\t\tnumTokens * PRICE_PER_TOKEN\n      PUSH [tag] 29\t\t\tnumTokens * PRICE_PER_TOKEN\n      JUMP \t\t\tnumTokens * PRICE_PER_TOKEN\n    tag 28\t\t\tnumTokens * PRICE_PER_TOKEN\n      JUMPDEST \t\t\tnumTokens * PRICE_PER_TOKEN\n      CALLVALUE \t\t\tmsg.value\n      EQ \t\t\tmsg.value == numTokens * PRICE...\n      PUSH [tag] 30\t\t\trequire(msg.value == numTokens...\n      JUMPI \t\t\trequire(msg.value == numTokens...\n      PUSH 0\t\t\trequire(msg.value == numTokens...\n      PUSH 0\t\t\trequire(msg.value == numTokens...\n      REVERT \t\t\trequire(msg.value == numTokens...\n    tag 30\t\t\trequire(msg.value == numTokens...\n      JUMPDEST \t\t\trequire(msg.value == numTokens...\n      DUP1 \t\t\tnumTokens\n      PUSH 0\t\t\tbalanceOf\n      PUSH 0\t\t\tbalanceOf[msg.sender]\n      CALLER \t\t\tmsg.sender\n      PUSH FFFFFFFFFFFFFFFFFFFFFFFFFFFFFFFFFFFFFFFF\t\t\tbalanceOf[msg.sender]\n      AND \t\t\tbalanceOf[msg.sender]\n      PUSH FFFFFFFFFFFFFFFFFFFFFFFFFFFFFFFFFFFFFFFF\t\t\tbalanceOf[msg.sender]\n      AND \t\t\tbalanceOf[msg.sender]\n      DUP2 \t\t\tbalanceOf[msg.sender]\n      MSTORE \t\t\tbalanceOf[msg.sender]\n      PUSH 20\t\t\tbalanceOf[msg.sender]\n      ADD \t\t\tbalanceOf[msg.sender]\n      SWAP1 \t\t\tbalanceOf[msg.sender]\n      DUP2 \t\t\tbalanceOf[msg.sender]\n      MSTORE \t\t\tbalanceOf[msg.sender]\n      PUSH 20\t\t\tbalanceOf[msg.sender]\n      ADD \t\t\tbalanceOf[msg.sender]\n      PUSH 0\t\t\tbalanceOf[msg.sender]\n      KECCAK256 \t\t\tbalanceOf[msg.sender]\n      PUSH 0\t\t\tbalanceOf[msg.sender]\n      DUP3 \t\t\tbalanceOf[msg.sender] += numTo...\n      DUP3 \t\t\tbalanceOf[msg.sender] += numTo...\n      SLOAD \t\t\tbalanceOf[msg.sender] += numTo...\n      PUSH [tag] 31\t\t\tbalanceOf[msg.sender] += numTo...\n      SWAP2 \t\t\tbalanceOf[msg.sender] += numTo...\n      SWAP1 \t\t\tbalanceOf[msg.sender] += numTo...\n      PUSH [tag] 32\t\t\tbalanceOf[msg.sender] += numTo...\n      JUMP \t\t\tbalanceOf[msg.sender] += numTo...\n    tag 31\t\t\tbalanceOf[msg.sender] += numTo...\n      JUMPDEST \t\t\tbalanceOf[msg.sender] += numTo...\n      SWAP3 \t\t\tbalanceOf[msg.sender] += numTo...\n      POP \t\t\tbalanceOf[msg.sender] += numTo...\n      POP \t\t\tbalanceOf[msg.sender] += numTo...\n      DUP2 \t\t\tbalanceOf[msg.sender] += numTo...\n      SWAP1 \t\t\tbalanceOf[msg.sender] += numTo...\n      SSTORE \t\t\tbalanceOf[msg.sender] += numTo...\n      POP \t\t\tbalanceOf[msg.sender] += numTo...\n      POP \t\t\tfunction buy(uint256 numTokens...\n      JUMP \t\t\tfunction buy(uint256 numTokens...\n    tag 25\t\t\tfunction sell(uint256 numToken...\n      JUMPDEST \t\t\tfunction sell(uint256 numToken...\n      DUP1 \t\t\tnumTokens\n      PUSH 0\t\t\tbalanceOf\n      PUSH 0\t\t\tbalanceOf[msg.sender]\n      CALLER \t\t\tmsg.sender\n      PUSH FFFFFFFFFFFFFFFFFFFFFFFFFFFFFFFFFFFFFFFF\t\t\tbalanceOf[msg.sender]\n      AND \t\t\tbalanceOf[msg.sender]\n      PUSH FFFFFFFFFFFFFFFFFFFFFFFFFFFFFFFFFFFFFFFF\t\t\tbalanceOf[msg.sender]\n      AND \t\t\tbalanceOf[msg.sender]\n      DUP2 \t\t\tbalanceOf[msg.sender]\n      MSTORE \t\t\tbalanceOf[msg.sender]\n      PUSH 20\t\t\tbalanceOf[msg.sender]\n      ADD \t\t\tbalanceOf[msg.sender]\n      SWAP1 \t\t\tbalanceOf[msg.sender]\n      DUP2 \t\t\tbalanceOf[msg.sender]\n      MSTORE \t\t\tbalanceOf[msg.sender]\n      PUSH 20\t\t\tbalanceOf[msg.sender]\n      ADD \t\t\tbalanceOf[msg.sender]\n      PUSH 0\t\t\tbalanceOf[msg.sender]\n      KECCAK256 \t\t\tbalanceOf[msg.sender]\n      SLOAD \t\t\tbalanceOf[msg.sender]\n      LT \t\t\tbalanceOf[msg.sender] >= numTo...\n      ISZERO \t\t\tbalanceOf[msg.sender] >= numTo...\n      PUSH [tag] 34\t\t\trequire(balanceOf[msg.sender] ...\n      JUMPI \t\t\trequire(balanceOf[msg.sender] ...\n      PUSH 0\t\t\trequire(balanceOf[msg.sender] ...\n      PUSH 0\t\t\trequire(balanceOf[msg.sender] ...\n      REVERT \t\t\trequire(balanceOf[msg.sender] ...\n    tag 34\t\t\trequire(balanceOf[msg.sender] ...\n      JUMPDEST \t\t\trequire(balanceOf[msg.sender] ...\n      DUP1 \t\t\tnumTokens\n      PUSH 0\t\t\tbalanceOf\n      PUSH 0\t\t\tbalanceOf[msg.sender]\n      CALLER \t\t\tmsg.sender\n      PUSH FFFFFFFFFFFFFFFFFFFFFFFFFFFFFFFFFFFFFFFF\t\t\tbalanceOf[msg.sender]\n      AND \t\t\tbalanceOf[msg.sender]\n      PUSH FFFFFFFFFFFFFFFFFFFFFFFFFFFFFFFFFFFFFFFF\t\t\tbalanceOf[msg.sender]\n      AND \t\t\tbalanceOf[msg.sender]\n      DUP2 \t\t\tbalanceOf[msg.sender]\n      MSTORE \t\t\tbalanceOf[msg.sender]\n      PUSH 20\t\t\tbalanceOf[msg.sender]\n      ADD \t\t\tbalanceOf[msg.sender]\n      SWAP1 \t\t\tbalanceOf[msg.sender]\n      DUP2 \t\t\tbalanceOf[msg.sender]\n      MSTORE \t\t\tbalanceOf[msg.sender]\n      PUSH 20\t\t\tbalanceOf[msg.sender]\n      ADD \t\t\tbalanceOf[msg.sender]\n      PUSH 0\t\t\tbalanceOf[msg.sender]\n      KECCAK256 \t\t\tbalanceOf[msg.sender]\n      PUSH 0\t\t\tbalanceOf[msg.sender]\n      DUP3 \t\t\tbalanceOf[msg.sender] -= numTo...\n      DUP3 \t\t\tbalanceOf[msg.sender] -= numTo...\n      SLOAD \t\t\tbalanceOf[msg.sender] -= numTo...\n      PUSH [tag] 35\t\t\tbalanceOf[msg.sender] -= numTo...\n      SWAP2 \t\t\tbalanceOf[msg.sender] -= numTo...\n      SWAP1 \t\t\tbalanceOf[msg.sender] -= numTo...\n      PUSH [tag] 36\t\t\tbalanceOf[msg.sender] -= numTo...\n      JUMP \t\t\tbalanceOf[msg.sender] -= numTo...\n    tag 35\t\t\tbalanceOf[msg.sender] -= numTo...\n      JUMPDEST \t\t\tbalanceOf[msg.sender] -= numTo...\n      SWAP3 \t\t\tbalanceOf[msg.sender] -= numTo...\n      POP \t\t\tbalanceOf[msg.sender] -= numTo...\n      POP \t\t\tbalanceOf[msg.sender] -= numTo...\n      DUP2 \t\t\tbalanceOf[msg.sender] -= numTo...\n      SWAP1 \t\t\tbalanceOf[msg.sender] -= numTo...\n      SSTORE \t\t\tbalanceOf[msg.sender] -= numTo...\n      POP \t\t\tbalanceOf[msg.sender] -= numTo...\n      CALLER \t\t\tmsg.sender\n      PUSH FFFFFFFFFFFFFFFFFFFFFFFFFFFFFFFFFFFFFFFF\t\t\tpayable(address(msg.sender)).t...\n      AND \t\t\tpayable(address(msg.sender)).t...\n      PUSH 8FC\t\t\tpayable(address(msg.sender)).t...\n      PUSH 38D7EA4C68000\t\t\t0.001 ether\n      DUP4 \t\t\tnumTokens\n      PUSH [tag] 37\t\t\tnumTokens * PRICE_PER_TOKEN\n      SWAP2 \t\t\tnumTokens * PRICE_PER_TOKEN\n      SWAP1 \t\t\tnumTokens * PRICE_PER_TOKEN\n      PUSH [tag] 29\t\t\tnumTokens * PRICE_PER_TOKEN\n      JUMP \t\t\tnumTokens * PRICE_PER_TOKEN\n    tag 37\t\t\tnumTokens * PRICE_PER_TOKEN\n      JUMPDEST \t\t\tnumTokens * PRICE_PER_TOKEN\n      SWAP1 \t\t\tpayable(address(msg.sender)).t...\n      DUP2 \t\t\tpayable(address(msg.sender)).t...\n      ISZERO \t\t\tpayable(address(msg.sender)).t...\n      MUL \t\t\tpayable(address(msg.sender)).t...\n      SWAP1 \t\t\tpayable(address(msg.sender)).t...\n      PUSH 40\t\t\tpayable(address(msg.sender)).t...\n      MLOAD \t\t\tpayable(address(msg.sender)).t...\n      PUSH 0\t\t\tpayable(address(msg.sender)).t...\n      PUSH 40\t\t\tpayable(address(msg.sender)).t...\n      MLOAD \t\t\tpayable(address(msg.sender)).t...\n      DUP1 \t\t\tpayable(address(msg.sender)).t...\n      DUP4 \t\t\tpayable(address(msg.sender)).t...\n      SUB \t\t\tpayable(address(msg.sender)).t...\n      DUP2 \t\t\tpayable(address(msg.sender)).t...\n      DUP6 \t\t\tpayable(address(msg.sender)).t...\n      DUP9 \t\t\tpayable(address(msg.sender)).t...\n      DUP9 \t\t\tpayable(address(msg.sender)).t...\n      CALL \t\t\tpayable(address(msg.sender)).t...\n      SWAP4 \t\t\tpayable(address(msg.sender)).t...\n      POP \t\t\tpayable(address(msg.sender)).t...\n      POP \t\t\tpayable(address(msg.sender)).t...\n      POP \t\t\tpayable(address(msg.sender)).t...\n      POP \t\t\tpayable(address(msg.sender)).t...\n      ISZERO \t\t\tpayable(address(msg.sender)).t...\n      DUP1 \t\t\tpayable(address(msg.sender)).t...\n      ISZERO \t\t\tpayable(address(msg.sender)).t...\n      PUSH [tag] 39\t\t\tpayable(address(msg.sender)).t...\n      JUMPI \t\t\tpayable(address(msg.sender)).t...\n      RETURNDATASIZE \t\t\tpayable(address(msg.sender)).t...\n      PUSH 0\t\t\tpayable(address(msg.sender)).t...\n      PUSH 0\t\t\tpayable(address(msg.sender)).t...\n      RETURNDATACOPY \t\t\tpayable(address(msg.sender)).t...\n      RETURNDATASIZE \t\t\tpayable(address(msg.sender)).t...\n      PUSH 0\t\t\tpayable(address(msg.sender)).t...\n      REVERT \t\t\tpayable(address(msg.sender)).t...\n    tag 39\t\t\tpayable(address(msg.sender)).t...\n      JUMPDEST \t\t\tpayable(address(msg.sender)).t...\n      POP \t\t\tpayable(address(msg.sender)).t...\n      POP \t\t\tfunction sell(uint256 numToken...\n      JUMP \t\t\tfunction sell(uint256 numToken...\n    tag 41\t\t\t  mapping(address => uint256) ...\n      JUMPDEST \t\t\t  mapping(address => uint256) ...\n      PUSH 0\t\t\tt\n      PUSH 0\t\t\to\n      REVERT \t\t\t\\n\\n    constr\n    tag 43\t\t\t   return address(this).balanc...\n      JUMPDEST \t\t\t   return address(this).balanc...\n      PUSH 0\t\t\tther;\\n \n      PUSH FFFFFFFFFFFFFFFFFFFFFFFFFFFFFFFFFFFFFFFF\t\t\tmTokens) public payable {\\n   ...\n      DUP3 \t\t\tt256 \n      AND \t\t\t(uint256 numTokens) public pay...\n      SWAP1 \t\t\tunction buy(uint256 numTokens)...\n      POP \t\t\tunction buy(uint256 numTokens)...\n      SWAP2 \t\t\t   return address(this).balanc...\n      SWAP1 \t\t\t   return address(this).balanc...\n      POP \t\t\t   return address(this).balanc...\n      JUMP \t\t\t   return address(this).balanc...\n    tag 44\t\t\tnumTokens * PRICE_PER_TOKEN);\\...\n      JUMPDEST \t\t\tnumTokens * PRICE_PER_TOKEN);\\...\n      PUSH 0\t\t\t  balan\n      PUSH [tag] 60\t\t\tmTokens;\\n    }\\n\\n    func\n      DUP3 \t\t\t  fun\n      PUSH [tag] 43\t\t\tmTokens;\\n    }\\n\\n    func\n      JUMP \t\t\tmTokens;\\n    }\\n\\n    func\n    tag 60\t\t\tmTokens;\\n    }\\n\\n    func\n      JUMPDEST \t\t\tmTokens;\\n    }\\n\\n    func\n      SWAP1 \t\t\tnder] += numTokens;\\n    }\\n\\n...\n      POP \t\t\tnder] += numTokens;\\n    }\\n\\n...\n      SWAP2 \t\t\tnumTokens * PRICE_PER_TOKEN);\\...\n      SWAP1 \t\t\tnumTokens * PRICE_PER_TOKEN);\\...\n      POP \t\t\tnumTokens * PRICE_PER_TOKEN);\\...\n      JUMP \t\t\tnumTokens * PRICE_PER_TOKEN);\\...\n    tag 45\t\t\tnt256 numTokens) public {\\n   ...\n      JUMPDEST \t\t\tnt256 numTokens) public {\\n   ...\n      PUSH [tag] 62\t\t\tens);\\n\\n        balanceOf\n      DUP2 \t\t\tanceO\n      PUSH [tag] 44\t\t\tens);\\n\\n        balanceOf\n      JUMP \t\t\tens);\\n\\n        balanceOf\n    tag 62\t\t\tens);\\n\\n        balanceOf\n      JUMPDEST \t\t\tens);\\n\\n        balanceOf\n      DUP2 \t\t\t numT\n      EQ \t\t\t >= numTokens);\\n\\n        bal...\n      PUSH [tag] 63\t\t\tsg.sender] >= numTokens);\\n\\n ...\n      JUMPI \t\t\tsg.sender] >= numTokens);\\n\\n ...\n      PUSH 0\t\t\t \n      PUSH 0\t\t\t \n      REVERT \t\t\tsender] -= n\n    tag 63\t\t\tsg.sender] >= numTokens);\\n\\n ...\n      JUMPDEST \t\t\tsg.sender] >= numTokens);\\n\\n ...\n      POP \t\t\tnt256 numTokens) public {\\n   ...\n      JUMP \t\t\tnt256 numTokens) public {\\n   ...\n    tag 46\t\t\t    payable(address(msg.sender...\n      JUMPDEST \t\t\t    payable(address(msg.sender...\n      PUSH 0\t\t\tokens\n      DUP2 \t\t\t\n      CALLDATALOAD \t\t\t\\n    }\\n}\n      SWAP1 \t\t\tR_TOKEN);\\n    }\\n}\n      POP \t\t\tR_TOKEN);\\n    }\\n}\n      PUSH [tag] 65\t\t\t\n      DUP2 \t\t\t\n      PUSH [tag] 45\t\t\t\n      JUMP \t\t\t\n    tag 65\t\t\t\n      JUMPDEST \t\t\t\n      SWAP3 \t\t\t    payable(address(msg.sender...\n      SWAP2 \t\t\t    payable(address(msg.sender...\n      POP \t\t\t    payable(address(msg.sender...\n      POP \t\t\t    payable(address(msg.sender...\n      JUMP \t\t\t    payable(address(msg.sender...\n    tag 9\t\t\t\n      JUMPDEST \t\t\t\n      PUSH 0\t\t\t\n      PUSH 20\t\t\t\n      DUP3 \t\t\t\n      DUP5 \t\t\t\n      SUB \t\t\t\n      SLT \t\t\t\n      ISZERO \t\t\t\n      PUSH [tag] 67\t\t\t\n      JUMPI \t\t\t\n      PUSH [tag] 68\t\t\t\n      PUSH [tag] 41\t\t\t\n      JUMP \t\t\t\n    tag 68\t\t\t\n      JUMPDEST \t\t\t\n    tag 67\t\t\t\n      JUMPDEST \t\t\t\n      PUSH 0\t\t\t\n      PUSH [tag] 69\t\t\t\n      DUP5 \t\t\t\n      DUP3 \t\t\t\n      DUP6 \t\t\t\n      ADD \t\t\t\n      PUSH [tag] 46\t\t\t\n      JUMP \t\t\t\n    tag 69\t\t\t\n      JUMPDEST \t\t\t\n      SWAP2 \t\t\t\n      POP \t\t\t\n      POP \t\t\t\n      SWAP3 \t\t\t\n      SWAP2 \t\t\t\n      POP \t\t\t\n      POP \t\t\t\n      JUMP \t\t\t\n    tag 47\t\t\t\n      JUMPDEST \t\t\t\n      PUSH 0\t\t\t\n      DUP2 \t\t\t\n      SWAP1 \t\t\t\n      POP \t\t\t\n      SWAP2 \t\t\t\n      SWAP1 \t\t\t\n      POP \t\t\t\n      JUMP \t\t\t\n    tag 48\t\t\t\n      JUMPDEST \t\t\t\n      PUSH [tag] 72\t\t\t\n      DUP2 \t\t\t\n      PUSH [tag] 47\t\t\t\n      JUMP \t\t\t\n    tag 72\t\t\t\n      JUMPDEST \t\t\t\n      DUP3 \t\t\t\n      MSTORE \t\t\t\n      POP \t\t\t\n      POP \t\t\t\n      JUMP \t\t\t\n    tag 12\t\t\t\n      JUMPDEST \t\t\t\n      PUSH 0\t\t\t\n      PUSH 20\t\t\t\n      DUP3 \t\t\t\n      ADD \t\t\t\n      SWAP1 \t\t\t\n      POP \t\t\t\n      PUSH [tag] 74\t\t\t\n      PUSH 0\t\t\t\n      DUP4 \t\t\t\n      ADD \t\t\t\n      DUP5 \t\t\t\n      PUSH [tag] 48\t\t\t\n      JUMP \t\t\t\n    tag 74\t\t\t\n      JUMPDEST \t\t\t\n      SWAP3 \t\t\t\n      SWAP2 \t\t\t\n      POP \t\t\t\n      POP \t\t\t\n      JUMP \t\t\t\n    tag 49\t\t\t\n      JUMPDEST \t\t\t\n      PUSH 0\t\t\t\n      DUP2 \t\t\t\n      ISZERO \t\t\t\n      ISZERO \t\t\t\n      SWAP1 \t\t\t\n      POP \t\t\t\n      SWAP2 \t\t\t\n      SWAP1 \t\t\t\n      POP \t\t\t\n      JUMP \t\t\t\n    tag 50\t\t\t\n      JUMPDEST \t\t\t\n      PUSH [tag] 77\t\t\t\n      DUP2 \t\t\t\n      PUSH [tag] 49\t\t\t\n      JUMP \t\t\t\n    tag 77\t\t\t\n      JUMPDEST \t\t\t\n      DUP3 \t\t\t\n      MSTORE \t\t\t\n      POP \t\t\t\n      POP \t\t\t\n      JUMP \t\t\t\n    tag 17\t\t\t\n      JUMPDEST \t\t\t\n      PUSH 0\t\t\t\n      PUSH 20\t\t\t\n      DUP3 \t\t\t\n      ADD \t\t\t\n      SWAP1 \t\t\t\n      POP \t\t\t\n      PUSH [tag] 79\t\t\t\n      PUSH 0\t\t\t\n      DUP4 \t\t\t\n      ADD \t\t\t\n      DUP5 \t\t\t\n      PUSH [tag] 50\t\t\t\n      JUMP \t\t\t\n    tag 79\t\t\t\n      JUMPDEST \t\t\t\n      SWAP3 \t\t\t\n      SWAP2 \t\t\t\n      POP \t\t\t\n      POP \t\t\t\n      JUMP \t\t\t\n    tag 51\t\t\t\n      JUMPDEST \t\t\t\n      PUSH [tag] 81\t\t\t\n      DUP2 \t\t\t\n      PUSH [tag] 47\t\t\t\n      JUMP \t\t\t\n    tag 81\t\t\t\n      JUMPDEST \t\t\t\n      DUP2 \t\t\t\n      EQ \t\t\t\n      PUSH [tag] 82\t\t\t\n      JUMPI \t\t\t\n      PUSH 0\t\t\t\n      PUSH 0\t\t\t\n      REVERT \t\t\t\n    tag 82\t\t\t\n      JUMPDEST \t\t\t\n      POP \t\t\t\n      JUMP \t\t\t\n    tag 52\t\t\t\n      JUMPDEST \t\t\t\n      PUSH 0\t\t\t\n      DUP2 \t\t\t\n      CALLDATALOAD \t\t\t\n      SWAP1 \t\t\t\n      POP \t\t\t\n      PUSH [tag] 84\t\t\t\n      DUP2 \t\t\t\n      PUSH [tag] 51\t\t\t\n      JUMP \t\t\t\n    tag 84\t\t\t\n      JUMPDEST \t\t\t\n      SWAP3 \t\t\t\n      SWAP2 \t\t\t\n      POP \t\t\t\n      POP \t\t\t\n      JUMP \t\t\t\n    tag 20\t\t\t\n      JUMPDEST \t\t\t\n      PUSH 0\t\t\t\n      PUSH 20\t\t\t\n      DUP3 \t\t\t\n      DUP5 \t\t\t\n      SUB \t\t\t\n      SLT \t\t\t\n      ISZERO \t\t\t\n      PUSH [tag] 86\t\t\t\n      JUMPI \t\t\t\n      PUSH [tag] 87\t\t\t\n      PUSH [tag] 41\t\t\t\n      JUMP \t\t\t\n    tag 87\t\t\t\n      JUMPDEST \t\t\t\n    tag 86\t\t\t\n      JUMPDEST \t\t\t\n      PUSH 0\t\t\t\n      PUSH [tag] 88\t\t\t\n      DUP5 \t\t\t\n      DUP3 \t\t\t\n      DUP6 \t\t\t\n      ADD \t\t\t\n      PUSH [tag] 52\t\t\t\n      JUMP \t\t\t\n    tag 88\t\t\t\n      JUMPDEST \t\t\t\n      SWAP2 \t\t\t\n      POP \t\t\t\n      POP \t\t\t\n      SWAP3 \t\t\t\n      SWAP2 \t\t\t\n      POP \t\t\t\n      POP \t\t\t\n      JUMP \t\t\t\n    tag 53\t\t\t\n      JUMPDEST \t\t\t\n      PUSH 4E487B7100000000000000000000000000000000000000000000000000000000\t\t\t\n      PUSH 0\t\t\t\n      MSTORE \t\t\t\n      PUSH 11\t\t\t\n      PUSH 4\t\t\t\n      MSTORE \t\t\t\n      PUSH 24\t\t\t\n      PUSH 0\t\t\t\n      REVERT \t\t\t\n    tag 29\t\t\t\n      JUMPDEST \t\t\t\n      PUSH 0\t\t\t\n      PUSH [tag] 91\t\t\t\n      DUP3 \t\t\t\n      PUSH [tag] 47\t\t\t\n      JUMP \t\t\t\n    tag 91\t\t\t\n      JUMPDEST \t\t\t\n      SWAP2 \t\t\t\n      POP \t\t\t\n      PUSH [tag] 92\t\t\t\n      DUP4 \t\t\t\n      PUSH [tag] 47\t\t\t\n      JUMP \t\t\t\n    tag 92\t\t\t\n      JUMPDEST \t\t\t\n      SWAP3 \t\t\t\n      POP \t\t\t\n      DUP3 \t\t\t\n      DUP3 \t\t\t\n      MUL \t\t\t\n      PUSH [tag] 93\t\t\t\n      DUP2 \t\t\t\n      PUSH [tag] 47\t\t\t\n      JUMP \t\t\t\n    tag 93\t\t\t\n      JUMPDEST \t\t\t\n      SWAP2 \t\t\t\n      POP \t\t\t\n      DUP3 \t\t\t\n      DUP3 \t\t\t\n      DIV \t\t\t\n      DUP5 \t\t\t\n      EQ \t\t\t\n      DUP4 \t\t\t\n      ISZERO \t\t\t\n      OR \t\t\t\n      PUSH [tag] 94\t\t\t\n      JUMPI \t\t\t\n      PUSH [tag] 95\t\t\t\n      PUSH [tag] 53\t\t\t\n      JUMP \t\t\t\n    tag 95\t\t\t\n      JUMPDEST \t\t\t\n    tag 94\t\t\t\n      JUMPDEST \t\t\t\n      POP \t\t\t\n      SWAP3 \t\t\t\n      SWAP2 \t\t\t\n      POP \t\t\t\n      POP \t\t\t\n      JUMP \t\t\t\n    tag 32\t\t\t\n      JUMPDEST \t\t\t\n      PUSH 0\t\t\t\n      PUSH [tag] 97\t\t\t\n      DUP3 \t\t\t\n      PUSH [tag] 47\t\t\t\n      JUMP \t\t\t\n    tag 97\t\t\t\n      JUMPDEST \t\t\t\n      SWAP2 \t\t\t\n      POP \t\t\t\n      PUSH [tag] 98\t\t\t\n      DUP4 \t\t\t\n      PUSH [tag] 47\t\t\t\n      JUMP \t\t\t\n    tag 98\t\t\t\n      JUMPDEST \t\t\t\n      SWAP3 \t\t\t\n      POP \t\t\t\n      DUP3 \t\t\t\n      DUP3 \t\t\t\n      ADD \t\t\t\n      SWAP1 \t\t\t\n      POP \t\t\t\n      DUP1 \t\t\t\n      DUP3 \t\t\t\n      GT \t\t\t\n      ISZERO \t\t\t\n      PUSH [tag] 99\t\t\t\n      JUMPI \t\t\t\n      PUSH [tag] 100\t\t\t\n      PUSH [tag] 53\t\t\t\n      JUMP \t\t\t\n    tag 100\t\t\t\n      JUMPDEST \t\t\t\n    tag 99\t\t\t\n      JUMPDEST \t\t\t\n      SWAP3 \t\t\t\n      SWAP2 \t\t\t\n      POP \t\t\t\n      POP \t\t\t\n      JUMP \t\t\t\n    tag 36\t\t\t\n      JUMPDEST \t\t\t\n      PUSH 0\t\t\t\n      PUSH [tag] 102\t\t\t\n      DUP3 \t\t\t\n      PUSH [tag] 47\t\t\t\n      JUMP \t\t\t\n    tag 102\t\t\t\n      JUMPDEST \t\t\t\n      SWAP2 \t\t\t\n      POP \t\t\t\n      PUSH [tag] 103\t\t\t\n      DUP4 \t\t\t\n      PUSH [tag] 47\t\t\t\n      JUMP \t\t\t\n    tag 103\t\t\t\n      JUMPDEST \t\t\t\n      SWAP3 \t\t\t\n      POP \t\t\t\n      DUP3 \t\t\t\n      DUP3 \t\t\t\n      SUB \t\t\t\n      SWAP1 \t\t\t\n      POP \t\t\t\n      DUP2 \t\t\t\n      DUP2 \t\t\t\n      GT \t\t\t\n      ISZERO \t\t\t\n      PUSH [tag] 104\t\t\t\n      JUMPI \t\t\t\n      PUSH [tag] 105\t\t\t\n      PUSH [tag] 53\t\t\t\n      JUMP \t\t\t\n    tag 105\t\t\t\n      JUMPDEST \t\t\t\n    tag 104\t\t\t\n      JUMPDEST \t\t\t\n      SWAP3 \t\t\t\n      SWAP2 \t\t\t\n      POP \t\t\t\n      POP \t\t\t\n      JUMP \t\t\t\n    .data\n"
}